{
	"data": {
		"bytecode": {
			"linkReferences": {},
			"object": "60a06040523073ffffffffffffffffffffffffffffffffffffffff1660809073ffffffffffffffffffffffffffffffffffffffff16815250348015610042575f80fd5b5060805161476a6100775f395f8181610c1201528181610ca001528181610e7601528181610f040152610fd2015261476a5ff3fe6080604052600436106101d7575f3560e01c80635bec0d3711610101578063c4d66de811610094578063ea6469f811610063578063ea6469f814610705578063f2fde38b1461072d578063f78dd84d14610755578063f96f8b631461077d576101d7565b8063c4d66de814610651578063c86a64f714610679578063cbf50bb6146106b5578063e16aa3c0146106dd576101d7565b8063aadc3b72116100d0578063aadc3b7214610575578063af83d4d8146105b1578063b8cc3eaa146105d9578063c0abe2fe14610615576101d7565b80635bec0d37146104bf5780636b3da26f146104e75780638da5cb5b1461052357806391e8d2071461054d576101d7565b80634bc2ea7d116101795780635153d467116101485780635153d467146103e057806352d1902d1461041c578063550325b514610446578063555e907414610483576101d7565b80634bc2ea7d146103365780634d7fc58e1461035e5780634e70b1dc1461039a5780634f1ef286146103c4576101d7565b8063188b5339116101b5578063188b5339146102555780632e2f4e24146102965780633659cfe6146102d2578063419eb411146102fa576101d7565b806301bf652c146101db57806303d1d693146101f157806305cd5a361461022d575b5f80fd5b3480156101e6575f80fd5b506101ef6107a5565b005b3480156101fc575f80fd5b50610217600480360381019061021291906128cf565b6107c0565b6040516102249190612925565b60405180910390f35b348015610238575f80fd5b50610253600480360381019061024e9190612998565b6107e0565b005b348015610260575f80fd5b5061027b600480360381019061027691906128cf565b61093d565b60405161028d96959493929190612b35565b60405180910390f35b3480156102a1575f80fd5b506102bc60048036038101906102b79190612998565b610bbe565b6040516102c99190612bbc565b60405180910390f35b3480156102dd575f80fd5b506102f860048036038101906102f39190612998565b610c10565b005b348015610305575f80fd5b50610320600480360381019061031b91906128cf565b610d96565b60405161032d9190612925565b60405180910390f35b348015610341575f80fd5b5061035c60048036038101906103579190612f2d565b610dc0565b005b348015610369575f80fd5b50610384600480360381019061037f91906128cf565b610e3f565b6040516103919190612bbc565b60405180910390f35b3480156103a5575f80fd5b506103ae610e6e565b6040516103bb9190612f74565b60405180910390f35b6103de60048036038101906103d9919061302b565b610e74565b005b3480156103eb575f80fd5b5061040660048036038101906104019190613085565b610fb0565b6040516104139190612bbc565b60405180910390f35b348015610427575f80fd5b50610430610fcf565b60405161043d9190612925565b60405180910390f35b348015610451575f80fd5b5061046c60048036038101906104679190613085565b611086565b60405161047a9291906130f8565b60405180910390f35b34801561048e575f80fd5b506104a960048036038101906104a491906128cf565b61112c565b6040516104b69190612925565b60405180910390f35b3480156104ca575f80fd5b506104e560048036038101906104e09190613324565b61114c565b005b3480156104f2575f80fd5b5061050d60048036038101906105089190612998565b611193565b60405161051a9190612bbc565b60405180910390f35b34801561052e575f80fd5b506105376111e5565b604051610544919061337a565b60405180910390f35b348015610558575f80fd5b50610573600480360381019061056e9190613393565b61120a565b005b348015610580575f80fd5b5061059b600480360381019061059691906133fb565b611338565b6040516105a89190612bbc565b60405180910390f35b3480156105bc575f80fd5b506105d760048036038101906105d29190613439565b61139a565b005b3480156105e4575f80fd5b506105ff60048036038101906105fa91906128cf565b611504565b60405161060c9190612bbc565b60405180910390f35b348015610620575f80fd5b5061063b60048036038101906106369190613493565b61150b565b6040516106489190612bbc565b60405180910390f35b34801561065c575f80fd5b5061067760048036038101906106729190612998565b61152e565b005b348015610684575f80fd5b5061069f600480360381019061069a9190613085565b6116a7565b6040516106ac9190612f74565b60405180910390f35b3480156106c0575f80fd5b506106db60048036038101906106d69190613085565b6116bc565b005b3480156106e8575f80fd5b5061070360048036038101906106fe91906134be565b6117f6565b005b348015610710575f80fd5b5061072b60048036038101906107269190613393565b61180a565b005b348015610738575f80fd5b50610753600480360381019061074e9190612998565b6119a0565b005b348015610760575f80fd5b5061077b60048036038101906107769190612998565b611a72565b005b348015610788575f80fd5b506107a3600480360381019061079e91906134be565b611c47565b005b6002600c5f8282546107b79190613532565b92505081905550565b6009602052815f5260405f20602052805f5260405f205f91509150505481565b60035f9054906101000a900473ffffffffffffffffffffffffffffffffffffffff1673ffffffffffffffffffffffffffffffffffffffff163373ffffffffffffffffffffffffffffffffffffffff161461086f576040517f08c379a0000000000000000000000000000000000000000000000000000000008152600401610866906135bd565b60405180910390fd5b61087881611193565b6108b7576040517f08c379a00000000000000000000000000000000000000000000000000000000081526004016108ae90613625565b60405180910390fd5b60065f8273ffffffffffffffffffffffffffffffffffffffff1673ffffffffffffffffffffffffffffffffffffffff1681526020019081526020015f205f6101000a81549060ff02191690557f18952ed4229327e2d83d53a06b823c2da3b19cb320c82017b8da5f60b6dfe8f081604051610932919061337a565b60405180910390a150565b600b602052815f5260405f20602052805f5260405f205f9150915050805f015490806001015490806002016040518060400160405290815f8201548152602001600182015f9054906101000a900473ffffffffffffffffffffffffffffffffffffffff1673ffffffffffffffffffffffffffffffffffffffff1673ffffffffffffffffffffffffffffffffffffffff168152505090806004016040518060400160405290815f82015481526020016001820180546109fa90613670565b80601f0160208091040260200160405190810160405280929190818152602001828054610a2690613670565b8015610a715780601f10610a4857610100808354040283529160200191610a71565b820191905f5260205f20905b815481529060010190602001808311610a5457829003601f168201915b50505050508152505090806006016040518060600160405290815f82018054610a9990613670565b80601f0160208091040260200160405190810160405280929190818152602001828054610ac590613670565b8015610b105780601f10610ae757610100808354040283529160200191610b10565b820191905f5260205f20905b815481529060010190602001808311610af357829003601f168201915b5050505050815260200160018201548152602001600282018054610b3390613670565b80601f0160208091040260200160405190810160405280929190818152602001828054610b5f90613670565b8015610baa5780601f10610b8157610100808354040283529160200191610baa565b820191905f5260205f20905b815481529060010190602001808311610b8d57829003601f168201915b505050505081525050908060090154905086565b5f60045f8373ffffffffffffffffffffffffffffffffffffffff1673ffffffffffffffffffffffffffffffffffffffff1681526020019081526020015f205f9054906101000a900460ff169050919050565b7f000000000000000000000000000000000000000000000000000000000000000073ffffffffffffffffffffffffffffffffffffffff163073ffffffffffffffffffffffffffffffffffffffff1603610c9e576040517f08c379a0000000000000000000000000000000000000000000000000000000008152600401610c9590613710565b60405180910390fd5b7f000000000000000000000000000000000000000000000000000000000000000073ffffffffffffffffffffffffffffffffffffffff16610cdd611d40565b73ffffffffffffffffffffffffffffffffffffffff1614610d33576040517f08c379a0000000000000000000000000000000000000000000000000000000008152600401610d2a9061379e565b60405180910390fd5b610d3c81611d93565b610d93815f67ffffffffffffffff811115610d5a57610d59612bd9565b5b6040519080825280601f01601f191660200182016040528015610d8c5781602001600182028036833780820191505090505b505f611dee565b50565b5f60095f8481526020019081526020015f205f8381526020019081526020015f2054905092915050565b610dd081606001515f0151611f58565b6001815f018181525050610dea81606001515f0151611ff4565b816020018181525050610dfc81612036565b7ffd257db59eb300e45d6cf1474d6740c876dbeff48f3f77cd83a4e2df4463904881604051610e2b9190613904565b60405180910390a1610e3c81612145565b50565b5f805f1b600a5f8581526020019081526020015f205f8481526020019081526020015f20541415905092915050565b600c5481565b7f000000000000000000000000000000000000000000000000000000000000000073ffffffffffffffffffffffffffffffffffffffff163073ffffffffffffffffffffffffffffffffffffffff1603610f02576040517f08c379a0000000000000000000000000000000000000000000000000000000008152600401610ef990613710565b60405180910390fd5b7f000000000000000000000000000000000000000000000000000000000000000073ffffffffffffffffffffffffffffffffffffffff16610f41611d40565b73ffffffffffffffffffffffffffffffffffffffff1614610f97576040517f08c379a0000000000000000000000000000000000000000000000000000000008152600401610f8e9061379e565b60405180910390fd5b610fa082611d93565b610fac82826001611dee565b5050565b5f8060075f8481526020019081526020015f205f015414159050919050565b5f7f000000000000000000000000000000000000000000000000000000000000000073ffffffffffffffffffffffffffffffffffffffff163073ffffffffffffffffffffffffffffffffffffffff161461105e576040517f08c379a000000000000000000000000000000000000000000000000000000000815260040161105590613994565b60405180910390fd5b7f360894a13ba1a3210667c828492db98dca3e2076cc3735a920a3ca505d382bbc5f1b905090565b6007602052805f5260405f205f91509050805f0154908060010180546110ab90613670565b80601f01602080910402602001604051908101604052809291908181526020018280546110d790613670565b80156111225780601f106110f957610100808354040283529160200191611122565b820191905f5260205f20905b81548152906001019060200180831161110557829003601f168201915b5050505050905082565b600a602052815f5260405f20602052805f5260405f205f91509150505481565b611154612148565b5f5b815181101561118f57611182828281518110611175576111746139b2565b5b6020026020010151612192565b8080600101915050611156565b5050565b5f60065f8373ffffffffffffffffffffffffffffffffffffffff1673ffffffffffffffffffffffffffffffffffffffff1681526020019081526020015f205f9054906101000a900460ff169050919050565b60035f9054906101000a900473ffffffffffffffffffffffffffffffffffffffff1681565b60035f9054906101000a900473ffffffffffffffffffffffffffffffffffffffff1673ffffffffffffffffffffffffffffffffffffffff163373ffffffffffffffffffffffffffffffffffffffff1614611299576040517f08c379a0000000000000000000000000000000000000000000000000000000008152600401611290906135bd565b60405180910390fd5b6112a282610bbe565b156113345760045f8373ffffffffffffffffffffffffffffffffffffffff1673ffffffffffffffffffffffffffffffffffffffff1681526020019081526020015f205f6101000a81549060ff0219169055806005819055507f4d9baafb1aaa72b5de32bbdb949ea3d6be986b9989a747834d6470df6738352d828260405161132b9291906139df565b60405180910390a15b5050565b5f60015f8481526020019081526020015f205f8373ffffffffffffffffffffffffffffffffffffffff1673ffffffffffffffffffffffffffffffffffffffff1681526020019081526020015f205f9054906101000a900460ff16905092915050565b60035f9054906101000a900473ffffffffffffffffffffffffffffffffffffffff1673ffffffffffffffffffffffffffffffffffffffff163373ffffffffffffffffffffffffffffffffffffffff1614611429576040517f08c379a0000000000000000000000000000000000000000000000000000000008152600401611420906135bd565b60405180910390fd5b61143282610fb0565b15611472576040517f08c379a000000000000000000000000000000000000000000000000000000000815260040161146990613a50565b60405180910390fd5b60405180604001604052808381526020018281525060075f8481526020019081526020015f205f820151815f015560208201518160010190816114b59190613c0b565b509050507f98d2ada6e8e6c16dc5c0cd7305c7ea2a5487d613218c7498c4b1ce5c8fbd452560075f8481526020019081526020015f206040516114f89190613dce565b60405180910390a15050565b5f92915050565b5f6115146121b2565b5f808481526020019081526020015f205410159050919050565b5f600860019054906101000a900460ff161590508080156115605750600160085f9054906101000a900460ff1660ff16105b8061158e575061156f306121bb565b15801561158d5750600160085f9054906101000a900460ff1660ff16145b5b6115cd576040517f08c379a00000000000000000000000000000000000000000000000000000000081526004016115c490613e5e565b60405180910390fd5b600160085f6101000a81548160ff021916908360ff160217905550801561160a576001600860016101000a81548160ff0219169083151502179055505b8160035f6101000a81548173ffffffffffffffffffffffffffffffffffffffff021916908373ffffffffffffffffffffffffffffffffffffffff16021790555080156116a3575f600860016101000a81548160ff0219169083151502179055507f7f26b83ff96e1f2b6a682f133852f6798a09c465da95921460cefb3847402498600160405161169a9190613ec1565b60405180910390a15b5050565b6002602052805f5260405f205f915090505481565b60035f9054906101000a900473ffffffffffffffffffffffffffffffffffffffff1673ffffffffffffffffffffffffffffffffffffffff163373ffffffffffffffffffffffffffffffffffffffff161461174b576040517f08c379a0000000000000000000000000000000000000000000000000000000008152600401611742906135bd565b60405180910390fd5b61175481610fb0565b611793576040517f08c379a000000000000000000000000000000000000000000000000000000000815260040161178a90613f24565b60405180910390fd5b60075f8281526020019081526020015f205f8082015f9055600182015f6117ba9190612833565b50507f11a9d1a77f76361ed131c19b1dc5758504c51dbde2e49fc973a0ef9577ad13d5816040516117eb9190612f74565b60405180910390a150565b6117fe612148565b61180781612192565b50565b60035f9054906101000a900473ffffffffffffffffffffffffffffffffffffffff1673ffffffffffffffffffffffffffffffffffffffff163373ffffffffffffffffffffffffffffffffffffffff1614611899576040517f08c379a0000000000000000000000000000000000000000000000000000000008152600401611890906135bd565b60405180910390fd5b5f73ffffffffffffffffffffffffffffffffffffffff168273ffffffffffffffffffffffffffffffffffffffff1603611907576040517f08c379a00000000000000000000000000000000000000000000000000000000081526004016118fe90613f8c565b60405180910390fd5b600160045f8473ffffffffffffffffffffffffffffffffffffffff1673ffffffffffffffffffffffffffffffffffffffff1681526020019081526020015f205f6101000a81548160ff021916908315150217905550806005819055507f3048c9ea63a33da5ed9a73829970fa3c31e6a8b32bbc5747e24632f61c027e8e82826040516119949291906139df565b60405180910390a15050565b60035f9054906101000a900473ffffffffffffffffffffffffffffffffffffffff1673ffffffffffffffffffffffffffffffffffffffff163373ffffffffffffffffffffffffffffffffffffffff1614611a2f576040517f08c379a0000000000000000000000000000000000000000000000000000000008152600401611a26906135bd565b60405180910390fd5b8060035f6101000a81548173ffffffffffffffffffffffffffffffffffffffff021916908373ffffffffffffffffffffffffffffffffffffffff16021790555050565b60035f9054906101000a900473ffffffffffffffffffffffffffffffffffffffff1673ffffffffffffffffffffffffffffffffffffffff163373ffffffffffffffffffffffffffffffffffffffff1614611b01576040517f08c379a0000000000000000000000000000000000000000000000000000000008152600401611af8906135bd565b60405180910390fd5b5f73ffffffffffffffffffffffffffffffffffffffff168173ffffffffffffffffffffffffffffffffffffffff1603611b6f576040517f08c379a0000000000000000000000000000000000000000000000000000000008152600401611b6690613f8c565b60405180910390fd5b611b7881611193565b15611bb8576040517f08c379a0000000000000000000000000000000000000000000000000000000008152600401611baf90613ff4565b60405180910390fd5b600160065f8373ffffffffffffffffffffffffffffffffffffffff1673ffffffffffffffffffffffffffffffffffffffff1681526020019081526020015f205f6101000a81548160ff0219169083151502179055507f94a4797e4c030e498da08bb8871d39298528d0f1269fba1da4363703331d58e981604051611c3c919061337a565b60405180910390a150565b611c5033611193565b611c8f576040517f08c379a0000000000000000000000000000000000000000000000000000000008152600401611c8690613625565b60405180910390fd5b5f611ca582606001515f01518360200151610d96565b9050611cb0826121dd565b8114611cf1576040517f08c379a0000000000000000000000000000000000000000000000000000000008152600401611ce89061405c565b60405180910390fd5b611cfa8261225e565b611d0582600261226a565b7f636209b10d69c1917cd00a9dc825c2440aed804c54f2e9d9a3dddd2cf863c22381604051611d349190612925565b60405180910390a15050565b5f611d6c7f360894a13ba1a3210667c828492db98dca3e2076cc3735a920a3ca505d382bbc5f1b612278565b5f015f9054906101000a900473ffffffffffffffffffffffffffffffffffffffff16905090565b60035f9054906101000a900473ffffffffffffffffffffffffffffffffffffffff1673ffffffffffffffffffffffffffffffffffffffff163373ffffffffffffffffffffffffffffffffffffffff1614611deb575f80fd5b50565b611e197f4910fdfa16fed3260ed0e7147f7cc6da11a60208b5b9406d12a635614ffd91435f1b612281565b5f015f9054906101000a900460ff1615611e3b57611e368361228a565b611f53565b8273ffffffffffffffffffffffffffffffffffffffff166352d1902d6040518163ffffffff1660e01b8152600401602060405180830381865afa925050508015611ea357506040513d601f19601f82011682018060405250810190611ea0919061408e565b60015b611ee2576040517f08c379a0000000000000000000000000000000000000000000000000000000008152600401611ed990614129565b60405180910390fd5b7f360894a13ba1a3210667c828492db98dca3e2076cc3735a920a3ca505d382bbc5f1b8114611f46576040517f08c379a0000000000000000000000000000000000000000000000000000000008152600401611f3d906141b7565b60405180910390fd5b50611f52838383612340565b5b505050565b611f618161236b565b611f6a33611193565b611fa9576040517f08c379a0000000000000000000000000000000000000000000000000000000008152600401611fa090613625565b60405180910390fd5b611fb281610fb0565b611ff1576040517f08c379a0000000000000000000000000000000000000000000000000000000008152600401611fe89061421f565b60405180910390fd5b50565b5f600160025f8481526020019081526020015f205f828254612016919061423d565b9250508190555060025f8381526020019081526020015f20549050919050565b80600b5f83606001515f015181526020019081526020015f205f836020015181526020019081526020015f205f820151815f0155602082015181600101556040820151816002015f820151815f01556020820151816001015f6101000a81548173ffffffffffffffffffffffffffffffffffffffff021916908373ffffffffffffffffffffffffffffffffffffffff16021790555050506060820151816004015f820151815f015560208201518160010190816120f39190613c0b565b5050506080820151816006015f820151815f0190816121129190613c0b565b506020820151816001015560408201518160020190816121329190613c0b565b50505060a0820151816009015590505050565b50565b61215133610bbe565b612190576040517f08c379a0000000000000000000000000000000000000000000000000000000008152600401612187906142ba565b60405180910390fd5b565b61219b8161225e565b6121a681600161226a565b6121af8161236e565b50565b5f600554905090565b5f808273ffffffffffffffffffffffffffffffffffffffff163b119050919050565b5f815f0151826020015183604001515f015184604001516020015185606001515f015186606001516020015187608001515f01518860800151602001518960800151604001518a60a001516040516020016122419a99989796959493929190614377565b604051602081830303815290604052805190602001209050919050565b61226781612371565b50565b61227482826123d2565b5050565b5f819050919050565b5f819050919050565b612293816121bb565b6122d2576040517f08c379a00000000000000000000000000000000000000000000000000000000081526004016122c990614496565b60405180910390fd5b806122fe7f360894a13ba1a3210667c828492db98dca3e2076cc3735a920a3ca505d382bbc5f1b612278565b5f015f6101000a81548173ffffffffffffffffffffffffffffffffffffffff021916908373ffffffffffffffffffffffffffffffffffffffff16021790555050565b6123498361243a565b5f825111806123555750805b15612366576123648383612489565b505b505050565b50565b50565b61237a816124b6565b61238f81606001515f01518260200151610e3f565b156123cf576040517f08c379a00000000000000000000000000000000000000000000000000000000081526004016123c6906144fe565b60405180910390fd5b50565b6123dc82826124c2565b6002811415806123fe57506123fc82606001515f01518360200151611504565b155b6124365761241782606001515f01518360200151612670565b61243582606001515f01518360200151612430856121dd565b612697565b5b5050565b6124438161228a565b8073ffffffffffffffffffffffffffffffffffffffff167fbc7cd75a20ee27fd9adebab32041f755214dbc6bffa90cc0225b39da2e5c2d3b60405160405180910390a250565b60606124ae838360405180606001604052806027815260200161470e602791396126c1565b905092915050565b6124bf8161279c565b50565b6124cc828261279f565b6001810361266c576124e982604001515f01518360200151611504565b61266c575f6124f7836121dd565b90506125038133611338565b15612547577f0bcf2ea3c8b515fe50f169a4131ce2d2198afc8ec7d83a8658d7bcb0a5fbbe77813360405161253992919061451c565b60405180910390a15061266c565b7f0b2f654b7e608ce51a82ce8157e79c350ed670605e8985266ad89fc85060e749813360405161257892919061451c565b60405180910390a16001805f8381526020019081526020015f205f3373ffffffffffffffffffffffffffffffffffffffff1673ffffffffffffffffffffffffffffffffffffffff1681526020019081526020015f205f6101000a81548160ff02191690831515021790555060015f808381526020019081526020015f205f828254612603919061423d565b925050819055506126138161150b565b61261d575061266c565b61263383604001515f01518460200151836127a3565b7f6a682edff95435e4296456174cda6db4f55df7ffa152dd25b5eaa810d50803fe83604051612662919061460b565b60405180910390a1505b5050565b60095f8381526020019081526020015f205f8281526020019081526020015f205f90555050565b80600a5f8581526020019081526020015f205f8481526020019081526020015f2081905550505050565b60606126cc846121bb565b80156126de57506126dc336121bb565b155b61271d576040517f08c379a000000000000000000000000000000000000000000000000000000000815260040161271490614675565b60405180910390fd5b5f808573ffffffffffffffffffffffffffffffffffffffff168560405161274491906146d7565b5f60405180830381855af49150503d805f811461277c576040519150601f19603f3d011682016040523d82523d5f602084013e612781565b606091505b50915091506127918282866127cd565b925050509392505050565b50565b5050565b8060095f8581526020019081526020015f205f8481526020019081526020015f2081905550505050565b606083156127dd5782905061282c565b5f835111156127ef5782518084602001fd5b816040517f08c379a000000000000000000000000000000000000000000000000000000000815260040161282391906146ed565b60405180910390fd5b9392505050565b50805461283f90613670565b5f825580601f10612850575061286d565b601f0160209004905f5260205f209081019061286c9190612870565b5b50565b5b80821115612887575f815f905550600101612871565b5090565b5f604051905090565b5f80fd5b5f80fd5b5f819050919050565b6128ae8161289c565b81146128b8575f80fd5b50565b5f813590506128c9816128a5565b92915050565b5f80604083850312156128e5576128e4612894565b5b5f6128f2858286016128bb565b9250506020612903858286016128bb565b9150509250929050565b5f819050919050565b61291f8161290d565b82525050565b5f6020820190506129385f830184612916565b92915050565b5f73ffffffffffffffffffffffffffffffffffffffff82169050919050565b5f6129678261293e565b9050919050565b6129778161295d565b8114612981575f80fd5b50565b5f813590506129928161296e565b92915050565b5f602082840312156129ad576129ac612894565b5b5f6129ba84828501612984565b91505092915050565b6129cc8161289c565b82525050565b6129db8161289c565b82525050565b6129ea8161295d565b82525050565b604082015f820151612a045f8501826129d2565b506020820151612a1760208501826129e1565b50505050565b5f81519050919050565b5f82825260208201905092915050565b5f5b83811015612a54578082015181840152602081019050612a39565b5f8484015250505050565b5f601f19601f8301169050919050565b5f612a7982612a1d565b612a838185612a27565b9350612a93818560208601612a37565b612a9c81612a5f565b840191505092915050565b5f604083015f830151612abc5f8601826129d2565b5060208301518482036020860152612ad48282612a6f565b9150508091505092915050565b5f606083015f8301518482035f860152612afb8282612a6f565b9150506020830151612b1060208601826129d2565b5060408301518482036040860152612b288282612a6f565b9150508091505092915050565b5f60e082019050612b485f8301896129c3565b612b5560208301886129c3565b612b6260408301876129f0565b8181036080830152612b748186612aa7565b905081810360a0830152612b888185612ae1565b9050612b9760c08301846129c3565b979650505050505050565b5f8115159050919050565b612bb681612ba2565b82525050565b5f602082019050612bcf5f830184612bad565b92915050565b5f80fd5b7f4e487b71000000000000000000000000000000000000000000000000000000005f52604160045260245ffd5b612c0f82612a5f565b810181811067ffffffffffffffff82111715612c2e57612c2d612bd9565b5b80604052505050565b5f612c4061288b565b9050612c4c8282612c06565b919050565b5f80fd5b5f60408284031215612c6a57612c69612bd5565b5b612c746040612c37565b90505f612c83848285016128bb565b5f830152506020612c9684828501612984565b60208301525092915050565b5f80fd5b5f80fd5b5f67ffffffffffffffff821115612cc457612cc3612bd9565b5b612ccd82612a5f565b9050602081019050919050565b828183375f83830152505050565b5f612cfa612cf584612caa565b612c37565b905082815260208101848484011115612d1657612d15612ca6565b5b612d21848285612cda565b509392505050565b5f82601f830112612d3d57612d3c612ca2565b5b8135612d4d848260208601612ce8565b91505092915050565b5f60408284031215612d6b57612d6a612bd5565b5b612d756040612c37565b90505f612d84848285016128bb565b5f83015250602082013567ffffffffffffffff811115612da757612da6612c51565b5b612db384828501612d29565b60208301525092915050565b5f60608284031215612dd457612dd3612bd5565b5b612dde6060612c37565b90505f82013567ffffffffffffffff811115612dfd57612dfc612c51565b5b612e0984828501612d29565b5f830152506020612e1c848285016128bb565b602083015250604082013567ffffffffffffffff811115612e4057612e3f612c51565b5b612e4c84828501612d29565b60408301525092915050565b5f60e08284031215612e6d57612e6c612bd5565b5b612e7760c0612c37565b90505f612e86848285016128bb565b5f830152506020612e99848285016128bb565b6020830152506040612ead84828501612c55565b604083015250608082013567ffffffffffffffff811115612ed157612ed0612c51565b5b612edd84828501612d56565b60608301525060a082013567ffffffffffffffff811115612f0157612f00612c51565b5b612f0d84828501612dbf565b60808301525060c0612f21848285016128bb565b60a08301525092915050565b5f60208284031215612f4257612f41612894565b5b5f82013567ffffffffffffffff811115612f5f57612f5e612898565b5b612f6b84828501612e58565b91505092915050565b5f602082019050612f875f8301846129c3565b92915050565b5f67ffffffffffffffff821115612fa757612fa6612bd9565b5b612fb082612a5f565b9050602081019050919050565b5f612fcf612fca84612f8d565b612c37565b905082815260208101848484011115612feb57612fea612ca6565b5b612ff6848285612cda565b509392505050565b5f82601f83011261301257613011612ca2565b5b8135613022848260208601612fbd565b91505092915050565b5f806040838503121561304157613040612894565b5b5f61304e85828601612984565b925050602083013567ffffffffffffffff81111561306f5761306e612898565b5b61307b85828601612ffe565b9150509250929050565b5f6020828403121561309a57613099612894565b5b5f6130a7848285016128bb565b91505092915050565b5f82825260208201905092915050565b5f6130ca82612a1d565b6130d481856130b0565b93506130e4818560208601612a37565b6130ed81612a5f565b840191505092915050565b5f60408201905061310b5f8301856129c3565b818103602083015261311d81846130c0565b90509392505050565b5f67ffffffffffffffff8211156131405761313f612bd9565b5b602082029050602081019050919050565b5f80fd5b5f6060828403121561316a57613169612bd5565b5b6131746060612c37565b90505f61318384828501612984565b5f830152506020613196848285016128bb565b60208301525060406131aa84828501612984565b60408301525092915050565b5f61012082840312156131cc576131cb612bd5565b5b6131d660c0612c37565b90505f6131e5848285016128bb565b5f8301525060206131f8848285016128bb565b602083015250604082013567ffffffffffffffff81111561321c5761321b612c51565b5b61322884828501612d56565b604083015250606061323c84828501612c55565b60608301525060a061325084828501613155565b608083015250610100613265848285016128bb565b60a08301525092915050565b5f61328361327e84613126565b612c37565b905080838252602082019050602084028301858111156132a6576132a5613151565b5b835b818110156132ed57803567ffffffffffffffff8111156132cb576132ca612ca2565b5b8086016132d889826131b6565b855260208501945050506020810190506132a8565b5050509392505050565b5f82601f83011261330b5761330a612ca2565b5b813561331b848260208601613271565b91505092915050565b5f6020828403121561333957613338612894565b5b5f82013567ffffffffffffffff81111561335657613355612898565b5b613362848285016132f7565b91505092915050565b6133748161295d565b82525050565b5f60208201905061338d5f83018461336b565b92915050565b5f80604083850312156133a9576133a8612894565b5b5f6133b685828601612984565b92505060206133c7858286016128bb565b9150509250929050565b6133da8161290d565b81146133e4575f80fd5b50565b5f813590506133f5816133d1565b92915050565b5f806040838503121561341157613410612894565b5b5f61341e858286016133e7565b925050602061342f85828601612984565b9150509250929050565b5f806040838503121561344f5761344e612894565b5b5f61345c858286016128bb565b925050602083013567ffffffffffffffff81111561347d5761347c612898565b5b61348985828601612d29565b9150509250929050565b5f602082840312156134a8576134a7612894565b5b5f6134b5848285016133e7565b91505092915050565b5f602082840312156134d3576134d2612894565b5b5f82013567ffffffffffffffff8111156134f0576134ef612898565b5b6134fc848285016131b6565b91505092915050565b7f4e487b71000000000000000000000000000000000000000000000000000000005f52601160045260245ffd5b5f61353c8261289c565b91506135478361289c565b92508282026135558161289c565b9150828204841483151761356c5761356b613505565b5b5092915050565b7f4e6f74206f776e657200000000000000000000000000000000000000000000005f82015250565b5f6135a76009836130b0565b91506135b282613573565b602082019050919050565b5f6020820190508181035f8301526135d48161359b565b9050919050565b7f556e6b6e6f776e20546f6b656e205365727669636500000000000000000000005f82015250565b5f61360f6015836130b0565b915061361a826135db565b602082019050919050565b5f6020820190508181035f83015261363c81613603565b9050919050565b7f4e487b71000000000000000000000000000000000000000000000000000000005f52602260045260245ffd5b5f600282049050600182168061368757607f821691505b60208210810361369a57613699613643565b5b50919050565b7f46756e6374696f6e206d7573742062652063616c6c6564207468726f756768205f8201527f64656c656761746563616c6c0000000000000000000000000000000000000000602082015250565b5f6136fa602c836130b0565b9150613705826136a0565b604082019050919050565b5f6020820190508181035f830152613727816136ee565b9050919050565b7f46756e6374696f6e206d7573742062652063616c6c6564207468726f756768205f8201527f6163746976652070726f78790000000000000000000000000000000000000000602082015250565b5f613788602c836130b0565b91506137938261372e565b604082019050919050565b5f6020820190508181035f8301526137b58161377c565b9050919050565b604082015f8201516137d05f8501826129d2565b5060208201516137e360208501826129e1565b50505050565b5f604083015f8301516137fe5f8601826129d2565b50602083015184820360208601526138168282612a6f565b9150508091505092915050565b5f606083015f8301518482035f86015261383d8282612a6f565b915050602083015161385260208601826129d2565b506040830151848203604086015261386a8282612a6f565b9150508091505092915050565b5f60e083015f83015161388c5f8601826129d2565b50602083015161389f60208601826129d2565b5060408301516138b260408601826137bc565b50606083015184820360808601526138ca82826137e9565b915050608083015184820360a08601526138e48282613823565b91505060a08301516138f960c08601826129d2565b508091505092915050565b5f6020820190508181035f83015261391c8184613877565b905092915050565b7f555550535570677261646561626c653a206d757374206e6f742062652063616c5f8201527f6c6564207468726f7567682064656c656761746563616c6c0000000000000000602082015250565b5f61397e6038836130b0565b915061398982613924565b604082019050919050565b5f6020820190508181035f8301526139ab81613972565b9050919050565b7f4e487b71000000000000000000000000000000000000000000000000000000005f52603260045260245ffd5b5f6040820190506139f25f83018561336b565b6139ff60208301846129c3565b9392505050565b7f436861696e20616c726561647920737570706f727465640000000000000000005f82015250565b5f613a3a6017836130b0565b9150613a4582613a06565b602082019050919050565b5f6020820190508181035f830152613a6781613a2e565b9050919050565b5f819050815f5260205f209050919050565b5f6020601f8301049050919050565b5f82821b905092915050565b5f60088302613aca7fffffffffffffffffffffffffffffffffffffffffffffffffffffffffffffffff82613a8f565b613ad48683613a8f565b95508019841693508086168417925050509392505050565b5f819050919050565b5f613b0f613b0a613b058461289c565b613aec565b61289c565b9050919050565b5f819050919050565b613b2883613af5565b613b3c613b3482613b16565b848454613a9b565b825550505050565b5f90565b613b50613b44565b613b5b818484613b1f565b505050565b5b81811015613b7e57613b735f82613b48565b600181019050613b61565b5050565b601f821115613bc357613b9481613a6e565b613b9d84613a80565b81016020851015613bac578190505b613bc0613bb885613a80565b830182613b60565b50505b505050565b5f82821c905092915050565b5f613be35f1984600802613bc8565b1980831691505092915050565b5f613bfb8383613bd4565b9150826002028217905092915050565b613c1482612a1d565b67ffffffffffffffff811115613c2d57613c2c612bd9565b5b613c378254613670565b613c42828285613b82565b5f60209050601f831160018114613c73575f8415613c61578287015190505b613c6b8582613bf0565b865550613cd2565b601f198416613c8186613a6e565b5f5b82811015613ca857848901518255600182019150602085019450602081019050613c83565b86831015613cc55784890151613cc1601f891682613bd4565b8355505b6001600288020188555050505b505050505050565b5f815f1c9050919050565b5f819050919050565b5f613d00613cfb83613cda565b613ce5565b9050919050565b5f8154613d1381613670565b613d1d8186612a27565b9450600182165f8114613d375760018114613d4d57613d7f565b60ff198316865281151560200286019350613d7f565b613d5685613a6e565b5f5b83811015613d7757815481890152600182019150602081019050613d58565b808801955050505b50505092915050565b5f604083015f808401549050613d9d81613cee565b613da95f8701826129d2565b50600184018583036020870152613dc08382613d07565b925050819250505092915050565b5f6020820190508181035f830152613de68184613d88565b905092915050565b7f496e697469616c697a61626c653a20636f6e747261637420697320616c7265615f8201527f647920696e697469616c697a6564000000000000000000000000000000000000602082015250565b5f613e48602e836130b0565b9150613e5382613dee565b604082019050919050565b5f6020820190508181035f830152613e7581613e3c565b9050919050565b5f819050919050565b5f60ff82169050919050565b5f613eab613ea6613ea184613e7c565b613aec565b613e85565b9050919050565b613ebb81613e91565b82525050565b5f602082019050613ed45f830184613eb2565b92915050565b7f556e6b6e6f776e20636861696e496400000000000000000000000000000000005f82015250565b5f613f0e600f836130b0565b9150613f1982613eda565b602082019050919050565b5f6020820190508181035f830152613f3b81613f02565b9050919050565b7f5a65726f204164647265737300000000000000000000000000000000000000005f82015250565b5f613f76600c836130b0565b9150613f8182613f42565b602082019050919050565b5f6020820190508181035f830152613fa381613f6a565b9050919050565b7f546f6b656e205365727669636520616c726561647920616464656400000000005f82015250565b5f613fde601b836130b0565b9150613fe982613faa565b602082019050919050565b5f6020820190508181035f83015261400b81613fd2565b9050919050565b7f556e6b6e6f776e205061636b65740000000000000000000000000000000000005f82015250565b5f614046600e836130b0565b915061405182614012565b602082019050919050565b5f6020820190508181035f8301526140738161403a565b9050919050565b5f81519050614088816133d1565b92915050565b5f602082840312156140a3576140a2612894565b5b5f6140b08482850161407a565b91505092915050565b7f45524331393637557067726164653a206e657720696d706c656d656e746174695f8201527f6f6e206973206e6f742055555053000000000000000000000000000000000000602082015250565b5f614113602e836130b0565b915061411e826140b9565b604082019050919050565b5f6020820190508181035f83015261414081614107565b9050919050565b7f45524331393637557067726164653a20756e737570706f727465642070726f785f8201527f6961626c65555549440000000000000000000000000000000000000000000000602082015250565b5f6141a16029836130b0565b91506141ac82614147565b604082019050919050565b5f6020820190508181035f8301526141ce81614195565b9050919050565b7f556e6b6e6f776e2064657374696e6174696f6e20636861696e000000000000005f82015250565b5f6142096019836130b0565b9150614214826141d5565b602082019050919050565b5f6020820190508181035f830152614236816141fd565b9050919050565b5f6142478261289c565b91506142528361289c565b925082820190508082111561426a57614269613505565b5b92915050565b7f556e6b6e6f776e204174746573746f72000000000000000000000000000000005f82015250565b5f6142a46010836130b0565b91506142af82614270565b602082019050919050565b5f6020820190508181035f8301526142d181614298565b9050919050565b5f819050919050565b6142f26142ed8261289c565b6142d8565b82525050565b5f81905092915050565b5f61430c82612a1d565b61431681856142f8565b9350614326818560208601612a37565b80840191505092915050565b5f8160601b9050919050565b5f61434882614332565b9050919050565b5f6143598261433e565b9050919050565b61437161436c8261295d565b61434f565b82525050565b5f614382828d6142e1565b602082019150614392828c6142e1565b6020820191506143a2828b6142e1565b6020820191506143b2828a614302565b91506143be82896142e1565b6020820191506143ce8288614360565b6014820191506143de8287614360565b6014820191506143ee82866142e1565b6020820191506143fe8285614360565b60148201915061440e82846142e1565b6020820191508190509b9a5050505050505050505050565b7f455243313936373a206e657720696d706c656d656e746174696f6e206973206e5f8201527f6f74206120636f6e747261637400000000000000000000000000000000000000602082015250565b5f614480602d836130b0565b915061448b82614426565b604082019050919050565b5f6020820190508181035f8301526144ad81614474565b9050919050565b7f5061636b657420616c726561647920636f6e73756d65640000000000000000005f82015250565b5f6144e86017836130b0565b91506144f3826144b4565b602082019050919050565b5f6020820190508181035f830152614515816144dc565b9050919050565b5f60408201905061452f5f830185612916565b61453c602083018461336b565b9392505050565b606082015f8201516145575f8501826129e1565b50602082015161456a60208501826129d2565b50604082015161457d60408501826129e1565b50505050565b5f61012083015f8301516145995f8601826129d2565b5060208301516145ac60208601826129d2565b50604083015184820360408601526145c482826137e9565b91505060608301516145d960608601826137bc565b5060808301516145ec60a0860182614543565b5060a08301516146006101008601826129d2565b508091505092915050565b5f6020820190508181035f8301526146238184614583565b905092915050565b7f416464726573733a20696e76616c69642064656c65676174652063616c6c00005f82015250565b5f61465f601e836130b0565b915061466a8261462b565b602082019050919050565b5f6020820190508181035f83015261468c81614653565b9050919050565b5f81519050919050565b5f81905092915050565b5f6146b182614693565b6146bb818561469d565b93506146cb818560208601612a37565b80840191505092915050565b5f6146e282846146a7565b915081905092915050565b5f6020820190508181035f83015261470581846130c0565b90509291505056fe416464726573733a206c6f772d6c6576656c2064656c65676174652063616c6c206661696c6564a2646970667358221220cd39e53eff5619fcc4daaa4406d2c5e803b6ca75eb53fc58af9bc4fd74919dc864736f6c63430008160033",
			"opcodes": "PUSH1 0xA0 PUSH1 0x40 MSTORE ADDRESS PUSH20 0xFFFFFFFFFFFFFFFFFFFFFFFFFFFFFFFFFFFFFFFF AND PUSH1 0x80 SWAP1 PUSH20 0xFFFFFFFFFFFFFFFFFFFFFFFFFFFFFFFFFFFFFFFF AND DUP2 MSTORE POP CALLVALUE DUP1 ISZERO PUSH2 0x42 JUMPI PUSH0 DUP1 REVERT JUMPDEST POP PUSH1 0x80 MLOAD PUSH2 0x476A PUSH2 0x77 PUSH0 CODECOPY PUSH0 DUP2 DUP2 PUSH2 0xC12 ADD MSTORE DUP2 DUP2 PUSH2 0xCA0 ADD MSTORE DUP2 DUP2 PUSH2 0xE76 ADD MSTORE DUP2 DUP2 PUSH2 0xF04 ADD MSTORE PUSH2 0xFD2 ADD MSTORE PUSH2 0x476A PUSH0 RETURN INVALID PUSH1 0x80 PUSH1 0x40 MSTORE PUSH1 0x4 CALLDATASIZE LT PUSH2 0x1D7 JUMPI PUSH0 CALLDATALOAD PUSH1 0xE0 SHR DUP1 PUSH4 0x5BEC0D37 GT PUSH2 0x101 JUMPI DUP1 PUSH4 0xC4D66DE8 GT PUSH2 0x94 JUMPI DUP1 PUSH4 0xEA6469F8 GT PUSH2 0x63 JUMPI DUP1 PUSH4 0xEA6469F8 EQ PUSH2 0x705 JUMPI DUP1 PUSH4 0xF2FDE38B EQ PUSH2 0x72D JUMPI DUP1 PUSH4 0xF78DD84D EQ PUSH2 0x755 JUMPI DUP1 PUSH4 0xF96F8B63 EQ PUSH2 0x77D JUMPI PUSH2 0x1D7 JUMP JUMPDEST DUP1 PUSH4 0xC4D66DE8 EQ PUSH2 0x651 JUMPI DUP1 PUSH4 0xC86A64F7 EQ PUSH2 0x679 JUMPI DUP1 PUSH4 0xCBF50BB6 EQ PUSH2 0x6B5 JUMPI DUP1 PUSH4 0xE16AA3C0 EQ PUSH2 0x6DD JUMPI PUSH2 0x1D7 JUMP JUMPDEST DUP1 PUSH4 0xAADC3B72 GT PUSH2 0xD0 JUMPI DUP1 PUSH4 0xAADC3B72 EQ PUSH2 0x575 JUMPI DUP1 PUSH4 0xAF83D4D8 EQ PUSH2 0x5B1 JUMPI DUP1 PUSH4 0xB8CC3EAA EQ PUSH2 0x5D9 JUMPI DUP1 PUSH4 0xC0ABE2FE EQ PUSH2 0x615 JUMPI PUSH2 0x1D7 JUMP JUMPDEST DUP1 PUSH4 0x5BEC0D37 EQ PUSH2 0x4BF JUMPI DUP1 PUSH4 0x6B3DA26F EQ PUSH2 0x4E7 JUMPI DUP1 PUSH4 0x8DA5CB5B EQ PUSH2 0x523 JUMPI DUP1 PUSH4 0x91E8D207 EQ PUSH2 0x54D JUMPI PUSH2 0x1D7 JUMP JUMPDEST DUP1 PUSH4 0x4BC2EA7D GT PUSH2 0x179 JUMPI DUP1 PUSH4 0x5153D467 GT PUSH2 0x148 JUMPI DUP1 PUSH4 0x5153D467 EQ PUSH2 0x3E0 JUMPI DUP1 PUSH4 0x52D1902D EQ PUSH2 0x41C JUMPI DUP1 PUSH4 0x550325B5 EQ PUSH2 0x446 JUMPI DUP1 PUSH4 0x555E9074 EQ PUSH2 0x483 JUMPI PUSH2 0x1D7 JUMP JUMPDEST DUP1 PUSH4 0x4BC2EA7D EQ PUSH2 0x336 JUMPI DUP1 PUSH4 0x4D7FC58E EQ PUSH2 0x35E JUMPI DUP1 PUSH4 0x4E70B1DC EQ PUSH2 0x39A JUMPI DUP1 PUSH4 0x4F1EF286 EQ PUSH2 0x3C4 JUMPI PUSH2 0x1D7 JUMP JUMPDEST DUP1 PUSH4 0x188B5339 GT PUSH2 0x1B5 JUMPI DUP1 PUSH4 0x188B5339 EQ PUSH2 0x255 JUMPI DUP1 PUSH4 0x2E2F4E24 EQ PUSH2 0x296 JUMPI DUP1 PUSH4 0x3659CFE6 EQ PUSH2 0x2D2 JUMPI DUP1 PUSH4 0x419EB411 EQ PUSH2 0x2FA JUMPI PUSH2 0x1D7 JUMP JUMPDEST DUP1 PUSH4 0x1BF652C EQ PUSH2 0x1DB JUMPI DUP1 PUSH4 0x3D1D693 EQ PUSH2 0x1F1 JUMPI DUP1 PUSH4 0x5CD5A36 EQ PUSH2 0x22D JUMPI JUMPDEST PUSH0 DUP1 REVERT JUMPDEST CALLVALUE DUP1 ISZERO PUSH2 0x1E6 JUMPI PUSH0 DUP1 REVERT JUMPDEST POP PUSH2 0x1EF PUSH2 0x7A5 JUMP JUMPDEST STOP JUMPDEST CALLVALUE DUP1 ISZERO PUSH2 0x1FC JUMPI PUSH0 DUP1 REVERT JUMPDEST POP PUSH2 0x217 PUSH1 0x4 DUP1 CALLDATASIZE SUB DUP2 ADD SWAP1 PUSH2 0x212 SWAP2 SWAP1 PUSH2 0x28CF JUMP JUMPDEST PUSH2 0x7C0 JUMP JUMPDEST PUSH1 0x40 MLOAD PUSH2 0x224 SWAP2 SWAP1 PUSH2 0x2925 JUMP JUMPDEST PUSH1 0x40 MLOAD DUP1 SWAP2 SUB SWAP1 RETURN JUMPDEST CALLVALUE DUP1 ISZERO PUSH2 0x238 JUMPI PUSH0 DUP1 REVERT JUMPDEST POP PUSH2 0x253 PUSH1 0x4 DUP1 CALLDATASIZE SUB DUP2 ADD SWAP1 PUSH2 0x24E SWAP2 SWAP1 PUSH2 0x2998 JUMP JUMPDEST PUSH2 0x7E0 JUMP JUMPDEST STOP JUMPDEST CALLVALUE DUP1 ISZERO PUSH2 0x260 JUMPI PUSH0 DUP1 REVERT JUMPDEST POP PUSH2 0x27B PUSH1 0x4 DUP1 CALLDATASIZE SUB DUP2 ADD SWAP1 PUSH2 0x276 SWAP2 SWAP1 PUSH2 0x28CF JUMP JUMPDEST PUSH2 0x93D JUMP JUMPDEST PUSH1 0x40 MLOAD PUSH2 0x28D SWAP7 SWAP6 SWAP5 SWAP4 SWAP3 SWAP2 SWAP1 PUSH2 0x2B35 JUMP JUMPDEST PUSH1 0x40 MLOAD DUP1 SWAP2 SUB SWAP1 RETURN JUMPDEST CALLVALUE DUP1 ISZERO PUSH2 0x2A1 JUMPI PUSH0 DUP1 REVERT JUMPDEST POP PUSH2 0x2BC PUSH1 0x4 DUP1 CALLDATASIZE SUB DUP2 ADD SWAP1 PUSH2 0x2B7 SWAP2 SWAP1 PUSH2 0x2998 JUMP JUMPDEST PUSH2 0xBBE JUMP JUMPDEST PUSH1 0x40 MLOAD PUSH2 0x2C9 SWAP2 SWAP1 PUSH2 0x2BBC JUMP JUMPDEST PUSH1 0x40 MLOAD DUP1 SWAP2 SUB SWAP1 RETURN JUMPDEST CALLVALUE DUP1 ISZERO PUSH2 0x2DD JUMPI PUSH0 DUP1 REVERT JUMPDEST POP PUSH2 0x2F8 PUSH1 0x4 DUP1 CALLDATASIZE SUB DUP2 ADD SWAP1 PUSH2 0x2F3 SWAP2 SWAP1 PUSH2 0x2998 JUMP JUMPDEST PUSH2 0xC10 JUMP JUMPDEST STOP JUMPDEST CALLVALUE DUP1 ISZERO PUSH2 0x305 JUMPI PUSH0 DUP1 REVERT JUMPDEST POP PUSH2 0x320 PUSH1 0x4 DUP1 CALLDATASIZE SUB DUP2 ADD SWAP1 PUSH2 0x31B SWAP2 SWAP1 PUSH2 0x28CF JUMP JUMPDEST PUSH2 0xD96 JUMP JUMPDEST PUSH1 0x40 MLOAD PUSH2 0x32D SWAP2 SWAP1 PUSH2 0x2925 JUMP JUMPDEST PUSH1 0x40 MLOAD DUP1 SWAP2 SUB SWAP1 RETURN JUMPDEST CALLVALUE DUP1 ISZERO PUSH2 0x341 JUMPI PUSH0 DUP1 REVERT JUMPDEST POP PUSH2 0x35C PUSH1 0x4 DUP1 CALLDATASIZE SUB DUP2 ADD SWAP1 PUSH2 0x357 SWAP2 SWAP1 PUSH2 0x2F2D JUMP JUMPDEST PUSH2 0xDC0 JUMP JUMPDEST STOP JUMPDEST CALLVALUE DUP1 ISZERO PUSH2 0x369 JUMPI PUSH0 DUP1 REVERT JUMPDEST POP PUSH2 0x384 PUSH1 0x4 DUP1 CALLDATASIZE SUB DUP2 ADD SWAP1 PUSH2 0x37F SWAP2 SWAP1 PUSH2 0x28CF JUMP JUMPDEST PUSH2 0xE3F JUMP JUMPDEST PUSH1 0x40 MLOAD PUSH2 0x391 SWAP2 SWAP1 PUSH2 0x2BBC JUMP JUMPDEST PUSH1 0x40 MLOAD DUP1 SWAP2 SUB SWAP1 RETURN JUMPDEST CALLVALUE DUP1 ISZERO PUSH2 0x3A5 JUMPI PUSH0 DUP1 REVERT JUMPDEST POP PUSH2 0x3AE PUSH2 0xE6E JUMP JUMPDEST PUSH1 0x40 MLOAD PUSH2 0x3BB SWAP2 SWAP1 PUSH2 0x2F74 JUMP JUMPDEST PUSH1 0x40 MLOAD DUP1 SWAP2 SUB SWAP1 RETURN JUMPDEST PUSH2 0x3DE PUSH1 0x4 DUP1 CALLDATASIZE SUB DUP2 ADD SWAP1 PUSH2 0x3D9 SWAP2 SWAP1 PUSH2 0x302B JUMP JUMPDEST PUSH2 0xE74 JUMP JUMPDEST STOP JUMPDEST CALLVALUE DUP1 ISZERO PUSH2 0x3EB JUMPI PUSH0 DUP1 REVERT JUMPDEST POP PUSH2 0x406 PUSH1 0x4 DUP1 CALLDATASIZE SUB DUP2 ADD SWAP1 PUSH2 0x401 SWAP2 SWAP1 PUSH2 0x3085 JUMP JUMPDEST PUSH2 0xFB0 JUMP JUMPDEST PUSH1 0x40 MLOAD PUSH2 0x413 SWAP2 SWAP1 PUSH2 0x2BBC JUMP JUMPDEST PUSH1 0x40 MLOAD DUP1 SWAP2 SUB SWAP1 RETURN JUMPDEST CALLVALUE DUP1 ISZERO PUSH2 0x427 JUMPI PUSH0 DUP1 REVERT JUMPDEST POP PUSH2 0x430 PUSH2 0xFCF JUMP JUMPDEST PUSH1 0x40 MLOAD PUSH2 0x43D SWAP2 SWAP1 PUSH2 0x2925 JUMP JUMPDEST PUSH1 0x40 MLOAD DUP1 SWAP2 SUB SWAP1 RETURN JUMPDEST CALLVALUE DUP1 ISZERO PUSH2 0x451 JUMPI PUSH0 DUP1 REVERT JUMPDEST POP PUSH2 0x46C PUSH1 0x4 DUP1 CALLDATASIZE SUB DUP2 ADD SWAP1 PUSH2 0x467 SWAP2 SWAP1 PUSH2 0x3085 JUMP JUMPDEST PUSH2 0x1086 JUMP JUMPDEST PUSH1 0x40 MLOAD PUSH2 0x47A SWAP3 SWAP2 SWAP1 PUSH2 0x30F8 JUMP JUMPDEST PUSH1 0x40 MLOAD DUP1 SWAP2 SUB SWAP1 RETURN JUMPDEST CALLVALUE DUP1 ISZERO PUSH2 0x48E JUMPI PUSH0 DUP1 REVERT JUMPDEST POP PUSH2 0x4A9 PUSH1 0x4 DUP1 CALLDATASIZE SUB DUP2 ADD SWAP1 PUSH2 0x4A4 SWAP2 SWAP1 PUSH2 0x28CF JUMP JUMPDEST PUSH2 0x112C JUMP JUMPDEST PUSH1 0x40 MLOAD PUSH2 0x4B6 SWAP2 SWAP1 PUSH2 0x2925 JUMP JUMPDEST PUSH1 0x40 MLOAD DUP1 SWAP2 SUB SWAP1 RETURN JUMPDEST CALLVALUE DUP1 ISZERO PUSH2 0x4CA JUMPI PUSH0 DUP1 REVERT JUMPDEST POP PUSH2 0x4E5 PUSH1 0x4 DUP1 CALLDATASIZE SUB DUP2 ADD SWAP1 PUSH2 0x4E0 SWAP2 SWAP1 PUSH2 0x3324 JUMP JUMPDEST PUSH2 0x114C JUMP JUMPDEST STOP JUMPDEST CALLVALUE DUP1 ISZERO PUSH2 0x4F2 JUMPI PUSH0 DUP1 REVERT JUMPDEST POP PUSH2 0x50D PUSH1 0x4 DUP1 CALLDATASIZE SUB DUP2 ADD SWAP1 PUSH2 0x508 SWAP2 SWAP1 PUSH2 0x2998 JUMP JUMPDEST PUSH2 0x1193 JUMP JUMPDEST PUSH1 0x40 MLOAD PUSH2 0x51A SWAP2 SWAP1 PUSH2 0x2BBC JUMP JUMPDEST PUSH1 0x40 MLOAD DUP1 SWAP2 SUB SWAP1 RETURN JUMPDEST CALLVALUE DUP1 ISZERO PUSH2 0x52E JUMPI PUSH0 DUP1 REVERT JUMPDEST POP PUSH2 0x537 PUSH2 0x11E5 JUMP JUMPDEST PUSH1 0x40 MLOAD PUSH2 0x544 SWAP2 SWAP1 PUSH2 0x337A JUMP JUMPDEST PUSH1 0x40 MLOAD DUP1 SWAP2 SUB SWAP1 RETURN JUMPDEST CALLVALUE DUP1 ISZERO PUSH2 0x558 JUMPI PUSH0 DUP1 REVERT JUMPDEST POP PUSH2 0x573 PUSH1 0x4 DUP1 CALLDATASIZE SUB DUP2 ADD SWAP1 PUSH2 0x56E SWAP2 SWAP1 PUSH2 0x3393 JUMP JUMPDEST PUSH2 0x120A JUMP JUMPDEST STOP JUMPDEST CALLVALUE DUP1 ISZERO PUSH2 0x580 JUMPI PUSH0 DUP1 REVERT JUMPDEST POP PUSH2 0x59B PUSH1 0x4 DUP1 CALLDATASIZE SUB DUP2 ADD SWAP1 PUSH2 0x596 SWAP2 SWAP1 PUSH2 0x33FB JUMP JUMPDEST PUSH2 0x1338 JUMP JUMPDEST PUSH1 0x40 MLOAD PUSH2 0x5A8 SWAP2 SWAP1 PUSH2 0x2BBC JUMP JUMPDEST PUSH1 0x40 MLOAD DUP1 SWAP2 SUB SWAP1 RETURN JUMPDEST CALLVALUE DUP1 ISZERO PUSH2 0x5BC JUMPI PUSH0 DUP1 REVERT JUMPDEST POP PUSH2 0x5D7 PUSH1 0x4 DUP1 CALLDATASIZE SUB DUP2 ADD SWAP1 PUSH2 0x5D2 SWAP2 SWAP1 PUSH2 0x3439 JUMP JUMPDEST PUSH2 0x139A JUMP JUMPDEST STOP JUMPDEST CALLVALUE DUP1 ISZERO PUSH2 0x5E4 JUMPI PUSH0 DUP1 REVERT JUMPDEST POP PUSH2 0x5FF PUSH1 0x4 DUP1 CALLDATASIZE SUB DUP2 ADD SWAP1 PUSH2 0x5FA SWAP2 SWAP1 PUSH2 0x28CF JUMP JUMPDEST PUSH2 0x1504 JUMP JUMPDEST PUSH1 0x40 MLOAD PUSH2 0x60C SWAP2 SWAP1 PUSH2 0x2BBC JUMP JUMPDEST PUSH1 0x40 MLOAD DUP1 SWAP2 SUB SWAP1 RETURN JUMPDEST CALLVALUE DUP1 ISZERO PUSH2 0x620 JUMPI PUSH0 DUP1 REVERT JUMPDEST POP PUSH2 0x63B PUSH1 0x4 DUP1 CALLDATASIZE SUB DUP2 ADD SWAP1 PUSH2 0x636 SWAP2 SWAP1 PUSH2 0x3493 JUMP JUMPDEST PUSH2 0x150B JUMP JUMPDEST PUSH1 0x40 MLOAD PUSH2 0x648 SWAP2 SWAP1 PUSH2 0x2BBC JUMP JUMPDEST PUSH1 0x40 MLOAD DUP1 SWAP2 SUB SWAP1 RETURN JUMPDEST CALLVALUE DUP1 ISZERO PUSH2 0x65C JUMPI PUSH0 DUP1 REVERT JUMPDEST POP PUSH2 0x677 PUSH1 0x4 DUP1 CALLDATASIZE SUB DUP2 ADD SWAP1 PUSH2 0x672 SWAP2 SWAP1 PUSH2 0x2998 JUMP JUMPDEST PUSH2 0x152E JUMP JUMPDEST STOP JUMPDEST CALLVALUE DUP1 ISZERO PUSH2 0x684 JUMPI PUSH0 DUP1 REVERT JUMPDEST POP PUSH2 0x69F PUSH1 0x4 DUP1 CALLDATASIZE SUB DUP2 ADD SWAP1 PUSH2 0x69A SWAP2 SWAP1 PUSH2 0x3085 JUMP JUMPDEST PUSH2 0x16A7 JUMP JUMPDEST PUSH1 0x40 MLOAD PUSH2 0x6AC SWAP2 SWAP1 PUSH2 0x2F74 JUMP JUMPDEST PUSH1 0x40 MLOAD DUP1 SWAP2 SUB SWAP1 RETURN JUMPDEST CALLVALUE DUP1 ISZERO PUSH2 0x6C0 JUMPI PUSH0 DUP1 REVERT JUMPDEST POP PUSH2 0x6DB PUSH1 0x4 DUP1 CALLDATASIZE SUB DUP2 ADD SWAP1 PUSH2 0x6D6 SWAP2 SWAP1 PUSH2 0x3085 JUMP JUMPDEST PUSH2 0x16BC JUMP JUMPDEST STOP JUMPDEST CALLVALUE DUP1 ISZERO PUSH2 0x6E8 JUMPI PUSH0 DUP1 REVERT JUMPDEST POP PUSH2 0x703 PUSH1 0x4 DUP1 CALLDATASIZE SUB DUP2 ADD SWAP1 PUSH2 0x6FE SWAP2 SWAP1 PUSH2 0x34BE JUMP JUMPDEST PUSH2 0x17F6 JUMP JUMPDEST STOP JUMPDEST CALLVALUE DUP1 ISZERO PUSH2 0x710 JUMPI PUSH0 DUP1 REVERT JUMPDEST POP PUSH2 0x72B PUSH1 0x4 DUP1 CALLDATASIZE SUB DUP2 ADD SWAP1 PUSH2 0x726 SWAP2 SWAP1 PUSH2 0x3393 JUMP JUMPDEST PUSH2 0x180A JUMP JUMPDEST STOP JUMPDEST CALLVALUE DUP1 ISZERO PUSH2 0x738 JUMPI PUSH0 DUP1 REVERT JUMPDEST POP PUSH2 0x753 PUSH1 0x4 DUP1 CALLDATASIZE SUB DUP2 ADD SWAP1 PUSH2 0x74E SWAP2 SWAP1 PUSH2 0x2998 JUMP JUMPDEST PUSH2 0x19A0 JUMP JUMPDEST STOP JUMPDEST CALLVALUE DUP1 ISZERO PUSH2 0x760 JUMPI PUSH0 DUP1 REVERT JUMPDEST POP PUSH2 0x77B PUSH1 0x4 DUP1 CALLDATASIZE SUB DUP2 ADD SWAP1 PUSH2 0x776 SWAP2 SWAP1 PUSH2 0x2998 JUMP JUMPDEST PUSH2 0x1A72 JUMP JUMPDEST STOP JUMPDEST CALLVALUE DUP1 ISZERO PUSH2 0x788 JUMPI PUSH0 DUP1 REVERT JUMPDEST POP PUSH2 0x7A3 PUSH1 0x4 DUP1 CALLDATASIZE SUB DUP2 ADD SWAP1 PUSH2 0x79E SWAP2 SWAP1 PUSH2 0x34BE JUMP JUMPDEST PUSH2 0x1C47 JUMP JUMPDEST STOP JUMPDEST PUSH1 0x2 PUSH1 0xC PUSH0 DUP3 DUP3 SLOAD PUSH2 0x7B7 SWAP2 SWAP1 PUSH2 0x3532 JUMP JUMPDEST SWAP3 POP POP DUP2 SWAP1 SSTORE POP JUMP JUMPDEST PUSH1 0x9 PUSH1 0x20 MSTORE DUP2 PUSH0 MSTORE PUSH1 0x40 PUSH0 KECCAK256 PUSH1 0x20 MSTORE DUP1 PUSH0 MSTORE PUSH1 0x40 PUSH0 KECCAK256 PUSH0 SWAP2 POP SWAP2 POP POP SLOAD DUP2 JUMP JUMPDEST PUSH1 0x3 PUSH0 SWAP1 SLOAD SWAP1 PUSH2 0x100 EXP SWAP1 DIV PUSH20 0xFFFFFFFFFFFFFFFFFFFFFFFFFFFFFFFFFFFFFFFF AND PUSH20 0xFFFFFFFFFFFFFFFFFFFFFFFFFFFFFFFFFFFFFFFF AND CALLER PUSH20 0xFFFFFFFFFFFFFFFFFFFFFFFFFFFFFFFFFFFFFFFF AND EQ PUSH2 0x86F JUMPI PUSH1 0x40 MLOAD PUSH32 0x8C379A000000000000000000000000000000000000000000000000000000000 DUP2 MSTORE PUSH1 0x4 ADD PUSH2 0x866 SWAP1 PUSH2 0x35BD JUMP JUMPDEST PUSH1 0x40 MLOAD DUP1 SWAP2 SUB SWAP1 REVERT JUMPDEST PUSH2 0x878 DUP2 PUSH2 0x1193 JUMP JUMPDEST PUSH2 0x8B7 JUMPI PUSH1 0x40 MLOAD PUSH32 0x8C379A000000000000000000000000000000000000000000000000000000000 DUP2 MSTORE PUSH1 0x4 ADD PUSH2 0x8AE SWAP1 PUSH2 0x3625 JUMP JUMPDEST PUSH1 0x40 MLOAD DUP1 SWAP2 SUB SWAP1 REVERT JUMPDEST PUSH1 0x6 PUSH0 DUP3 PUSH20 0xFFFFFFFFFFFFFFFFFFFFFFFFFFFFFFFFFFFFFFFF AND PUSH20 0xFFFFFFFFFFFFFFFFFFFFFFFFFFFFFFFFFFFFFFFF AND DUP2 MSTORE PUSH1 0x20 ADD SWAP1 DUP2 MSTORE PUSH1 0x20 ADD PUSH0 KECCAK256 PUSH0 PUSH2 0x100 EXP DUP2 SLOAD SWAP1 PUSH1 0xFF MUL NOT AND SWAP1 SSTORE PUSH32 0x18952ED4229327E2D83D53A06B823C2DA3B19CB320C82017B8DA5F60B6DFE8F0 DUP2 PUSH1 0x40 MLOAD PUSH2 0x932 SWAP2 SWAP1 PUSH2 0x337A JUMP JUMPDEST PUSH1 0x40 MLOAD DUP1 SWAP2 SUB SWAP1 LOG1 POP JUMP JUMPDEST PUSH1 0xB PUSH1 0x20 MSTORE DUP2 PUSH0 MSTORE PUSH1 0x40 PUSH0 KECCAK256 PUSH1 0x20 MSTORE DUP1 PUSH0 MSTORE PUSH1 0x40 PUSH0 KECCAK256 PUSH0 SWAP2 POP SWAP2 POP POP DUP1 PUSH0 ADD SLOAD SWAP1 DUP1 PUSH1 0x1 ADD SLOAD SWAP1 DUP1 PUSH1 0x2 ADD PUSH1 0x40 MLOAD DUP1 PUSH1 0x40 ADD PUSH1 0x40 MSTORE SWAP1 DUP2 PUSH0 DUP3 ADD SLOAD DUP2 MSTORE PUSH1 0x20 ADD PUSH1 0x1 DUP3 ADD PUSH0 SWAP1 SLOAD SWAP1 PUSH2 0x100 EXP SWAP1 DIV PUSH20 0xFFFFFFFFFFFFFFFFFFFFFFFFFFFFFFFFFFFFFFFF AND PUSH20 0xFFFFFFFFFFFFFFFFFFFFFFFFFFFFFFFFFFFFFFFF AND PUSH20 0xFFFFFFFFFFFFFFFFFFFFFFFFFFFFFFFFFFFFFFFF AND DUP2 MSTORE POP POP SWAP1 DUP1 PUSH1 0x4 ADD PUSH1 0x40 MLOAD DUP1 PUSH1 0x40 ADD PUSH1 0x40 MSTORE SWAP1 DUP2 PUSH0 DUP3 ADD SLOAD DUP2 MSTORE PUSH1 0x20 ADD PUSH1 0x1 DUP3 ADD DUP1 SLOAD PUSH2 0x9FA SWAP1 PUSH2 0x3670 JUMP JUMPDEST DUP1 PUSH1 0x1F ADD PUSH1 0x20 DUP1 SWAP2 DIV MUL PUSH1 0x20 ADD PUSH1 0x40 MLOAD SWAP1 DUP2 ADD PUSH1 0x40 MSTORE DUP1 SWAP3 SWAP2 SWAP1 DUP2 DUP2 MSTORE PUSH1 0x20 ADD DUP3 DUP1 SLOAD PUSH2 0xA26 SWAP1 PUSH2 0x3670 JUMP JUMPDEST DUP1 ISZERO PUSH2 0xA71 JUMPI DUP1 PUSH1 0x1F LT PUSH2 0xA48 JUMPI PUSH2 0x100 DUP1 DUP4 SLOAD DIV MUL DUP4 MSTORE SWAP2 PUSH1 0x20 ADD SWAP2 PUSH2 0xA71 JUMP JUMPDEST DUP3 ADD SWAP2 SWAP1 PUSH0 MSTORE PUSH1 0x20 PUSH0 KECCAK256 SWAP1 JUMPDEST DUP2 SLOAD DUP2 MSTORE SWAP1 PUSH1 0x1 ADD SWAP1 PUSH1 0x20 ADD DUP1 DUP4 GT PUSH2 0xA54 JUMPI DUP3 SWAP1 SUB PUSH1 0x1F AND DUP3 ADD SWAP2 JUMPDEST POP POP POP POP POP DUP2 MSTORE POP POP SWAP1 DUP1 PUSH1 0x6 ADD PUSH1 0x40 MLOAD DUP1 PUSH1 0x60 ADD PUSH1 0x40 MSTORE SWAP1 DUP2 PUSH0 DUP3 ADD DUP1 SLOAD PUSH2 0xA99 SWAP1 PUSH2 0x3670 JUMP JUMPDEST DUP1 PUSH1 0x1F ADD PUSH1 0x20 DUP1 SWAP2 DIV MUL PUSH1 0x20 ADD PUSH1 0x40 MLOAD SWAP1 DUP2 ADD PUSH1 0x40 MSTORE DUP1 SWAP3 SWAP2 SWAP1 DUP2 DUP2 MSTORE PUSH1 0x20 ADD DUP3 DUP1 SLOAD PUSH2 0xAC5 SWAP1 PUSH2 0x3670 JUMP JUMPDEST DUP1 ISZERO PUSH2 0xB10 JUMPI DUP1 PUSH1 0x1F LT PUSH2 0xAE7 JUMPI PUSH2 0x100 DUP1 DUP4 SLOAD DIV MUL DUP4 MSTORE SWAP2 PUSH1 0x20 ADD SWAP2 PUSH2 0xB10 JUMP JUMPDEST DUP3 ADD SWAP2 SWAP1 PUSH0 MSTORE PUSH1 0x20 PUSH0 KECCAK256 SWAP1 JUMPDEST DUP2 SLOAD DUP2 MSTORE SWAP1 PUSH1 0x1 ADD SWAP1 PUSH1 0x20 ADD DUP1 DUP4 GT PUSH2 0xAF3 JUMPI DUP3 SWAP1 SUB PUSH1 0x1F AND DUP3 ADD SWAP2 JUMPDEST POP POP POP POP POP DUP2 MSTORE PUSH1 0x20 ADD PUSH1 0x1 DUP3 ADD SLOAD DUP2 MSTORE PUSH1 0x20 ADD PUSH1 0x2 DUP3 ADD DUP1 SLOAD PUSH2 0xB33 SWAP1 PUSH2 0x3670 JUMP JUMPDEST DUP1 PUSH1 0x1F ADD PUSH1 0x20 DUP1 SWAP2 DIV MUL PUSH1 0x20 ADD PUSH1 0x40 MLOAD SWAP1 DUP2 ADD PUSH1 0x40 MSTORE DUP1 SWAP3 SWAP2 SWAP1 DUP2 DUP2 MSTORE PUSH1 0x20 ADD DUP3 DUP1 SLOAD PUSH2 0xB5F SWAP1 PUSH2 0x3670 JUMP JUMPDEST DUP1 ISZERO PUSH2 0xBAA JUMPI DUP1 PUSH1 0x1F LT PUSH2 0xB81 JUMPI PUSH2 0x100 DUP1 DUP4 SLOAD DIV MUL DUP4 MSTORE SWAP2 PUSH1 0x20 ADD SWAP2 PUSH2 0xBAA JUMP JUMPDEST DUP3 ADD SWAP2 SWAP1 PUSH0 MSTORE PUSH1 0x20 PUSH0 KECCAK256 SWAP1 JUMPDEST DUP2 SLOAD DUP2 MSTORE SWAP1 PUSH1 0x1 ADD SWAP1 PUSH1 0x20 ADD DUP1 DUP4 GT PUSH2 0xB8D JUMPI DUP3 SWAP1 SUB PUSH1 0x1F AND DUP3 ADD SWAP2 JUMPDEST POP POP POP POP POP DUP2 MSTORE POP POP SWAP1 DUP1 PUSH1 0x9 ADD SLOAD SWAP1 POP DUP7 JUMP JUMPDEST PUSH0 PUSH1 0x4 PUSH0 DUP4 PUSH20 0xFFFFFFFFFFFFFFFFFFFFFFFFFFFFFFFFFFFFFFFF AND PUSH20 0xFFFFFFFFFFFFFFFFFFFFFFFFFFFFFFFFFFFFFFFF AND DUP2 MSTORE PUSH1 0x20 ADD SWAP1 DUP2 MSTORE PUSH1 0x20 ADD PUSH0 KECCAK256 PUSH0 SWAP1 SLOAD SWAP1 PUSH2 0x100 EXP SWAP1 DIV PUSH1 0xFF AND SWAP1 POP SWAP2 SWAP1 POP JUMP JUMPDEST PUSH32 0x0 PUSH20 0xFFFFFFFFFFFFFFFFFFFFFFFFFFFFFFFFFFFFFFFF AND ADDRESS PUSH20 0xFFFFFFFFFFFFFFFFFFFFFFFFFFFFFFFFFFFFFFFF AND SUB PUSH2 0xC9E JUMPI PUSH1 0x40 MLOAD PUSH32 0x8C379A000000000000000000000000000000000000000000000000000000000 DUP2 MSTORE PUSH1 0x4 ADD PUSH2 0xC95 SWAP1 PUSH2 0x3710 JUMP JUMPDEST PUSH1 0x40 MLOAD DUP1 SWAP2 SUB SWAP1 REVERT JUMPDEST PUSH32 0x0 PUSH20 0xFFFFFFFFFFFFFFFFFFFFFFFFFFFFFFFFFFFFFFFF AND PUSH2 0xCDD PUSH2 0x1D40 JUMP JUMPDEST PUSH20 0xFFFFFFFFFFFFFFFFFFFFFFFFFFFFFFFFFFFFFFFF AND EQ PUSH2 0xD33 JUMPI PUSH1 0x40 MLOAD PUSH32 0x8C379A000000000000000000000000000000000000000000000000000000000 DUP2 MSTORE PUSH1 0x4 ADD PUSH2 0xD2A SWAP1 PUSH2 0x379E JUMP JUMPDEST PUSH1 0x40 MLOAD DUP1 SWAP2 SUB SWAP1 REVERT JUMPDEST PUSH2 0xD3C DUP2 PUSH2 0x1D93 JUMP JUMPDEST PUSH2 0xD93 DUP2 PUSH0 PUSH8 0xFFFFFFFFFFFFFFFF DUP2 GT ISZERO PUSH2 0xD5A JUMPI PUSH2 0xD59 PUSH2 0x2BD9 JUMP JUMPDEST JUMPDEST PUSH1 0x40 MLOAD SWAP1 DUP1 DUP3 MSTORE DUP1 PUSH1 0x1F ADD PUSH1 0x1F NOT AND PUSH1 0x20 ADD DUP3 ADD PUSH1 0x40 MSTORE DUP1 ISZERO PUSH2 0xD8C JUMPI DUP2 PUSH1 0x20 ADD PUSH1 0x1 DUP3 MUL DUP1 CALLDATASIZE DUP4 CALLDATACOPY DUP1 DUP3 ADD SWAP2 POP POP SWAP1 POP JUMPDEST POP PUSH0 PUSH2 0x1DEE JUMP JUMPDEST POP JUMP JUMPDEST PUSH0 PUSH1 0x9 PUSH0 DUP5 DUP2 MSTORE PUSH1 0x20 ADD SWAP1 DUP2 MSTORE PUSH1 0x20 ADD PUSH0 KECCAK256 PUSH0 DUP4 DUP2 MSTORE PUSH1 0x20 ADD SWAP1 DUP2 MSTORE PUSH1 0x20 ADD PUSH0 KECCAK256 SLOAD SWAP1 POP SWAP3 SWAP2 POP POP JUMP JUMPDEST PUSH2 0xDD0 DUP2 PUSH1 0x60 ADD MLOAD PUSH0 ADD MLOAD PUSH2 0x1F58 JUMP JUMPDEST PUSH1 0x1 DUP2 PUSH0 ADD DUP2 DUP2 MSTORE POP POP PUSH2 0xDEA DUP2 PUSH1 0x60 ADD MLOAD PUSH0 ADD MLOAD PUSH2 0x1FF4 JUMP JUMPDEST DUP2 PUSH1 0x20 ADD DUP2 DUP2 MSTORE POP POP PUSH2 0xDFC DUP2 PUSH2 0x2036 JUMP JUMPDEST PUSH32 0xFD257DB59EB300E45D6CF1474D6740C876DBEFF48F3F77CD83A4E2DF44639048 DUP2 PUSH1 0x40 MLOAD PUSH2 0xE2B SWAP2 SWAP1 PUSH2 0x3904 JUMP JUMPDEST PUSH1 0x40 MLOAD DUP1 SWAP2 SUB SWAP1 LOG1 PUSH2 0xE3C DUP2 PUSH2 0x2145 JUMP JUMPDEST POP JUMP JUMPDEST PUSH0 DUP1 PUSH0 SHL PUSH1 0xA PUSH0 DUP6 DUP2 MSTORE PUSH1 0x20 ADD SWAP1 DUP2 MSTORE PUSH1 0x20 ADD PUSH0 KECCAK256 PUSH0 DUP5 DUP2 MSTORE PUSH1 0x20 ADD SWAP1 DUP2 MSTORE PUSH1 0x20 ADD PUSH0 KECCAK256 SLOAD EQ ISZERO SWAP1 POP SWAP3 SWAP2 POP POP JUMP JUMPDEST PUSH1 0xC SLOAD DUP2 JUMP JUMPDEST PUSH32 0x0 PUSH20 0xFFFFFFFFFFFFFFFFFFFFFFFFFFFFFFFFFFFFFFFF AND ADDRESS PUSH20 0xFFFFFFFFFFFFFFFFFFFFFFFFFFFFFFFFFFFFFFFF AND SUB PUSH2 0xF02 JUMPI PUSH1 0x40 MLOAD PUSH32 0x8C379A000000000000000000000000000000000000000000000000000000000 DUP2 MSTORE PUSH1 0x4 ADD PUSH2 0xEF9 SWAP1 PUSH2 0x3710 JUMP JUMPDEST PUSH1 0x40 MLOAD DUP1 SWAP2 SUB SWAP1 REVERT JUMPDEST PUSH32 0x0 PUSH20 0xFFFFFFFFFFFFFFFFFFFFFFFFFFFFFFFFFFFFFFFF AND PUSH2 0xF41 PUSH2 0x1D40 JUMP JUMPDEST PUSH20 0xFFFFFFFFFFFFFFFFFFFFFFFFFFFFFFFFFFFFFFFF AND EQ PUSH2 0xF97 JUMPI PUSH1 0x40 MLOAD PUSH32 0x8C379A000000000000000000000000000000000000000000000000000000000 DUP2 MSTORE PUSH1 0x4 ADD PUSH2 0xF8E SWAP1 PUSH2 0x379E JUMP JUMPDEST PUSH1 0x40 MLOAD DUP1 SWAP2 SUB SWAP1 REVERT JUMPDEST PUSH2 0xFA0 DUP3 PUSH2 0x1D93 JUMP JUMPDEST PUSH2 0xFAC DUP3 DUP3 PUSH1 0x1 PUSH2 0x1DEE JUMP JUMPDEST POP POP JUMP JUMPDEST PUSH0 DUP1 PUSH1 0x7 PUSH0 DUP5 DUP2 MSTORE PUSH1 0x20 ADD SWAP1 DUP2 MSTORE PUSH1 0x20 ADD PUSH0 KECCAK256 PUSH0 ADD SLOAD EQ ISZERO SWAP1 POP SWAP2 SWAP1 POP JUMP JUMPDEST PUSH0 PUSH32 0x0 PUSH20 0xFFFFFFFFFFFFFFFFFFFFFFFFFFFFFFFFFFFFFFFF AND ADDRESS PUSH20 0xFFFFFFFFFFFFFFFFFFFFFFFFFFFFFFFFFFFFFFFF AND EQ PUSH2 0x105E JUMPI PUSH1 0x40 MLOAD PUSH32 0x8C379A000000000000000000000000000000000000000000000000000000000 DUP2 MSTORE PUSH1 0x4 ADD PUSH2 0x1055 SWAP1 PUSH2 0x3994 JUMP JUMPDEST PUSH1 0x40 MLOAD DUP1 SWAP2 SUB SWAP1 REVERT JUMPDEST PUSH32 0x360894A13BA1A3210667C828492DB98DCA3E2076CC3735A920A3CA505D382BBC PUSH0 SHL SWAP1 POP SWAP1 JUMP JUMPDEST PUSH1 0x7 PUSH1 0x20 MSTORE DUP1 PUSH0 MSTORE PUSH1 0x40 PUSH0 KECCAK256 PUSH0 SWAP2 POP SWAP1 POP DUP1 PUSH0 ADD SLOAD SWAP1 DUP1 PUSH1 0x1 ADD DUP1 SLOAD PUSH2 0x10AB SWAP1 PUSH2 0x3670 JUMP JUMPDEST DUP1 PUSH1 0x1F ADD PUSH1 0x20 DUP1 SWAP2 DIV MUL PUSH1 0x20 ADD PUSH1 0x40 MLOAD SWAP1 DUP2 ADD PUSH1 0x40 MSTORE DUP1 SWAP3 SWAP2 SWAP1 DUP2 DUP2 MSTORE PUSH1 0x20 ADD DUP3 DUP1 SLOAD PUSH2 0x10D7 SWAP1 PUSH2 0x3670 JUMP JUMPDEST DUP1 ISZERO PUSH2 0x1122 JUMPI DUP1 PUSH1 0x1F LT PUSH2 0x10F9 JUMPI PUSH2 0x100 DUP1 DUP4 SLOAD DIV MUL DUP4 MSTORE SWAP2 PUSH1 0x20 ADD SWAP2 PUSH2 0x1122 JUMP JUMPDEST DUP3 ADD SWAP2 SWAP1 PUSH0 MSTORE PUSH1 0x20 PUSH0 KECCAK256 SWAP1 JUMPDEST DUP2 SLOAD DUP2 MSTORE SWAP1 PUSH1 0x1 ADD SWAP1 PUSH1 0x20 ADD DUP1 DUP4 GT PUSH2 0x1105 JUMPI DUP3 SWAP1 SUB PUSH1 0x1F AND DUP3 ADD SWAP2 JUMPDEST POP POP POP POP POP SWAP1 POP DUP3 JUMP JUMPDEST PUSH1 0xA PUSH1 0x20 MSTORE DUP2 PUSH0 MSTORE PUSH1 0x40 PUSH0 KECCAK256 PUSH1 0x20 MSTORE DUP1 PUSH0 MSTORE PUSH1 0x40 PUSH0 KECCAK256 PUSH0 SWAP2 POP SWAP2 POP POP SLOAD DUP2 JUMP JUMPDEST PUSH2 0x1154 PUSH2 0x2148 JUMP JUMPDEST PUSH0 JUMPDEST DUP2 MLOAD DUP2 LT ISZERO PUSH2 0x118F JUMPI PUSH2 0x1182 DUP3 DUP3 DUP2 MLOAD DUP2 LT PUSH2 0x1175 JUMPI PUSH2 0x1174 PUSH2 0x39B2 JUMP JUMPDEST JUMPDEST PUSH1 0x20 MUL PUSH1 0x20 ADD ADD MLOAD PUSH2 0x2192 JUMP JUMPDEST DUP1 DUP1 PUSH1 0x1 ADD SWAP2 POP POP PUSH2 0x1156 JUMP JUMPDEST POP POP JUMP JUMPDEST PUSH0 PUSH1 0x6 PUSH0 DUP4 PUSH20 0xFFFFFFFFFFFFFFFFFFFFFFFFFFFFFFFFFFFFFFFF AND PUSH20 0xFFFFFFFFFFFFFFFFFFFFFFFFFFFFFFFFFFFFFFFF AND DUP2 MSTORE PUSH1 0x20 ADD SWAP1 DUP2 MSTORE PUSH1 0x20 ADD PUSH0 KECCAK256 PUSH0 SWAP1 SLOAD SWAP1 PUSH2 0x100 EXP SWAP1 DIV PUSH1 0xFF AND SWAP1 POP SWAP2 SWAP1 POP JUMP JUMPDEST PUSH1 0x3 PUSH0 SWAP1 SLOAD SWAP1 PUSH2 0x100 EXP SWAP1 DIV PUSH20 0xFFFFFFFFFFFFFFFFFFFFFFFFFFFFFFFFFFFFFFFF AND DUP2 JUMP JUMPDEST PUSH1 0x3 PUSH0 SWAP1 SLOAD SWAP1 PUSH2 0x100 EXP SWAP1 DIV PUSH20 0xFFFFFFFFFFFFFFFFFFFFFFFFFFFFFFFFFFFFFFFF AND PUSH20 0xFFFFFFFFFFFFFFFFFFFFFFFFFFFFFFFFFFFFFFFF AND CALLER PUSH20 0xFFFFFFFFFFFFFFFFFFFFFFFFFFFFFFFFFFFFFFFF AND EQ PUSH2 0x1299 JUMPI PUSH1 0x40 MLOAD PUSH32 0x8C379A000000000000000000000000000000000000000000000000000000000 DUP2 MSTORE PUSH1 0x4 ADD PUSH2 0x1290 SWAP1 PUSH2 0x35BD JUMP JUMPDEST PUSH1 0x40 MLOAD DUP1 SWAP2 SUB SWAP1 REVERT JUMPDEST PUSH2 0x12A2 DUP3 PUSH2 0xBBE JUMP JUMPDEST ISZERO PUSH2 0x1334 JUMPI PUSH1 0x4 PUSH0 DUP4 PUSH20 0xFFFFFFFFFFFFFFFFFFFFFFFFFFFFFFFFFFFFFFFF AND PUSH20 0xFFFFFFFFFFFFFFFFFFFFFFFFFFFFFFFFFFFFFFFF AND DUP2 MSTORE PUSH1 0x20 ADD SWAP1 DUP2 MSTORE PUSH1 0x20 ADD PUSH0 KECCAK256 PUSH0 PUSH2 0x100 EXP DUP2 SLOAD SWAP1 PUSH1 0xFF MUL NOT AND SWAP1 SSTORE DUP1 PUSH1 0x5 DUP2 SWAP1 SSTORE POP PUSH32 0x4D9BAAFB1AAA72B5DE32BBDB949EA3D6BE986B9989A747834D6470DF6738352D DUP3 DUP3 PUSH1 0x40 MLOAD PUSH2 0x132B SWAP3 SWAP2 SWAP1 PUSH2 0x39DF JUMP JUMPDEST PUSH1 0x40 MLOAD DUP1 SWAP2 SUB SWAP1 LOG1 JUMPDEST POP POP JUMP JUMPDEST PUSH0 PUSH1 0x1 PUSH0 DUP5 DUP2 MSTORE PUSH1 0x20 ADD SWAP1 DUP2 MSTORE PUSH1 0x20 ADD PUSH0 KECCAK256 PUSH0 DUP4 PUSH20 0xFFFFFFFFFFFFFFFFFFFFFFFFFFFFFFFFFFFFFFFF AND PUSH20 0xFFFFFFFFFFFFFFFFFFFFFFFFFFFFFFFFFFFFFFFF AND DUP2 MSTORE PUSH1 0x20 ADD SWAP1 DUP2 MSTORE PUSH1 0x20 ADD PUSH0 KECCAK256 PUSH0 SWAP1 SLOAD SWAP1 PUSH2 0x100 EXP SWAP1 DIV PUSH1 0xFF AND SWAP1 POP SWAP3 SWAP2 POP POP JUMP JUMPDEST PUSH1 0x3 PUSH0 SWAP1 SLOAD SWAP1 PUSH2 0x100 EXP SWAP1 DIV PUSH20 0xFFFFFFFFFFFFFFFFFFFFFFFFFFFFFFFFFFFFFFFF AND PUSH20 0xFFFFFFFFFFFFFFFFFFFFFFFFFFFFFFFFFFFFFFFF AND CALLER PUSH20 0xFFFFFFFFFFFFFFFFFFFFFFFFFFFFFFFFFFFFFFFF AND EQ PUSH2 0x1429 JUMPI PUSH1 0x40 MLOAD PUSH32 0x8C379A000000000000000000000000000000000000000000000000000000000 DUP2 MSTORE PUSH1 0x4 ADD PUSH2 0x1420 SWAP1 PUSH2 0x35BD JUMP JUMPDEST PUSH1 0x40 MLOAD DUP1 SWAP2 SUB SWAP1 REVERT JUMPDEST PUSH2 0x1432 DUP3 PUSH2 0xFB0 JUMP JUMPDEST ISZERO PUSH2 0x1472 JUMPI PUSH1 0x40 MLOAD PUSH32 0x8C379A000000000000000000000000000000000000000000000000000000000 DUP2 MSTORE PUSH1 0x4 ADD PUSH2 0x1469 SWAP1 PUSH2 0x3A50 JUMP JUMPDEST PUSH1 0x40 MLOAD DUP1 SWAP2 SUB SWAP1 REVERT JUMPDEST PUSH1 0x40 MLOAD DUP1 PUSH1 0x40 ADD PUSH1 0x40 MSTORE DUP1 DUP4 DUP2 MSTORE PUSH1 0x20 ADD DUP3 DUP2 MSTORE POP PUSH1 0x7 PUSH0 DUP5 DUP2 MSTORE PUSH1 0x20 ADD SWAP1 DUP2 MSTORE PUSH1 0x20 ADD PUSH0 KECCAK256 PUSH0 DUP3 ADD MLOAD DUP2 PUSH0 ADD SSTORE PUSH1 0x20 DUP3 ADD MLOAD DUP2 PUSH1 0x1 ADD SWAP1 DUP2 PUSH2 0x14B5 SWAP2 SWAP1 PUSH2 0x3C0B JUMP JUMPDEST POP SWAP1 POP POP PUSH32 0x98D2ADA6E8E6C16DC5C0CD7305C7EA2A5487D613218C7498C4B1CE5C8FBD4525 PUSH1 0x7 PUSH0 DUP5 DUP2 MSTORE PUSH1 0x20 ADD SWAP1 DUP2 MSTORE PUSH1 0x20 ADD PUSH0 KECCAK256 PUSH1 0x40 MLOAD PUSH2 0x14F8 SWAP2 SWAP1 PUSH2 0x3DCE JUMP JUMPDEST PUSH1 0x40 MLOAD DUP1 SWAP2 SUB SWAP1 LOG1 POP POP JUMP JUMPDEST PUSH0 SWAP3 SWAP2 POP POP JUMP JUMPDEST PUSH0 PUSH2 0x1514 PUSH2 0x21B2 JUMP JUMPDEST PUSH0 DUP1 DUP5 DUP2 MSTORE PUSH1 0x20 ADD SWAP1 DUP2 MSTORE PUSH1 0x20 ADD PUSH0 KECCAK256 SLOAD LT ISZERO SWAP1 POP SWAP2 SWAP1 POP JUMP JUMPDEST PUSH0 PUSH1 0x8 PUSH1 0x1 SWAP1 SLOAD SWAP1 PUSH2 0x100 EXP SWAP1 DIV PUSH1 0xFF AND ISZERO SWAP1 POP DUP1 DUP1 ISZERO PUSH2 0x1560 JUMPI POP PUSH1 0x1 PUSH1 0x8 PUSH0 SWAP1 SLOAD SWAP1 PUSH2 0x100 EXP SWAP1 DIV PUSH1 0xFF AND PUSH1 0xFF AND LT JUMPDEST DUP1 PUSH2 0x158E JUMPI POP PUSH2 0x156F ADDRESS PUSH2 0x21BB JUMP JUMPDEST ISZERO DUP1 ISZERO PUSH2 0x158D JUMPI POP PUSH1 0x1 PUSH1 0x8 PUSH0 SWAP1 SLOAD SWAP1 PUSH2 0x100 EXP SWAP1 DIV PUSH1 0xFF AND PUSH1 0xFF AND EQ JUMPDEST JUMPDEST PUSH2 0x15CD JUMPI PUSH1 0x40 MLOAD PUSH32 0x8C379A000000000000000000000000000000000000000000000000000000000 DUP2 MSTORE PUSH1 0x4 ADD PUSH2 0x15C4 SWAP1 PUSH2 0x3E5E JUMP JUMPDEST PUSH1 0x40 MLOAD DUP1 SWAP2 SUB SWAP1 REVERT JUMPDEST PUSH1 0x1 PUSH1 0x8 PUSH0 PUSH2 0x100 EXP DUP2 SLOAD DUP2 PUSH1 0xFF MUL NOT AND SWAP1 DUP4 PUSH1 0xFF AND MUL OR SWAP1 SSTORE POP DUP1 ISZERO PUSH2 0x160A JUMPI PUSH1 0x1 PUSH1 0x8 PUSH1 0x1 PUSH2 0x100 EXP DUP2 SLOAD DUP2 PUSH1 0xFF MUL NOT AND SWAP1 DUP4 ISZERO ISZERO MUL OR SWAP1 SSTORE POP JUMPDEST DUP2 PUSH1 0x3 PUSH0 PUSH2 0x100 EXP DUP2 SLOAD DUP2 PUSH20 0xFFFFFFFFFFFFFFFFFFFFFFFFFFFFFFFFFFFFFFFF MUL NOT AND SWAP1 DUP4 PUSH20 0xFFFFFFFFFFFFFFFFFFFFFFFFFFFFFFFFFFFFFFFF AND MUL OR SWAP1 SSTORE POP DUP1 ISZERO PUSH2 0x16A3 JUMPI PUSH0 PUSH1 0x8 PUSH1 0x1 PUSH2 0x100 EXP DUP2 SLOAD DUP2 PUSH1 0xFF MUL NOT AND SWAP1 DUP4 ISZERO ISZERO MUL OR SWAP1 SSTORE POP PUSH32 0x7F26B83FF96E1F2B6A682F133852F6798A09C465DA95921460CEFB3847402498 PUSH1 0x1 PUSH1 0x40 MLOAD PUSH2 0x169A SWAP2 SWAP1 PUSH2 0x3EC1 JUMP JUMPDEST PUSH1 0x40 MLOAD DUP1 SWAP2 SUB SWAP1 LOG1 JUMPDEST POP POP JUMP JUMPDEST PUSH1 0x2 PUSH1 0x20 MSTORE DUP1 PUSH0 MSTORE PUSH1 0x40 PUSH0 KECCAK256 PUSH0 SWAP2 POP SWAP1 POP SLOAD DUP2 JUMP JUMPDEST PUSH1 0x3 PUSH0 SWAP1 SLOAD SWAP1 PUSH2 0x100 EXP SWAP1 DIV PUSH20 0xFFFFFFFFFFFFFFFFFFFFFFFFFFFFFFFFFFFFFFFF AND PUSH20 0xFFFFFFFFFFFFFFFFFFFFFFFFFFFFFFFFFFFFFFFF AND CALLER PUSH20 0xFFFFFFFFFFFFFFFFFFFFFFFFFFFFFFFFFFFFFFFF AND EQ PUSH2 0x174B JUMPI PUSH1 0x40 MLOAD PUSH32 0x8C379A000000000000000000000000000000000000000000000000000000000 DUP2 MSTORE PUSH1 0x4 ADD PUSH2 0x1742 SWAP1 PUSH2 0x35BD JUMP JUMPDEST PUSH1 0x40 MLOAD DUP1 SWAP2 SUB SWAP1 REVERT JUMPDEST PUSH2 0x1754 DUP2 PUSH2 0xFB0 JUMP JUMPDEST PUSH2 0x1793 JUMPI PUSH1 0x40 MLOAD PUSH32 0x8C379A000000000000000000000000000000000000000000000000000000000 DUP2 MSTORE PUSH1 0x4 ADD PUSH2 0x178A SWAP1 PUSH2 0x3F24 JUMP JUMPDEST PUSH1 0x40 MLOAD DUP1 SWAP2 SUB SWAP1 REVERT JUMPDEST PUSH1 0x7 PUSH0 DUP3 DUP2 MSTORE PUSH1 0x20 ADD SWAP1 DUP2 MSTORE PUSH1 0x20 ADD PUSH0 KECCAK256 PUSH0 DUP1 DUP3 ADD PUSH0 SWAP1 SSTORE PUSH1 0x1 DUP3 ADD PUSH0 PUSH2 0x17BA SWAP2 SWAP1 PUSH2 0x2833 JUMP JUMPDEST POP POP PUSH32 0x11A9D1A77F76361ED131C19B1DC5758504C51DBDE2E49FC973A0EF9577AD13D5 DUP2 PUSH1 0x40 MLOAD PUSH2 0x17EB SWAP2 SWAP1 PUSH2 0x2F74 JUMP JUMPDEST PUSH1 0x40 MLOAD DUP1 SWAP2 SUB SWAP1 LOG1 POP JUMP JUMPDEST PUSH2 0x17FE PUSH2 0x2148 JUMP JUMPDEST PUSH2 0x1807 DUP2 PUSH2 0x2192 JUMP JUMPDEST POP JUMP JUMPDEST PUSH1 0x3 PUSH0 SWAP1 SLOAD SWAP1 PUSH2 0x100 EXP SWAP1 DIV PUSH20 0xFFFFFFFFFFFFFFFFFFFFFFFFFFFFFFFFFFFFFFFF AND PUSH20 0xFFFFFFFFFFFFFFFFFFFFFFFFFFFFFFFFFFFFFFFF AND CALLER PUSH20 0xFFFFFFFFFFFFFFFFFFFFFFFFFFFFFFFFFFFFFFFF AND EQ PUSH2 0x1899 JUMPI PUSH1 0x40 MLOAD PUSH32 0x8C379A000000000000000000000000000000000000000000000000000000000 DUP2 MSTORE PUSH1 0x4 ADD PUSH2 0x1890 SWAP1 PUSH2 0x35BD JUMP JUMPDEST PUSH1 0x40 MLOAD DUP1 SWAP2 SUB SWAP1 REVERT JUMPDEST PUSH0 PUSH20 0xFFFFFFFFFFFFFFFFFFFFFFFFFFFFFFFFFFFFFFFF AND DUP3 PUSH20 0xFFFFFFFFFFFFFFFFFFFFFFFFFFFFFFFFFFFFFFFF AND SUB PUSH2 0x1907 JUMPI PUSH1 0x40 MLOAD PUSH32 0x8C379A000000000000000000000000000000000000000000000000000000000 DUP2 MSTORE PUSH1 0x4 ADD PUSH2 0x18FE SWAP1 PUSH2 0x3F8C JUMP JUMPDEST PUSH1 0x40 MLOAD DUP1 SWAP2 SUB SWAP1 REVERT JUMPDEST PUSH1 0x1 PUSH1 0x4 PUSH0 DUP5 PUSH20 0xFFFFFFFFFFFFFFFFFFFFFFFFFFFFFFFFFFFFFFFF AND PUSH20 0xFFFFFFFFFFFFFFFFFFFFFFFFFFFFFFFFFFFFFFFF AND DUP2 MSTORE PUSH1 0x20 ADD SWAP1 DUP2 MSTORE PUSH1 0x20 ADD PUSH0 KECCAK256 PUSH0 PUSH2 0x100 EXP DUP2 SLOAD DUP2 PUSH1 0xFF MUL NOT AND SWAP1 DUP4 ISZERO ISZERO MUL OR SWAP1 SSTORE POP DUP1 PUSH1 0x5 DUP2 SWAP1 SSTORE POP PUSH32 0x3048C9EA63A33DA5ED9A73829970FA3C31E6A8B32BBC5747E24632F61C027E8E DUP3 DUP3 PUSH1 0x40 MLOAD PUSH2 0x1994 SWAP3 SWAP2 SWAP1 PUSH2 0x39DF JUMP JUMPDEST PUSH1 0x40 MLOAD DUP1 SWAP2 SUB SWAP1 LOG1 POP POP JUMP JUMPDEST PUSH1 0x3 PUSH0 SWAP1 SLOAD SWAP1 PUSH2 0x100 EXP SWAP1 DIV PUSH20 0xFFFFFFFFFFFFFFFFFFFFFFFFFFFFFFFFFFFFFFFF AND PUSH20 0xFFFFFFFFFFFFFFFFFFFFFFFFFFFFFFFFFFFFFFFF AND CALLER PUSH20 0xFFFFFFFFFFFFFFFFFFFFFFFFFFFFFFFFFFFFFFFF AND EQ PUSH2 0x1A2F JUMPI PUSH1 0x40 MLOAD PUSH32 0x8C379A000000000000000000000000000000000000000000000000000000000 DUP2 MSTORE PUSH1 0x4 ADD PUSH2 0x1A26 SWAP1 PUSH2 0x35BD JUMP JUMPDEST PUSH1 0x40 MLOAD DUP1 SWAP2 SUB SWAP1 REVERT JUMPDEST DUP1 PUSH1 0x3 PUSH0 PUSH2 0x100 EXP DUP2 SLOAD DUP2 PUSH20 0xFFFFFFFFFFFFFFFFFFFFFFFFFFFFFFFFFFFFFFFF MUL NOT AND SWAP1 DUP4 PUSH20 0xFFFFFFFFFFFFFFFFFFFFFFFFFFFFFFFFFFFFFFFF AND MUL OR SWAP1 SSTORE POP POP JUMP JUMPDEST PUSH1 0x3 PUSH0 SWAP1 SLOAD SWAP1 PUSH2 0x100 EXP SWAP1 DIV PUSH20 0xFFFFFFFFFFFFFFFFFFFFFFFFFFFFFFFFFFFFFFFF AND PUSH20 0xFFFFFFFFFFFFFFFFFFFFFFFFFFFFFFFFFFFFFFFF AND CALLER PUSH20 0xFFFFFFFFFFFFFFFFFFFFFFFFFFFFFFFFFFFFFFFF AND EQ PUSH2 0x1B01 JUMPI PUSH1 0x40 MLOAD PUSH32 0x8C379A000000000000000000000000000000000000000000000000000000000 DUP2 MSTORE PUSH1 0x4 ADD PUSH2 0x1AF8 SWAP1 PUSH2 0x35BD JUMP JUMPDEST PUSH1 0x40 MLOAD DUP1 SWAP2 SUB SWAP1 REVERT JUMPDEST PUSH0 PUSH20 0xFFFFFFFFFFFFFFFFFFFFFFFFFFFFFFFFFFFFFFFF AND DUP2 PUSH20 0xFFFFFFFFFFFFFFFFFFFFFFFFFFFFFFFFFFFFFFFF AND SUB PUSH2 0x1B6F JUMPI PUSH1 0x40 MLOAD PUSH32 0x8C379A000000000000000000000000000000000000000000000000000000000 DUP2 MSTORE PUSH1 0x4 ADD PUSH2 0x1B66 SWAP1 PUSH2 0x3F8C JUMP JUMPDEST PUSH1 0x40 MLOAD DUP1 SWAP2 SUB SWAP1 REVERT JUMPDEST PUSH2 0x1B78 DUP2 PUSH2 0x1193 JUMP JUMPDEST ISZERO PUSH2 0x1BB8 JUMPI PUSH1 0x40 MLOAD PUSH32 0x8C379A000000000000000000000000000000000000000000000000000000000 DUP2 MSTORE PUSH1 0x4 ADD PUSH2 0x1BAF SWAP1 PUSH2 0x3FF4 JUMP JUMPDEST PUSH1 0x40 MLOAD DUP1 SWAP2 SUB SWAP1 REVERT JUMPDEST PUSH1 0x1 PUSH1 0x6 PUSH0 DUP4 PUSH20 0xFFFFFFFFFFFFFFFFFFFFFFFFFFFFFFFFFFFFFFFF AND PUSH20 0xFFFFFFFFFFFFFFFFFFFFFFFFFFFFFFFFFFFFFFFF AND DUP2 MSTORE PUSH1 0x20 ADD SWAP1 DUP2 MSTORE PUSH1 0x20 ADD PUSH0 KECCAK256 PUSH0 PUSH2 0x100 EXP DUP2 SLOAD DUP2 PUSH1 0xFF MUL NOT AND SWAP1 DUP4 ISZERO ISZERO MUL OR SWAP1 SSTORE POP PUSH32 0x94A4797E4C030E498DA08BB8871D39298528D0F1269FBA1DA4363703331D58E9 DUP2 PUSH1 0x40 MLOAD PUSH2 0x1C3C SWAP2 SWAP1 PUSH2 0x337A JUMP JUMPDEST PUSH1 0x40 MLOAD DUP1 SWAP2 SUB SWAP1 LOG1 POP JUMP JUMPDEST PUSH2 0x1C50 CALLER PUSH2 0x1193 JUMP JUMPDEST PUSH2 0x1C8F JUMPI PUSH1 0x40 MLOAD PUSH32 0x8C379A000000000000000000000000000000000000000000000000000000000 DUP2 MSTORE PUSH1 0x4 ADD PUSH2 0x1C86 SWAP1 PUSH2 0x3625 JUMP JUMPDEST PUSH1 0x40 MLOAD DUP1 SWAP2 SUB SWAP1 REVERT JUMPDEST PUSH0 PUSH2 0x1CA5 DUP3 PUSH1 0x60 ADD MLOAD PUSH0 ADD MLOAD DUP4 PUSH1 0x20 ADD MLOAD PUSH2 0xD96 JUMP JUMPDEST SWAP1 POP PUSH2 0x1CB0 DUP3 PUSH2 0x21DD JUMP JUMPDEST DUP2 EQ PUSH2 0x1CF1 JUMPI PUSH1 0x40 MLOAD PUSH32 0x8C379A000000000000000000000000000000000000000000000000000000000 DUP2 MSTORE PUSH1 0x4 ADD PUSH2 0x1CE8 SWAP1 PUSH2 0x405C JUMP JUMPDEST PUSH1 0x40 MLOAD DUP1 SWAP2 SUB SWAP1 REVERT JUMPDEST PUSH2 0x1CFA DUP3 PUSH2 0x225E JUMP JUMPDEST PUSH2 0x1D05 DUP3 PUSH1 0x2 PUSH2 0x226A JUMP JUMPDEST PUSH32 0x636209B10D69C1917CD00A9DC825C2440AED804C54F2E9D9A3DDDD2CF863C223 DUP2 PUSH1 0x40 MLOAD PUSH2 0x1D34 SWAP2 SWAP1 PUSH2 0x2925 JUMP JUMPDEST PUSH1 0x40 MLOAD DUP1 SWAP2 SUB SWAP1 LOG1 POP POP JUMP JUMPDEST PUSH0 PUSH2 0x1D6C PUSH32 0x360894A13BA1A3210667C828492DB98DCA3E2076CC3735A920A3CA505D382BBC PUSH0 SHL PUSH2 0x2278 JUMP JUMPDEST PUSH0 ADD PUSH0 SWAP1 SLOAD SWAP1 PUSH2 0x100 EXP SWAP1 DIV PUSH20 0xFFFFFFFFFFFFFFFFFFFFFFFFFFFFFFFFFFFFFFFF AND SWAP1 POP SWAP1 JUMP JUMPDEST PUSH1 0x3 PUSH0 SWAP1 SLOAD SWAP1 PUSH2 0x100 EXP SWAP1 DIV PUSH20 0xFFFFFFFFFFFFFFFFFFFFFFFFFFFFFFFFFFFFFFFF AND PUSH20 0xFFFFFFFFFFFFFFFFFFFFFFFFFFFFFFFFFFFFFFFF AND CALLER PUSH20 0xFFFFFFFFFFFFFFFFFFFFFFFFFFFFFFFFFFFFFFFF AND EQ PUSH2 0x1DEB JUMPI PUSH0 DUP1 REVERT JUMPDEST POP JUMP JUMPDEST PUSH2 0x1E19 PUSH32 0x4910FDFA16FED3260ED0E7147F7CC6DA11A60208B5B9406D12A635614FFD9143 PUSH0 SHL PUSH2 0x2281 JUMP JUMPDEST PUSH0 ADD PUSH0 SWAP1 SLOAD SWAP1 PUSH2 0x100 EXP SWAP1 DIV PUSH1 0xFF AND ISZERO PUSH2 0x1E3B JUMPI PUSH2 0x1E36 DUP4 PUSH2 0x228A JUMP JUMPDEST PUSH2 0x1F53 JUMP JUMPDEST DUP3 PUSH20 0xFFFFFFFFFFFFFFFFFFFFFFFFFFFFFFFFFFFFFFFF AND PUSH4 0x52D1902D PUSH1 0x40 MLOAD DUP2 PUSH4 0xFFFFFFFF AND PUSH1 0xE0 SHL DUP2 MSTORE PUSH1 0x4 ADD PUSH1 0x20 PUSH1 0x40 MLOAD DUP1 DUP4 SUB DUP2 DUP7 GAS STATICCALL SWAP3 POP POP POP DUP1 ISZERO PUSH2 0x1EA3 JUMPI POP PUSH1 0x40 MLOAD RETURNDATASIZE PUSH1 0x1F NOT PUSH1 0x1F DUP3 ADD AND DUP3 ADD DUP1 PUSH1 0x40 MSTORE POP DUP2 ADD SWAP1 PUSH2 0x1EA0 SWAP2 SWAP1 PUSH2 0x408E JUMP JUMPDEST PUSH1 0x1 JUMPDEST PUSH2 0x1EE2 JUMPI PUSH1 0x40 MLOAD PUSH32 0x8C379A000000000000000000000000000000000000000000000000000000000 DUP2 MSTORE PUSH1 0x4 ADD PUSH2 0x1ED9 SWAP1 PUSH2 0x4129 JUMP JUMPDEST PUSH1 0x40 MLOAD DUP1 SWAP2 SUB SWAP1 REVERT JUMPDEST PUSH32 0x360894A13BA1A3210667C828492DB98DCA3E2076CC3735A920A3CA505D382BBC PUSH0 SHL DUP2 EQ PUSH2 0x1F46 JUMPI PUSH1 0x40 MLOAD PUSH32 0x8C379A000000000000000000000000000000000000000000000000000000000 DUP2 MSTORE PUSH1 0x4 ADD PUSH2 0x1F3D SWAP1 PUSH2 0x41B7 JUMP JUMPDEST PUSH1 0x40 MLOAD DUP1 SWAP2 SUB SWAP1 REVERT JUMPDEST POP PUSH2 0x1F52 DUP4 DUP4 DUP4 PUSH2 0x2340 JUMP JUMPDEST JUMPDEST POP POP POP JUMP JUMPDEST PUSH2 0x1F61 DUP2 PUSH2 0x236B JUMP JUMPDEST PUSH2 0x1F6A CALLER PUSH2 0x1193 JUMP JUMPDEST PUSH2 0x1FA9 JUMPI PUSH1 0x40 MLOAD PUSH32 0x8C379A000000000000000000000000000000000000000000000000000000000 DUP2 MSTORE PUSH1 0x4 ADD PUSH2 0x1FA0 SWAP1 PUSH2 0x3625 JUMP JUMPDEST PUSH1 0x40 MLOAD DUP1 SWAP2 SUB SWAP1 REVERT JUMPDEST PUSH2 0x1FB2 DUP2 PUSH2 0xFB0 JUMP JUMPDEST PUSH2 0x1FF1 JUMPI PUSH1 0x40 MLOAD PUSH32 0x8C379A000000000000000000000000000000000000000000000000000000000 DUP2 MSTORE PUSH1 0x4 ADD PUSH2 0x1FE8 SWAP1 PUSH2 0x421F JUMP JUMPDEST PUSH1 0x40 MLOAD DUP1 SWAP2 SUB SWAP1 REVERT JUMPDEST POP JUMP JUMPDEST PUSH0 PUSH1 0x1 PUSH1 0x2 PUSH0 DUP5 DUP2 MSTORE PUSH1 0x20 ADD SWAP1 DUP2 MSTORE PUSH1 0x20 ADD PUSH0 KECCAK256 PUSH0 DUP3 DUP3 SLOAD PUSH2 0x2016 SWAP2 SWAP1 PUSH2 0x423D JUMP JUMPDEST SWAP3 POP POP DUP2 SWAP1 SSTORE POP PUSH1 0x2 PUSH0 DUP4 DUP2 MSTORE PUSH1 0x20 ADD SWAP1 DUP2 MSTORE PUSH1 0x20 ADD PUSH0 KECCAK256 SLOAD SWAP1 POP SWAP2 SWAP1 POP JUMP JUMPDEST DUP1 PUSH1 0xB PUSH0 DUP4 PUSH1 0x60 ADD MLOAD PUSH0 ADD MLOAD DUP2 MSTORE PUSH1 0x20 ADD SWAP1 DUP2 MSTORE PUSH1 0x20 ADD PUSH0 KECCAK256 PUSH0 DUP4 PUSH1 0x20 ADD MLOAD DUP2 MSTORE PUSH1 0x20 ADD SWAP1 DUP2 MSTORE PUSH1 0x20 ADD PUSH0 KECCAK256 PUSH0 DUP3 ADD MLOAD DUP2 PUSH0 ADD SSTORE PUSH1 0x20 DUP3 ADD MLOAD DUP2 PUSH1 0x1 ADD SSTORE PUSH1 0x40 DUP3 ADD MLOAD DUP2 PUSH1 0x2 ADD PUSH0 DUP3 ADD MLOAD DUP2 PUSH0 ADD SSTORE PUSH1 0x20 DUP3 ADD MLOAD DUP2 PUSH1 0x1 ADD PUSH0 PUSH2 0x100 EXP DUP2 SLOAD DUP2 PUSH20 0xFFFFFFFFFFFFFFFFFFFFFFFFFFFFFFFFFFFFFFFF MUL NOT AND SWAP1 DUP4 PUSH20 0xFFFFFFFFFFFFFFFFFFFFFFFFFFFFFFFFFFFFFFFF AND MUL OR SWAP1 SSTORE POP POP POP PUSH1 0x60 DUP3 ADD MLOAD DUP2 PUSH1 0x4 ADD PUSH0 DUP3 ADD MLOAD DUP2 PUSH0 ADD SSTORE PUSH1 0x20 DUP3 ADD MLOAD DUP2 PUSH1 0x1 ADD SWAP1 DUP2 PUSH2 0x20F3 SWAP2 SWAP1 PUSH2 0x3C0B JUMP JUMPDEST POP POP POP PUSH1 0x80 DUP3 ADD MLOAD DUP2 PUSH1 0x6 ADD PUSH0 DUP3 ADD MLOAD DUP2 PUSH0 ADD SWAP1 DUP2 PUSH2 0x2112 SWAP2 SWAP1 PUSH2 0x3C0B JUMP JUMPDEST POP PUSH1 0x20 DUP3 ADD MLOAD DUP2 PUSH1 0x1 ADD SSTORE PUSH1 0x40 DUP3 ADD MLOAD DUP2 PUSH1 0x2 ADD SWAP1 DUP2 PUSH2 0x2132 SWAP2 SWAP1 PUSH2 0x3C0B JUMP JUMPDEST POP POP POP PUSH1 0xA0 DUP3 ADD MLOAD DUP2 PUSH1 0x9 ADD SSTORE SWAP1 POP POP POP JUMP JUMPDEST POP JUMP JUMPDEST PUSH2 0x2151 CALLER PUSH2 0xBBE JUMP JUMPDEST PUSH2 0x2190 JUMPI PUSH1 0x40 MLOAD PUSH32 0x8C379A000000000000000000000000000000000000000000000000000000000 DUP2 MSTORE PUSH1 0x4 ADD PUSH2 0x2187 SWAP1 PUSH2 0x42BA JUMP JUMPDEST PUSH1 0x40 MLOAD DUP1 SWAP2 SUB SWAP1 REVERT JUMPDEST JUMP JUMPDEST PUSH2 0x219B DUP2 PUSH2 0x225E JUMP JUMPDEST PUSH2 0x21A6 DUP2 PUSH1 0x1 PUSH2 0x226A JUMP JUMPDEST PUSH2 0x21AF DUP2 PUSH2 0x236E JUMP JUMPDEST POP JUMP JUMPDEST PUSH0 PUSH1 0x5 SLOAD SWAP1 POP SWAP1 JUMP JUMPDEST PUSH0 DUP1 DUP3 PUSH20 0xFFFFFFFFFFFFFFFFFFFFFFFFFFFFFFFFFFFFFFFF AND EXTCODESIZE GT SWAP1 POP SWAP2 SWAP1 POP JUMP JUMPDEST PUSH0 DUP2 PUSH0 ADD MLOAD DUP3 PUSH1 0x20 ADD MLOAD DUP4 PUSH1 0x40 ADD MLOAD PUSH0 ADD MLOAD DUP5 PUSH1 0x40 ADD MLOAD PUSH1 0x20 ADD MLOAD DUP6 PUSH1 0x60 ADD MLOAD PUSH0 ADD MLOAD DUP7 PUSH1 0x60 ADD MLOAD PUSH1 0x20 ADD MLOAD DUP8 PUSH1 0x80 ADD MLOAD PUSH0 ADD MLOAD DUP9 PUSH1 0x80 ADD MLOAD PUSH1 0x20 ADD MLOAD DUP10 PUSH1 0x80 ADD MLOAD PUSH1 0x40 ADD MLOAD DUP11 PUSH1 0xA0 ADD MLOAD PUSH1 0x40 MLOAD PUSH1 0x20 ADD PUSH2 0x2241 SWAP11 SWAP10 SWAP9 SWAP8 SWAP7 SWAP6 SWAP5 SWAP4 SWAP3 SWAP2 SWAP1 PUSH2 0x4377 JUMP JUMPDEST PUSH1 0x40 MLOAD PUSH1 0x20 DUP2 DUP4 SUB SUB DUP2 MSTORE SWAP1 PUSH1 0x40 MSTORE DUP1 MLOAD SWAP1 PUSH1 0x20 ADD KECCAK256 SWAP1 POP SWAP2 SWAP1 POP JUMP JUMPDEST PUSH2 0x2267 DUP2 PUSH2 0x2371 JUMP JUMPDEST POP JUMP JUMPDEST PUSH2 0x2274 DUP3 DUP3 PUSH2 0x23D2 JUMP JUMPDEST POP POP JUMP JUMPDEST PUSH0 DUP2 SWAP1 POP SWAP2 SWAP1 POP JUMP JUMPDEST PUSH0 DUP2 SWAP1 POP SWAP2 SWAP1 POP JUMP JUMPDEST PUSH2 0x2293 DUP2 PUSH2 0x21BB JUMP JUMPDEST PUSH2 0x22D2 JUMPI PUSH1 0x40 MLOAD PUSH32 0x8C379A000000000000000000000000000000000000000000000000000000000 DUP2 MSTORE PUSH1 0x4 ADD PUSH2 0x22C9 SWAP1 PUSH2 0x4496 JUMP JUMPDEST PUSH1 0x40 MLOAD DUP1 SWAP2 SUB SWAP1 REVERT JUMPDEST DUP1 PUSH2 0x22FE PUSH32 0x360894A13BA1A3210667C828492DB98DCA3E2076CC3735A920A3CA505D382BBC PUSH0 SHL PUSH2 0x2278 JUMP JUMPDEST PUSH0 ADD PUSH0 PUSH2 0x100 EXP DUP2 SLOAD DUP2 PUSH20 0xFFFFFFFFFFFFFFFFFFFFFFFFFFFFFFFFFFFFFFFF MUL NOT AND SWAP1 DUP4 PUSH20 0xFFFFFFFFFFFFFFFFFFFFFFFFFFFFFFFFFFFFFFFF AND MUL OR SWAP1 SSTORE POP POP JUMP JUMPDEST PUSH2 0x2349 DUP4 PUSH2 0x243A JUMP JUMPDEST PUSH0 DUP3 MLOAD GT DUP1 PUSH2 0x2355 JUMPI POP DUP1 JUMPDEST ISZERO PUSH2 0x2366 JUMPI PUSH2 0x2364 DUP4 DUP4 PUSH2 0x2489 JUMP JUMPDEST POP JUMPDEST POP POP POP JUMP JUMPDEST POP JUMP JUMPDEST POP JUMP JUMPDEST PUSH2 0x237A DUP2 PUSH2 0x24B6 JUMP JUMPDEST PUSH2 0x238F DUP2 PUSH1 0x60 ADD MLOAD PUSH0 ADD MLOAD DUP3 PUSH1 0x20 ADD MLOAD PUSH2 0xE3F JUMP JUMPDEST ISZERO PUSH2 0x23CF JUMPI PUSH1 0x40 MLOAD PUSH32 0x8C379A000000000000000000000000000000000000000000000000000000000 DUP2 MSTORE PUSH1 0x4 ADD PUSH2 0x23C6 SWAP1 PUSH2 0x44FE JUMP JUMPDEST PUSH1 0x40 MLOAD DUP1 SWAP2 SUB SWAP1 REVERT JUMPDEST POP JUMP JUMPDEST PUSH2 0x23DC DUP3 DUP3 PUSH2 0x24C2 JUMP JUMPDEST PUSH1 0x2 DUP2 EQ ISZERO DUP1 PUSH2 0x23FE JUMPI POP PUSH2 0x23FC DUP3 PUSH1 0x60 ADD MLOAD PUSH0 ADD MLOAD DUP4 PUSH1 0x20 ADD MLOAD PUSH2 0x1504 JUMP JUMPDEST ISZERO JUMPDEST PUSH2 0x2436 JUMPI PUSH2 0x2417 DUP3 PUSH1 0x60 ADD MLOAD PUSH0 ADD MLOAD DUP4 PUSH1 0x20 ADD MLOAD PUSH2 0x2670 JUMP JUMPDEST PUSH2 0x2435 DUP3 PUSH1 0x60 ADD MLOAD PUSH0 ADD MLOAD DUP4 PUSH1 0x20 ADD MLOAD PUSH2 0x2430 DUP6 PUSH2 0x21DD JUMP JUMPDEST PUSH2 0x2697 JUMP JUMPDEST JUMPDEST POP POP JUMP JUMPDEST PUSH2 0x2443 DUP2 PUSH2 0x228A JUMP JUMPDEST DUP1 PUSH20 0xFFFFFFFFFFFFFFFFFFFFFFFFFFFFFFFFFFFFFFFF AND PUSH32 0xBC7CD75A20EE27FD9ADEBAB32041F755214DBC6BFFA90CC0225B39DA2E5C2D3B PUSH1 0x40 MLOAD PUSH1 0x40 MLOAD DUP1 SWAP2 SUB SWAP1 LOG2 POP JUMP JUMPDEST PUSH1 0x60 PUSH2 0x24AE DUP4 DUP4 PUSH1 0x40 MLOAD DUP1 PUSH1 0x60 ADD PUSH1 0x40 MSTORE DUP1 PUSH1 0x27 DUP2 MSTORE PUSH1 0x20 ADD PUSH2 0x470E PUSH1 0x27 SWAP2 CODECOPY PUSH2 0x26C1 JUMP JUMPDEST SWAP1 POP SWAP3 SWAP2 POP POP JUMP JUMPDEST PUSH2 0x24BF DUP2 PUSH2 0x279C JUMP JUMPDEST POP JUMP JUMPDEST PUSH2 0x24CC DUP3 DUP3 PUSH2 0x279F JUMP JUMPDEST PUSH1 0x1 DUP2 SUB PUSH2 0x266C JUMPI PUSH2 0x24E9 DUP3 PUSH1 0x40 ADD MLOAD PUSH0 ADD MLOAD DUP4 PUSH1 0x20 ADD MLOAD PUSH2 0x1504 JUMP JUMPDEST PUSH2 0x266C JUMPI PUSH0 PUSH2 0x24F7 DUP4 PUSH2 0x21DD JUMP JUMPDEST SWAP1 POP PUSH2 0x2503 DUP2 CALLER PUSH2 0x1338 JUMP JUMPDEST ISZERO PUSH2 0x2547 JUMPI PUSH32 0xBCF2EA3C8B515FE50F169A4131CE2D2198AFC8EC7D83A8658D7BCB0A5FBBE77 DUP2 CALLER PUSH1 0x40 MLOAD PUSH2 0x2539 SWAP3 SWAP2 SWAP1 PUSH2 0x451C JUMP JUMPDEST PUSH1 0x40 MLOAD DUP1 SWAP2 SUB SWAP1 LOG1 POP PUSH2 0x266C JUMP JUMPDEST PUSH32 0xB2F654B7E608CE51A82CE8157E79C350ED670605E8985266AD89FC85060E749 DUP2 CALLER PUSH1 0x40 MLOAD PUSH2 0x2578 SWAP3 SWAP2 SWAP1 PUSH2 0x451C JUMP JUMPDEST PUSH1 0x40 MLOAD DUP1 SWAP2 SUB SWAP1 LOG1 PUSH1 0x1 DUP1 PUSH0 DUP4 DUP2 MSTORE PUSH1 0x20 ADD SWAP1 DUP2 MSTORE PUSH1 0x20 ADD PUSH0 KECCAK256 PUSH0 CALLER PUSH20 0xFFFFFFFFFFFFFFFFFFFFFFFFFFFFFFFFFFFFFFFF AND PUSH20 0xFFFFFFFFFFFFFFFFFFFFFFFFFFFFFFFFFFFFFFFF AND DUP2 MSTORE PUSH1 0x20 ADD SWAP1 DUP2 MSTORE PUSH1 0x20 ADD PUSH0 KECCAK256 PUSH0 PUSH2 0x100 EXP DUP2 SLOAD DUP2 PUSH1 0xFF MUL NOT AND SWAP1 DUP4 ISZERO ISZERO MUL OR SWAP1 SSTORE POP PUSH1 0x1 PUSH0 DUP1 DUP4 DUP2 MSTORE PUSH1 0x20 ADD SWAP1 DUP2 MSTORE PUSH1 0x20 ADD PUSH0 KECCAK256 PUSH0 DUP3 DUP3 SLOAD PUSH2 0x2603 SWAP2 SWAP1 PUSH2 0x423D JUMP JUMPDEST SWAP3 POP POP DUP2 SWAP1 SSTORE POP PUSH2 0x2613 DUP2 PUSH2 0x150B JUMP JUMPDEST PUSH2 0x261D JUMPI POP PUSH2 0x266C JUMP JUMPDEST PUSH2 0x2633 DUP4 PUSH1 0x40 ADD MLOAD PUSH0 ADD MLOAD DUP5 PUSH1 0x20 ADD MLOAD DUP4 PUSH2 0x27A3 JUMP JUMPDEST PUSH32 0x6A682EDFF95435E4296456174CDA6DB4F55DF7FFA152DD25B5EAA810D50803FE DUP4 PUSH1 0x40 MLOAD PUSH2 0x2662 SWAP2 SWAP1 PUSH2 0x460B JUMP JUMPDEST PUSH1 0x40 MLOAD DUP1 SWAP2 SUB SWAP1 LOG1 POP JUMPDEST POP POP JUMP JUMPDEST PUSH1 0x9 PUSH0 DUP4 DUP2 MSTORE PUSH1 0x20 ADD SWAP1 DUP2 MSTORE PUSH1 0x20 ADD PUSH0 KECCAK256 PUSH0 DUP3 DUP2 MSTORE PUSH1 0x20 ADD SWAP1 DUP2 MSTORE PUSH1 0x20 ADD PUSH0 KECCAK256 PUSH0 SWAP1 SSTORE POP POP JUMP JUMPDEST DUP1 PUSH1 0xA PUSH0 DUP6 DUP2 MSTORE PUSH1 0x20 ADD SWAP1 DUP2 MSTORE PUSH1 0x20 ADD PUSH0 KECCAK256 PUSH0 DUP5 DUP2 MSTORE PUSH1 0x20 ADD SWAP1 DUP2 MSTORE PUSH1 0x20 ADD PUSH0 KECCAK256 DUP2 SWAP1 SSTORE POP POP POP POP JUMP JUMPDEST PUSH1 0x60 PUSH2 0x26CC DUP5 PUSH2 0x21BB JUMP JUMPDEST DUP1 ISZERO PUSH2 0x26DE JUMPI POP PUSH2 0x26DC CALLER PUSH2 0x21BB JUMP JUMPDEST ISZERO JUMPDEST PUSH2 0x271D JUMPI PUSH1 0x40 MLOAD PUSH32 0x8C379A000000000000000000000000000000000000000000000000000000000 DUP2 MSTORE PUSH1 0x4 ADD PUSH2 0x2714 SWAP1 PUSH2 0x4675 JUMP JUMPDEST PUSH1 0x40 MLOAD DUP1 SWAP2 SUB SWAP1 REVERT JUMPDEST PUSH0 DUP1 DUP6 PUSH20 0xFFFFFFFFFFFFFFFFFFFFFFFFFFFFFFFFFFFFFFFF AND DUP6 PUSH1 0x40 MLOAD PUSH2 0x2744 SWAP2 SWAP1 PUSH2 0x46D7 JUMP JUMPDEST PUSH0 PUSH1 0x40 MLOAD DUP1 DUP4 SUB DUP2 DUP6 GAS DELEGATECALL SWAP2 POP POP RETURNDATASIZE DUP1 PUSH0 DUP2 EQ PUSH2 0x277C JUMPI PUSH1 0x40 MLOAD SWAP2 POP PUSH1 0x1F NOT PUSH1 0x3F RETURNDATASIZE ADD AND DUP3 ADD PUSH1 0x40 MSTORE RETURNDATASIZE DUP3 MSTORE RETURNDATASIZE PUSH0 PUSH1 0x20 DUP5 ADD RETURNDATACOPY PUSH2 0x2781 JUMP JUMPDEST PUSH1 0x60 SWAP2 POP JUMPDEST POP SWAP2 POP SWAP2 POP PUSH2 0x2791 DUP3 DUP3 DUP7 PUSH2 0x27CD JUMP JUMPDEST SWAP3 POP POP POP SWAP4 SWAP3 POP POP POP JUMP JUMPDEST POP JUMP JUMPDEST POP POP JUMP JUMPDEST DUP1 PUSH1 0x9 PUSH0 DUP6 DUP2 MSTORE PUSH1 0x20 ADD SWAP1 DUP2 MSTORE PUSH1 0x20 ADD PUSH0 KECCAK256 PUSH0 DUP5 DUP2 MSTORE PUSH1 0x20 ADD SWAP1 DUP2 MSTORE PUSH1 0x20 ADD PUSH0 KECCAK256 DUP2 SWAP1 SSTORE POP POP POP POP JUMP JUMPDEST PUSH1 0x60 DUP4 ISZERO PUSH2 0x27DD JUMPI DUP3 SWAP1 POP PUSH2 0x282C JUMP JUMPDEST PUSH0 DUP4 MLOAD GT ISZERO PUSH2 0x27EF JUMPI DUP3 MLOAD DUP1 DUP5 PUSH1 0x20 ADD REVERT JUMPDEST DUP2 PUSH1 0x40 MLOAD PUSH32 0x8C379A000000000000000000000000000000000000000000000000000000000 DUP2 MSTORE PUSH1 0x4 ADD PUSH2 0x2823 SWAP2 SWAP1 PUSH2 0x46ED JUMP JUMPDEST PUSH1 0x40 MLOAD DUP1 SWAP2 SUB SWAP1 REVERT JUMPDEST SWAP4 SWAP3 POP POP POP JUMP JUMPDEST POP DUP1 SLOAD PUSH2 0x283F SWAP1 PUSH2 0x3670 JUMP JUMPDEST PUSH0 DUP3 SSTORE DUP1 PUSH1 0x1F LT PUSH2 0x2850 JUMPI POP PUSH2 0x286D JUMP JUMPDEST PUSH1 0x1F ADD PUSH1 0x20 SWAP1 DIV SWAP1 PUSH0 MSTORE PUSH1 0x20 PUSH0 KECCAK256 SWAP1 DUP2 ADD SWAP1 PUSH2 0x286C SWAP2 SWAP1 PUSH2 0x2870 JUMP JUMPDEST JUMPDEST POP JUMP JUMPDEST JUMPDEST DUP1 DUP3 GT ISZERO PUSH2 0x2887 JUMPI PUSH0 DUP2 PUSH0 SWAP1 SSTORE POP PUSH1 0x1 ADD PUSH2 0x2871 JUMP JUMPDEST POP SWAP1 JUMP JUMPDEST PUSH0 PUSH1 0x40 MLOAD SWAP1 POP SWAP1 JUMP JUMPDEST PUSH0 DUP1 REVERT JUMPDEST PUSH0 DUP1 REVERT JUMPDEST PUSH0 DUP2 SWAP1 POP SWAP2 SWAP1 POP JUMP JUMPDEST PUSH2 0x28AE DUP2 PUSH2 0x289C JUMP JUMPDEST DUP2 EQ PUSH2 0x28B8 JUMPI PUSH0 DUP1 REVERT JUMPDEST POP JUMP JUMPDEST PUSH0 DUP2 CALLDATALOAD SWAP1 POP PUSH2 0x28C9 DUP2 PUSH2 0x28A5 JUMP JUMPDEST SWAP3 SWAP2 POP POP JUMP JUMPDEST PUSH0 DUP1 PUSH1 0x40 DUP4 DUP6 SUB SLT ISZERO PUSH2 0x28E5 JUMPI PUSH2 0x28E4 PUSH2 0x2894 JUMP JUMPDEST JUMPDEST PUSH0 PUSH2 0x28F2 DUP6 DUP3 DUP7 ADD PUSH2 0x28BB JUMP JUMPDEST SWAP3 POP POP PUSH1 0x20 PUSH2 0x2903 DUP6 DUP3 DUP7 ADD PUSH2 0x28BB JUMP JUMPDEST SWAP2 POP POP SWAP3 POP SWAP3 SWAP1 POP JUMP JUMPDEST PUSH0 DUP2 SWAP1 POP SWAP2 SWAP1 POP JUMP JUMPDEST PUSH2 0x291F DUP2 PUSH2 0x290D JUMP JUMPDEST DUP3 MSTORE POP POP JUMP JUMPDEST PUSH0 PUSH1 0x20 DUP3 ADD SWAP1 POP PUSH2 0x2938 PUSH0 DUP4 ADD DUP5 PUSH2 0x2916 JUMP JUMPDEST SWAP3 SWAP2 POP POP JUMP JUMPDEST PUSH0 PUSH20 0xFFFFFFFFFFFFFFFFFFFFFFFFFFFFFFFFFFFFFFFF DUP3 AND SWAP1 POP SWAP2 SWAP1 POP JUMP JUMPDEST PUSH0 PUSH2 0x2967 DUP3 PUSH2 0x293E JUMP JUMPDEST SWAP1 POP SWAP2 SWAP1 POP JUMP JUMPDEST PUSH2 0x2977 DUP2 PUSH2 0x295D JUMP JUMPDEST DUP2 EQ PUSH2 0x2981 JUMPI PUSH0 DUP1 REVERT JUMPDEST POP JUMP JUMPDEST PUSH0 DUP2 CALLDATALOAD SWAP1 POP PUSH2 0x2992 DUP2 PUSH2 0x296E JUMP JUMPDEST SWAP3 SWAP2 POP POP JUMP JUMPDEST PUSH0 PUSH1 0x20 DUP3 DUP5 SUB SLT ISZERO PUSH2 0x29AD JUMPI PUSH2 0x29AC PUSH2 0x2894 JUMP JUMPDEST JUMPDEST PUSH0 PUSH2 0x29BA DUP5 DUP3 DUP6 ADD PUSH2 0x2984 JUMP JUMPDEST SWAP2 POP POP SWAP3 SWAP2 POP POP JUMP JUMPDEST PUSH2 0x29CC DUP2 PUSH2 0x289C JUMP JUMPDEST DUP3 MSTORE POP POP JUMP JUMPDEST PUSH2 0x29DB DUP2 PUSH2 0x289C JUMP JUMPDEST DUP3 MSTORE POP POP JUMP JUMPDEST PUSH2 0x29EA DUP2 PUSH2 0x295D JUMP JUMPDEST DUP3 MSTORE POP POP JUMP JUMPDEST PUSH1 0x40 DUP3 ADD PUSH0 DUP3 ADD MLOAD PUSH2 0x2A04 PUSH0 DUP6 ADD DUP3 PUSH2 0x29D2 JUMP JUMPDEST POP PUSH1 0x20 DUP3 ADD MLOAD PUSH2 0x2A17 PUSH1 0x20 DUP6 ADD DUP3 PUSH2 0x29E1 JUMP JUMPDEST POP POP POP POP JUMP JUMPDEST PUSH0 DUP2 MLOAD SWAP1 POP SWAP2 SWAP1 POP JUMP JUMPDEST PUSH0 DUP3 DUP3 MSTORE PUSH1 0x20 DUP3 ADD SWAP1 POP SWAP3 SWAP2 POP POP JUMP JUMPDEST PUSH0 JUMPDEST DUP4 DUP2 LT ISZERO PUSH2 0x2A54 JUMPI DUP1 DUP3 ADD MLOAD DUP2 DUP5 ADD MSTORE PUSH1 0x20 DUP2 ADD SWAP1 POP PUSH2 0x2A39 JUMP JUMPDEST PUSH0 DUP5 DUP5 ADD MSTORE POP POP POP POP JUMP JUMPDEST PUSH0 PUSH1 0x1F NOT PUSH1 0x1F DUP4 ADD AND SWAP1 POP SWAP2 SWAP1 POP JUMP JUMPDEST PUSH0 PUSH2 0x2A79 DUP3 PUSH2 0x2A1D JUMP JUMPDEST PUSH2 0x2A83 DUP2 DUP6 PUSH2 0x2A27 JUMP JUMPDEST SWAP4 POP PUSH2 0x2A93 DUP2 DUP6 PUSH1 0x20 DUP7 ADD PUSH2 0x2A37 JUMP JUMPDEST PUSH2 0x2A9C DUP2 PUSH2 0x2A5F JUMP JUMPDEST DUP5 ADD SWAP2 POP POP SWAP3 SWAP2 POP POP JUMP JUMPDEST PUSH0 PUSH1 0x40 DUP4 ADD PUSH0 DUP4 ADD MLOAD PUSH2 0x2ABC PUSH0 DUP7 ADD DUP3 PUSH2 0x29D2 JUMP JUMPDEST POP PUSH1 0x20 DUP4 ADD MLOAD DUP5 DUP3 SUB PUSH1 0x20 DUP7 ADD MSTORE PUSH2 0x2AD4 DUP3 DUP3 PUSH2 0x2A6F JUMP JUMPDEST SWAP2 POP POP DUP1 SWAP2 POP POP SWAP3 SWAP2 POP POP JUMP JUMPDEST PUSH0 PUSH1 0x60 DUP4 ADD PUSH0 DUP4 ADD MLOAD DUP5 DUP3 SUB PUSH0 DUP7 ADD MSTORE PUSH2 0x2AFB DUP3 DUP3 PUSH2 0x2A6F JUMP JUMPDEST SWAP2 POP POP PUSH1 0x20 DUP4 ADD MLOAD PUSH2 0x2B10 PUSH1 0x20 DUP7 ADD DUP3 PUSH2 0x29D2 JUMP JUMPDEST POP PUSH1 0x40 DUP4 ADD MLOAD DUP5 DUP3 SUB PUSH1 0x40 DUP7 ADD MSTORE PUSH2 0x2B28 DUP3 DUP3 PUSH2 0x2A6F JUMP JUMPDEST SWAP2 POP POP DUP1 SWAP2 POP POP SWAP3 SWAP2 POP POP JUMP JUMPDEST PUSH0 PUSH1 0xE0 DUP3 ADD SWAP1 POP PUSH2 0x2B48 PUSH0 DUP4 ADD DUP10 PUSH2 0x29C3 JUMP JUMPDEST PUSH2 0x2B55 PUSH1 0x20 DUP4 ADD DUP9 PUSH2 0x29C3 JUMP JUMPDEST PUSH2 0x2B62 PUSH1 0x40 DUP4 ADD DUP8 PUSH2 0x29F0 JUMP JUMPDEST DUP2 DUP2 SUB PUSH1 0x80 DUP4 ADD MSTORE PUSH2 0x2B74 DUP2 DUP7 PUSH2 0x2AA7 JUMP JUMPDEST SWAP1 POP DUP2 DUP2 SUB PUSH1 0xA0 DUP4 ADD MSTORE PUSH2 0x2B88 DUP2 DUP6 PUSH2 0x2AE1 JUMP JUMPDEST SWAP1 POP PUSH2 0x2B97 PUSH1 0xC0 DUP4 ADD DUP5 PUSH2 0x29C3 JUMP JUMPDEST SWAP8 SWAP7 POP POP POP POP POP POP POP JUMP JUMPDEST PUSH0 DUP2 ISZERO ISZERO SWAP1 POP SWAP2 SWAP1 POP JUMP JUMPDEST PUSH2 0x2BB6 DUP2 PUSH2 0x2BA2 JUMP JUMPDEST DUP3 MSTORE POP POP JUMP JUMPDEST PUSH0 PUSH1 0x20 DUP3 ADD SWAP1 POP PUSH2 0x2BCF PUSH0 DUP4 ADD DUP5 PUSH2 0x2BAD JUMP JUMPDEST SWAP3 SWAP2 POP POP JUMP JUMPDEST PUSH0 DUP1 REVERT JUMPDEST PUSH32 0x4E487B7100000000000000000000000000000000000000000000000000000000 PUSH0 MSTORE PUSH1 0x41 PUSH1 0x4 MSTORE PUSH1 0x24 PUSH0 REVERT JUMPDEST PUSH2 0x2C0F DUP3 PUSH2 0x2A5F JUMP JUMPDEST DUP2 ADD DUP2 DUP2 LT PUSH8 0xFFFFFFFFFFFFFFFF DUP3 GT OR ISZERO PUSH2 0x2C2E JUMPI PUSH2 0x2C2D PUSH2 0x2BD9 JUMP JUMPDEST JUMPDEST DUP1 PUSH1 0x40 MSTORE POP POP POP JUMP JUMPDEST PUSH0 PUSH2 0x2C40 PUSH2 0x288B JUMP JUMPDEST SWAP1 POP PUSH2 0x2C4C DUP3 DUP3 PUSH2 0x2C06 JUMP JUMPDEST SWAP2 SWAP1 POP JUMP JUMPDEST PUSH0 DUP1 REVERT JUMPDEST PUSH0 PUSH1 0x40 DUP3 DUP5 SUB SLT ISZERO PUSH2 0x2C6A JUMPI PUSH2 0x2C69 PUSH2 0x2BD5 JUMP JUMPDEST JUMPDEST PUSH2 0x2C74 PUSH1 0x40 PUSH2 0x2C37 JUMP JUMPDEST SWAP1 POP PUSH0 PUSH2 0x2C83 DUP5 DUP3 DUP6 ADD PUSH2 0x28BB JUMP JUMPDEST PUSH0 DUP4 ADD MSTORE POP PUSH1 0x20 PUSH2 0x2C96 DUP5 DUP3 DUP6 ADD PUSH2 0x2984 JUMP JUMPDEST PUSH1 0x20 DUP4 ADD MSTORE POP SWAP3 SWAP2 POP POP JUMP JUMPDEST PUSH0 DUP1 REVERT JUMPDEST PUSH0 DUP1 REVERT JUMPDEST PUSH0 PUSH8 0xFFFFFFFFFFFFFFFF DUP3 GT ISZERO PUSH2 0x2CC4 JUMPI PUSH2 0x2CC3 PUSH2 0x2BD9 JUMP JUMPDEST JUMPDEST PUSH2 0x2CCD DUP3 PUSH2 0x2A5F JUMP JUMPDEST SWAP1 POP PUSH1 0x20 DUP2 ADD SWAP1 POP SWAP2 SWAP1 POP JUMP JUMPDEST DUP3 DUP2 DUP4 CALLDATACOPY PUSH0 DUP4 DUP4 ADD MSTORE POP POP POP JUMP JUMPDEST PUSH0 PUSH2 0x2CFA PUSH2 0x2CF5 DUP5 PUSH2 0x2CAA JUMP JUMPDEST PUSH2 0x2C37 JUMP JUMPDEST SWAP1 POP DUP3 DUP2 MSTORE PUSH1 0x20 DUP2 ADD DUP5 DUP5 DUP5 ADD GT ISZERO PUSH2 0x2D16 JUMPI PUSH2 0x2D15 PUSH2 0x2CA6 JUMP JUMPDEST JUMPDEST PUSH2 0x2D21 DUP5 DUP3 DUP6 PUSH2 0x2CDA JUMP JUMPDEST POP SWAP4 SWAP3 POP POP POP JUMP JUMPDEST PUSH0 DUP3 PUSH1 0x1F DUP4 ADD SLT PUSH2 0x2D3D JUMPI PUSH2 0x2D3C PUSH2 0x2CA2 JUMP JUMPDEST JUMPDEST DUP2 CALLDATALOAD PUSH2 0x2D4D DUP5 DUP3 PUSH1 0x20 DUP7 ADD PUSH2 0x2CE8 JUMP JUMPDEST SWAP2 POP POP SWAP3 SWAP2 POP POP JUMP JUMPDEST PUSH0 PUSH1 0x40 DUP3 DUP5 SUB SLT ISZERO PUSH2 0x2D6B JUMPI PUSH2 0x2D6A PUSH2 0x2BD5 JUMP JUMPDEST JUMPDEST PUSH2 0x2D75 PUSH1 0x40 PUSH2 0x2C37 JUMP JUMPDEST SWAP1 POP PUSH0 PUSH2 0x2D84 DUP5 DUP3 DUP6 ADD PUSH2 0x28BB JUMP JUMPDEST PUSH0 DUP4 ADD MSTORE POP PUSH1 0x20 DUP3 ADD CALLDATALOAD PUSH8 0xFFFFFFFFFFFFFFFF DUP2 GT ISZERO PUSH2 0x2DA7 JUMPI PUSH2 0x2DA6 PUSH2 0x2C51 JUMP JUMPDEST JUMPDEST PUSH2 0x2DB3 DUP5 DUP3 DUP6 ADD PUSH2 0x2D29 JUMP JUMPDEST PUSH1 0x20 DUP4 ADD MSTORE POP SWAP3 SWAP2 POP POP JUMP JUMPDEST PUSH0 PUSH1 0x60 DUP3 DUP5 SUB SLT ISZERO PUSH2 0x2DD4 JUMPI PUSH2 0x2DD3 PUSH2 0x2BD5 JUMP JUMPDEST JUMPDEST PUSH2 0x2DDE PUSH1 0x60 PUSH2 0x2C37 JUMP JUMPDEST SWAP1 POP PUSH0 DUP3 ADD CALLDATALOAD PUSH8 0xFFFFFFFFFFFFFFFF DUP2 GT ISZERO PUSH2 0x2DFD JUMPI PUSH2 0x2DFC PUSH2 0x2C51 JUMP JUMPDEST JUMPDEST PUSH2 0x2E09 DUP5 DUP3 DUP6 ADD PUSH2 0x2D29 JUMP JUMPDEST PUSH0 DUP4 ADD MSTORE POP PUSH1 0x20 PUSH2 0x2E1C DUP5 DUP3 DUP6 ADD PUSH2 0x28BB JUMP JUMPDEST PUSH1 0x20 DUP4 ADD MSTORE POP PUSH1 0x40 DUP3 ADD CALLDATALOAD PUSH8 0xFFFFFFFFFFFFFFFF DUP2 GT ISZERO PUSH2 0x2E40 JUMPI PUSH2 0x2E3F PUSH2 0x2C51 JUMP JUMPDEST JUMPDEST PUSH2 0x2E4C DUP5 DUP3 DUP6 ADD PUSH2 0x2D29 JUMP JUMPDEST PUSH1 0x40 DUP4 ADD MSTORE POP SWAP3 SWAP2 POP POP JUMP JUMPDEST PUSH0 PUSH1 0xE0 DUP3 DUP5 SUB SLT ISZERO PUSH2 0x2E6D JUMPI PUSH2 0x2E6C PUSH2 0x2BD5 JUMP JUMPDEST JUMPDEST PUSH2 0x2E77 PUSH1 0xC0 PUSH2 0x2C37 JUMP JUMPDEST SWAP1 POP PUSH0 PUSH2 0x2E86 DUP5 DUP3 DUP6 ADD PUSH2 0x28BB JUMP JUMPDEST PUSH0 DUP4 ADD MSTORE POP PUSH1 0x20 PUSH2 0x2E99 DUP5 DUP3 DUP6 ADD PUSH2 0x28BB JUMP JUMPDEST PUSH1 0x20 DUP4 ADD MSTORE POP PUSH1 0x40 PUSH2 0x2EAD DUP5 DUP3 DUP6 ADD PUSH2 0x2C55 JUMP JUMPDEST PUSH1 0x40 DUP4 ADD MSTORE POP PUSH1 0x80 DUP3 ADD CALLDATALOAD PUSH8 0xFFFFFFFFFFFFFFFF DUP2 GT ISZERO PUSH2 0x2ED1 JUMPI PUSH2 0x2ED0 PUSH2 0x2C51 JUMP JUMPDEST JUMPDEST PUSH2 0x2EDD DUP5 DUP3 DUP6 ADD PUSH2 0x2D56 JUMP JUMPDEST PUSH1 0x60 DUP4 ADD MSTORE POP PUSH1 0xA0 DUP3 ADD CALLDATALOAD PUSH8 0xFFFFFFFFFFFFFFFF DUP2 GT ISZERO PUSH2 0x2F01 JUMPI PUSH2 0x2F00 PUSH2 0x2C51 JUMP JUMPDEST JUMPDEST PUSH2 0x2F0D DUP5 DUP3 DUP6 ADD PUSH2 0x2DBF JUMP JUMPDEST PUSH1 0x80 DUP4 ADD MSTORE POP PUSH1 0xC0 PUSH2 0x2F21 DUP5 DUP3 DUP6 ADD PUSH2 0x28BB JUMP JUMPDEST PUSH1 0xA0 DUP4 ADD MSTORE POP SWAP3 SWAP2 POP POP JUMP JUMPDEST PUSH0 PUSH1 0x20 DUP3 DUP5 SUB SLT ISZERO PUSH2 0x2F42 JUMPI PUSH2 0x2F41 PUSH2 0x2894 JUMP JUMPDEST JUMPDEST PUSH0 DUP3 ADD CALLDATALOAD PUSH8 0xFFFFFFFFFFFFFFFF DUP2 GT ISZERO PUSH2 0x2F5F JUMPI PUSH2 0x2F5E PUSH2 0x2898 JUMP JUMPDEST JUMPDEST PUSH2 0x2F6B DUP5 DUP3 DUP6 ADD PUSH2 0x2E58 JUMP JUMPDEST SWAP2 POP POP SWAP3 SWAP2 POP POP JUMP JUMPDEST PUSH0 PUSH1 0x20 DUP3 ADD SWAP1 POP PUSH2 0x2F87 PUSH0 DUP4 ADD DUP5 PUSH2 0x29C3 JUMP JUMPDEST SWAP3 SWAP2 POP POP JUMP JUMPDEST PUSH0 PUSH8 0xFFFFFFFFFFFFFFFF DUP3 GT ISZERO PUSH2 0x2FA7 JUMPI PUSH2 0x2FA6 PUSH2 0x2BD9 JUMP JUMPDEST JUMPDEST PUSH2 0x2FB0 DUP3 PUSH2 0x2A5F JUMP JUMPDEST SWAP1 POP PUSH1 0x20 DUP2 ADD SWAP1 POP SWAP2 SWAP1 POP JUMP JUMPDEST PUSH0 PUSH2 0x2FCF PUSH2 0x2FCA DUP5 PUSH2 0x2F8D JUMP JUMPDEST PUSH2 0x2C37 JUMP JUMPDEST SWAP1 POP DUP3 DUP2 MSTORE PUSH1 0x20 DUP2 ADD DUP5 DUP5 DUP5 ADD GT ISZERO PUSH2 0x2FEB JUMPI PUSH2 0x2FEA PUSH2 0x2CA6 JUMP JUMPDEST JUMPDEST PUSH2 0x2FF6 DUP5 DUP3 DUP6 PUSH2 0x2CDA JUMP JUMPDEST POP SWAP4 SWAP3 POP POP POP JUMP JUMPDEST PUSH0 DUP3 PUSH1 0x1F DUP4 ADD SLT PUSH2 0x3012 JUMPI PUSH2 0x3011 PUSH2 0x2CA2 JUMP JUMPDEST JUMPDEST DUP2 CALLDATALOAD PUSH2 0x3022 DUP5 DUP3 PUSH1 0x20 DUP7 ADD PUSH2 0x2FBD JUMP JUMPDEST SWAP2 POP POP SWAP3 SWAP2 POP POP JUMP JUMPDEST PUSH0 DUP1 PUSH1 0x40 DUP4 DUP6 SUB SLT ISZERO PUSH2 0x3041 JUMPI PUSH2 0x3040 PUSH2 0x2894 JUMP JUMPDEST JUMPDEST PUSH0 PUSH2 0x304E DUP6 DUP3 DUP7 ADD PUSH2 0x2984 JUMP JUMPDEST SWAP3 POP POP PUSH1 0x20 DUP4 ADD CALLDATALOAD PUSH8 0xFFFFFFFFFFFFFFFF DUP2 GT ISZERO PUSH2 0x306F JUMPI PUSH2 0x306E PUSH2 0x2898 JUMP JUMPDEST JUMPDEST PUSH2 0x307B DUP6 DUP3 DUP7 ADD PUSH2 0x2FFE JUMP JUMPDEST SWAP2 POP POP SWAP3 POP SWAP3 SWAP1 POP JUMP JUMPDEST PUSH0 PUSH1 0x20 DUP3 DUP5 SUB SLT ISZERO PUSH2 0x309A JUMPI PUSH2 0x3099 PUSH2 0x2894 JUMP JUMPDEST JUMPDEST PUSH0 PUSH2 0x30A7 DUP5 DUP3 DUP6 ADD PUSH2 0x28BB JUMP JUMPDEST SWAP2 POP POP SWAP3 SWAP2 POP POP JUMP JUMPDEST PUSH0 DUP3 DUP3 MSTORE PUSH1 0x20 DUP3 ADD SWAP1 POP SWAP3 SWAP2 POP POP JUMP JUMPDEST PUSH0 PUSH2 0x30CA DUP3 PUSH2 0x2A1D JUMP JUMPDEST PUSH2 0x30D4 DUP2 DUP6 PUSH2 0x30B0 JUMP JUMPDEST SWAP4 POP PUSH2 0x30E4 DUP2 DUP6 PUSH1 0x20 DUP7 ADD PUSH2 0x2A37 JUMP JUMPDEST PUSH2 0x30ED DUP2 PUSH2 0x2A5F JUMP JUMPDEST DUP5 ADD SWAP2 POP POP SWAP3 SWAP2 POP POP JUMP JUMPDEST PUSH0 PUSH1 0x40 DUP3 ADD SWAP1 POP PUSH2 0x310B PUSH0 DUP4 ADD DUP6 PUSH2 0x29C3 JUMP JUMPDEST DUP2 DUP2 SUB PUSH1 0x20 DUP4 ADD MSTORE PUSH2 0x311D DUP2 DUP5 PUSH2 0x30C0 JUMP JUMPDEST SWAP1 POP SWAP4 SWAP3 POP POP POP JUMP JUMPDEST PUSH0 PUSH8 0xFFFFFFFFFFFFFFFF DUP3 GT ISZERO PUSH2 0x3140 JUMPI PUSH2 0x313F PUSH2 0x2BD9 JUMP JUMPDEST JUMPDEST PUSH1 0x20 DUP3 MUL SWAP1 POP PUSH1 0x20 DUP2 ADD SWAP1 POP SWAP2 SWAP1 POP JUMP JUMPDEST PUSH0 DUP1 REVERT JUMPDEST PUSH0 PUSH1 0x60 DUP3 DUP5 SUB SLT ISZERO PUSH2 0x316A JUMPI PUSH2 0x3169 PUSH2 0x2BD5 JUMP JUMPDEST JUMPDEST PUSH2 0x3174 PUSH1 0x60 PUSH2 0x2C37 JUMP JUMPDEST SWAP1 POP PUSH0 PUSH2 0x3183 DUP5 DUP3 DUP6 ADD PUSH2 0x2984 JUMP JUMPDEST PUSH0 DUP4 ADD MSTORE POP PUSH1 0x20 PUSH2 0x3196 DUP5 DUP3 DUP6 ADD PUSH2 0x28BB JUMP JUMPDEST PUSH1 0x20 DUP4 ADD MSTORE POP PUSH1 0x40 PUSH2 0x31AA DUP5 DUP3 DUP6 ADD PUSH2 0x2984 JUMP JUMPDEST PUSH1 0x40 DUP4 ADD MSTORE POP SWAP3 SWAP2 POP POP JUMP JUMPDEST PUSH0 PUSH2 0x120 DUP3 DUP5 SUB SLT ISZERO PUSH2 0x31CC JUMPI PUSH2 0x31CB PUSH2 0x2BD5 JUMP JUMPDEST JUMPDEST PUSH2 0x31D6 PUSH1 0xC0 PUSH2 0x2C37 JUMP JUMPDEST SWAP1 POP PUSH0 PUSH2 0x31E5 DUP5 DUP3 DUP6 ADD PUSH2 0x28BB JUMP JUMPDEST PUSH0 DUP4 ADD MSTORE POP PUSH1 0x20 PUSH2 0x31F8 DUP5 DUP3 DUP6 ADD PUSH2 0x28BB JUMP JUMPDEST PUSH1 0x20 DUP4 ADD MSTORE POP PUSH1 0x40 DUP3 ADD CALLDATALOAD PUSH8 0xFFFFFFFFFFFFFFFF DUP2 GT ISZERO PUSH2 0x321C JUMPI PUSH2 0x321B PUSH2 0x2C51 JUMP JUMPDEST JUMPDEST PUSH2 0x3228 DUP5 DUP3 DUP6 ADD PUSH2 0x2D56 JUMP JUMPDEST PUSH1 0x40 DUP4 ADD MSTORE POP PUSH1 0x60 PUSH2 0x323C DUP5 DUP3 DUP6 ADD PUSH2 0x2C55 JUMP JUMPDEST PUSH1 0x60 DUP4 ADD MSTORE POP PUSH1 0xA0 PUSH2 0x3250 DUP5 DUP3 DUP6 ADD PUSH2 0x3155 JUMP JUMPDEST PUSH1 0x80 DUP4 ADD MSTORE POP PUSH2 0x100 PUSH2 0x3265 DUP5 DUP3 DUP6 ADD PUSH2 0x28BB JUMP JUMPDEST PUSH1 0xA0 DUP4 ADD MSTORE POP SWAP3 SWAP2 POP POP JUMP JUMPDEST PUSH0 PUSH2 0x3283 PUSH2 0x327E DUP5 PUSH2 0x3126 JUMP JUMPDEST PUSH2 0x2C37 JUMP JUMPDEST SWAP1 POP DUP1 DUP4 DUP3 MSTORE PUSH1 0x20 DUP3 ADD SWAP1 POP PUSH1 0x20 DUP5 MUL DUP4 ADD DUP6 DUP2 GT ISZERO PUSH2 0x32A6 JUMPI PUSH2 0x32A5 PUSH2 0x3151 JUMP JUMPDEST JUMPDEST DUP4 JUMPDEST DUP2 DUP2 LT ISZERO PUSH2 0x32ED JUMPI DUP1 CALLDATALOAD PUSH8 0xFFFFFFFFFFFFFFFF DUP2 GT ISZERO PUSH2 0x32CB JUMPI PUSH2 0x32CA PUSH2 0x2CA2 JUMP JUMPDEST JUMPDEST DUP1 DUP7 ADD PUSH2 0x32D8 DUP10 DUP3 PUSH2 0x31B6 JUMP JUMPDEST DUP6 MSTORE PUSH1 0x20 DUP6 ADD SWAP5 POP POP POP PUSH1 0x20 DUP2 ADD SWAP1 POP PUSH2 0x32A8 JUMP JUMPDEST POP POP POP SWAP4 SWAP3 POP POP POP JUMP JUMPDEST PUSH0 DUP3 PUSH1 0x1F DUP4 ADD SLT PUSH2 0x330B JUMPI PUSH2 0x330A PUSH2 0x2CA2 JUMP JUMPDEST JUMPDEST DUP2 CALLDATALOAD PUSH2 0x331B DUP5 DUP3 PUSH1 0x20 DUP7 ADD PUSH2 0x3271 JUMP JUMPDEST SWAP2 POP POP SWAP3 SWAP2 POP POP JUMP JUMPDEST PUSH0 PUSH1 0x20 DUP3 DUP5 SUB SLT ISZERO PUSH2 0x3339 JUMPI PUSH2 0x3338 PUSH2 0x2894 JUMP JUMPDEST JUMPDEST PUSH0 DUP3 ADD CALLDATALOAD PUSH8 0xFFFFFFFFFFFFFFFF DUP2 GT ISZERO PUSH2 0x3356 JUMPI PUSH2 0x3355 PUSH2 0x2898 JUMP JUMPDEST JUMPDEST PUSH2 0x3362 DUP5 DUP3 DUP6 ADD PUSH2 0x32F7 JUMP JUMPDEST SWAP2 POP POP SWAP3 SWAP2 POP POP JUMP JUMPDEST PUSH2 0x3374 DUP2 PUSH2 0x295D JUMP JUMPDEST DUP3 MSTORE POP POP JUMP JUMPDEST PUSH0 PUSH1 0x20 DUP3 ADD SWAP1 POP PUSH2 0x338D PUSH0 DUP4 ADD DUP5 PUSH2 0x336B JUMP JUMPDEST SWAP3 SWAP2 POP POP JUMP JUMPDEST PUSH0 DUP1 PUSH1 0x40 DUP4 DUP6 SUB SLT ISZERO PUSH2 0x33A9 JUMPI PUSH2 0x33A8 PUSH2 0x2894 JUMP JUMPDEST JUMPDEST PUSH0 PUSH2 0x33B6 DUP6 DUP3 DUP7 ADD PUSH2 0x2984 JUMP JUMPDEST SWAP3 POP POP PUSH1 0x20 PUSH2 0x33C7 DUP6 DUP3 DUP7 ADD PUSH2 0x28BB JUMP JUMPDEST SWAP2 POP POP SWAP3 POP SWAP3 SWAP1 POP JUMP JUMPDEST PUSH2 0x33DA DUP2 PUSH2 0x290D JUMP JUMPDEST DUP2 EQ PUSH2 0x33E4 JUMPI PUSH0 DUP1 REVERT JUMPDEST POP JUMP JUMPDEST PUSH0 DUP2 CALLDATALOAD SWAP1 POP PUSH2 0x33F5 DUP2 PUSH2 0x33D1 JUMP JUMPDEST SWAP3 SWAP2 POP POP JUMP JUMPDEST PUSH0 DUP1 PUSH1 0x40 DUP4 DUP6 SUB SLT ISZERO PUSH2 0x3411 JUMPI PUSH2 0x3410 PUSH2 0x2894 JUMP JUMPDEST JUMPDEST PUSH0 PUSH2 0x341E DUP6 DUP3 DUP7 ADD PUSH2 0x33E7 JUMP JUMPDEST SWAP3 POP POP PUSH1 0x20 PUSH2 0x342F DUP6 DUP3 DUP7 ADD PUSH2 0x2984 JUMP JUMPDEST SWAP2 POP POP SWAP3 POP SWAP3 SWAP1 POP JUMP JUMPDEST PUSH0 DUP1 PUSH1 0x40 DUP4 DUP6 SUB SLT ISZERO PUSH2 0x344F JUMPI PUSH2 0x344E PUSH2 0x2894 JUMP JUMPDEST JUMPDEST PUSH0 PUSH2 0x345C DUP6 DUP3 DUP7 ADD PUSH2 0x28BB JUMP JUMPDEST SWAP3 POP POP PUSH1 0x20 DUP4 ADD CALLDATALOAD PUSH8 0xFFFFFFFFFFFFFFFF DUP2 GT ISZERO PUSH2 0x347D JUMPI PUSH2 0x347C PUSH2 0x2898 JUMP JUMPDEST JUMPDEST PUSH2 0x3489 DUP6 DUP3 DUP7 ADD PUSH2 0x2D29 JUMP JUMPDEST SWAP2 POP POP SWAP3 POP SWAP3 SWAP1 POP JUMP JUMPDEST PUSH0 PUSH1 0x20 DUP3 DUP5 SUB SLT ISZERO PUSH2 0x34A8 JUMPI PUSH2 0x34A7 PUSH2 0x2894 JUMP JUMPDEST JUMPDEST PUSH0 PUSH2 0x34B5 DUP5 DUP3 DUP6 ADD PUSH2 0x33E7 JUMP JUMPDEST SWAP2 POP POP SWAP3 SWAP2 POP POP JUMP JUMPDEST PUSH0 PUSH1 0x20 DUP3 DUP5 SUB SLT ISZERO PUSH2 0x34D3 JUMPI PUSH2 0x34D2 PUSH2 0x2894 JUMP JUMPDEST JUMPDEST PUSH0 DUP3 ADD CALLDATALOAD PUSH8 0xFFFFFFFFFFFFFFFF DUP2 GT ISZERO PUSH2 0x34F0 JUMPI PUSH2 0x34EF PUSH2 0x2898 JUMP JUMPDEST JUMPDEST PUSH2 0x34FC DUP5 DUP3 DUP6 ADD PUSH2 0x31B6 JUMP JUMPDEST SWAP2 POP POP SWAP3 SWAP2 POP POP JUMP JUMPDEST PUSH32 0x4E487B7100000000000000000000000000000000000000000000000000000000 PUSH0 MSTORE PUSH1 0x11 PUSH1 0x4 MSTORE PUSH1 0x24 PUSH0 REVERT JUMPDEST PUSH0 PUSH2 0x353C DUP3 PUSH2 0x289C JUMP JUMPDEST SWAP2 POP PUSH2 0x3547 DUP4 PUSH2 0x289C JUMP JUMPDEST SWAP3 POP DUP3 DUP3 MUL PUSH2 0x3555 DUP2 PUSH2 0x289C JUMP JUMPDEST SWAP2 POP DUP3 DUP3 DIV DUP5 EQ DUP4 ISZERO OR PUSH2 0x356C JUMPI PUSH2 0x356B PUSH2 0x3505 JUMP JUMPDEST JUMPDEST POP SWAP3 SWAP2 POP POP JUMP JUMPDEST PUSH32 0x4E6F74206F776E65720000000000000000000000000000000000000000000000 PUSH0 DUP3 ADD MSTORE POP JUMP JUMPDEST PUSH0 PUSH2 0x35A7 PUSH1 0x9 DUP4 PUSH2 0x30B0 JUMP JUMPDEST SWAP2 POP PUSH2 0x35B2 DUP3 PUSH2 0x3573 JUMP JUMPDEST PUSH1 0x20 DUP3 ADD SWAP1 POP SWAP2 SWAP1 POP JUMP JUMPDEST PUSH0 PUSH1 0x20 DUP3 ADD SWAP1 POP DUP2 DUP2 SUB PUSH0 DUP4 ADD MSTORE PUSH2 0x35D4 DUP2 PUSH2 0x359B JUMP JUMPDEST SWAP1 POP SWAP2 SWAP1 POP JUMP JUMPDEST PUSH32 0x556E6B6E6F776E20546F6B656E20536572766963650000000000000000000000 PUSH0 DUP3 ADD MSTORE POP JUMP JUMPDEST PUSH0 PUSH2 0x360F PUSH1 0x15 DUP4 PUSH2 0x30B0 JUMP JUMPDEST SWAP2 POP PUSH2 0x361A DUP3 PUSH2 0x35DB JUMP JUMPDEST PUSH1 0x20 DUP3 ADD SWAP1 POP SWAP2 SWAP1 POP JUMP JUMPDEST PUSH0 PUSH1 0x20 DUP3 ADD SWAP1 POP DUP2 DUP2 SUB PUSH0 DUP4 ADD MSTORE PUSH2 0x363C DUP2 PUSH2 0x3603 JUMP JUMPDEST SWAP1 POP SWAP2 SWAP1 POP JUMP JUMPDEST PUSH32 0x4E487B7100000000000000000000000000000000000000000000000000000000 PUSH0 MSTORE PUSH1 0x22 PUSH1 0x4 MSTORE PUSH1 0x24 PUSH0 REVERT JUMPDEST PUSH0 PUSH1 0x2 DUP3 DIV SWAP1 POP PUSH1 0x1 DUP3 AND DUP1 PUSH2 0x3687 JUMPI PUSH1 0x7F DUP3 AND SWAP2 POP JUMPDEST PUSH1 0x20 DUP3 LT DUP2 SUB PUSH2 0x369A JUMPI PUSH2 0x3699 PUSH2 0x3643 JUMP JUMPDEST JUMPDEST POP SWAP2 SWAP1 POP JUMP JUMPDEST PUSH32 0x46756E6374696F6E206D7573742062652063616C6C6564207468726F75676820 PUSH0 DUP3 ADD MSTORE PUSH32 0x64656C656761746563616C6C0000000000000000000000000000000000000000 PUSH1 0x20 DUP3 ADD MSTORE POP JUMP JUMPDEST PUSH0 PUSH2 0x36FA PUSH1 0x2C DUP4 PUSH2 0x30B0 JUMP JUMPDEST SWAP2 POP PUSH2 0x3705 DUP3 PUSH2 0x36A0 JUMP JUMPDEST PUSH1 0x40 DUP3 ADD SWAP1 POP SWAP2 SWAP1 POP JUMP JUMPDEST PUSH0 PUSH1 0x20 DUP3 ADD SWAP1 POP DUP2 DUP2 SUB PUSH0 DUP4 ADD MSTORE PUSH2 0x3727 DUP2 PUSH2 0x36EE JUMP JUMPDEST SWAP1 POP SWAP2 SWAP1 POP JUMP JUMPDEST PUSH32 0x46756E6374696F6E206D7573742062652063616C6C6564207468726F75676820 PUSH0 DUP3 ADD MSTORE PUSH32 0x6163746976652070726F78790000000000000000000000000000000000000000 PUSH1 0x20 DUP3 ADD MSTORE POP JUMP JUMPDEST PUSH0 PUSH2 0x3788 PUSH1 0x2C DUP4 PUSH2 0x30B0 JUMP JUMPDEST SWAP2 POP PUSH2 0x3793 DUP3 PUSH2 0x372E JUMP JUMPDEST PUSH1 0x40 DUP3 ADD SWAP1 POP SWAP2 SWAP1 POP JUMP JUMPDEST PUSH0 PUSH1 0x20 DUP3 ADD SWAP1 POP DUP2 DUP2 SUB PUSH0 DUP4 ADD MSTORE PUSH2 0x37B5 DUP2 PUSH2 0x377C JUMP JUMPDEST SWAP1 POP SWAP2 SWAP1 POP JUMP JUMPDEST PUSH1 0x40 DUP3 ADD PUSH0 DUP3 ADD MLOAD PUSH2 0x37D0 PUSH0 DUP6 ADD DUP3 PUSH2 0x29D2 JUMP JUMPDEST POP PUSH1 0x20 DUP3 ADD MLOAD PUSH2 0x37E3 PUSH1 0x20 DUP6 ADD DUP3 PUSH2 0x29E1 JUMP JUMPDEST POP POP POP POP JUMP JUMPDEST PUSH0 PUSH1 0x40 DUP4 ADD PUSH0 DUP4 ADD MLOAD PUSH2 0x37FE PUSH0 DUP7 ADD DUP3 PUSH2 0x29D2 JUMP JUMPDEST POP PUSH1 0x20 DUP4 ADD MLOAD DUP5 DUP3 SUB PUSH1 0x20 DUP7 ADD MSTORE PUSH2 0x3816 DUP3 DUP3 PUSH2 0x2A6F JUMP JUMPDEST SWAP2 POP POP DUP1 SWAP2 POP POP SWAP3 SWAP2 POP POP JUMP JUMPDEST PUSH0 PUSH1 0x60 DUP4 ADD PUSH0 DUP4 ADD MLOAD DUP5 DUP3 SUB PUSH0 DUP7 ADD MSTORE PUSH2 0x383D DUP3 DUP3 PUSH2 0x2A6F JUMP JUMPDEST SWAP2 POP POP PUSH1 0x20 DUP4 ADD MLOAD PUSH2 0x3852 PUSH1 0x20 DUP7 ADD DUP3 PUSH2 0x29D2 JUMP JUMPDEST POP PUSH1 0x40 DUP4 ADD MLOAD DUP5 DUP3 SUB PUSH1 0x40 DUP7 ADD MSTORE PUSH2 0x386A DUP3 DUP3 PUSH2 0x2A6F JUMP JUMPDEST SWAP2 POP POP DUP1 SWAP2 POP POP SWAP3 SWAP2 POP POP JUMP JUMPDEST PUSH0 PUSH1 0xE0 DUP4 ADD PUSH0 DUP4 ADD MLOAD PUSH2 0x388C PUSH0 DUP7 ADD DUP3 PUSH2 0x29D2 JUMP JUMPDEST POP PUSH1 0x20 DUP4 ADD MLOAD PUSH2 0x389F PUSH1 0x20 DUP7 ADD DUP3 PUSH2 0x29D2 JUMP JUMPDEST POP PUSH1 0x40 DUP4 ADD MLOAD PUSH2 0x38B2 PUSH1 0x40 DUP7 ADD DUP3 PUSH2 0x37BC JUMP JUMPDEST POP PUSH1 0x60 DUP4 ADD MLOAD DUP5 DUP3 SUB PUSH1 0x80 DUP7 ADD MSTORE PUSH2 0x38CA DUP3 DUP3 PUSH2 0x37E9 JUMP JUMPDEST SWAP2 POP POP PUSH1 0x80 DUP4 ADD MLOAD DUP5 DUP3 SUB PUSH1 0xA0 DUP7 ADD MSTORE PUSH2 0x38E4 DUP3 DUP3 PUSH2 0x3823 JUMP JUMPDEST SWAP2 POP POP PUSH1 0xA0 DUP4 ADD MLOAD PUSH2 0x38F9 PUSH1 0xC0 DUP7 ADD DUP3 PUSH2 0x29D2 JUMP JUMPDEST POP DUP1 SWAP2 POP POP SWAP3 SWAP2 POP POP JUMP JUMPDEST PUSH0 PUSH1 0x20 DUP3 ADD SWAP1 POP DUP2 DUP2 SUB PUSH0 DUP4 ADD MSTORE PUSH2 0x391C DUP2 DUP5 PUSH2 0x3877 JUMP JUMPDEST SWAP1 POP SWAP3 SWAP2 POP POP JUMP JUMPDEST PUSH32 0x555550535570677261646561626C653A206D757374206E6F742062652063616C PUSH0 DUP3 ADD MSTORE PUSH32 0x6C6564207468726F7567682064656C656761746563616C6C0000000000000000 PUSH1 0x20 DUP3 ADD MSTORE POP JUMP JUMPDEST PUSH0 PUSH2 0x397E PUSH1 0x38 DUP4 PUSH2 0x30B0 JUMP JUMPDEST SWAP2 POP PUSH2 0x3989 DUP3 PUSH2 0x3924 JUMP JUMPDEST PUSH1 0x40 DUP3 ADD SWAP1 POP SWAP2 SWAP1 POP JUMP JUMPDEST PUSH0 PUSH1 0x20 DUP3 ADD SWAP1 POP DUP2 DUP2 SUB PUSH0 DUP4 ADD MSTORE PUSH2 0x39AB DUP2 PUSH2 0x3972 JUMP JUMPDEST SWAP1 POP SWAP2 SWAP1 POP JUMP JUMPDEST PUSH32 0x4E487B7100000000000000000000000000000000000000000000000000000000 PUSH0 MSTORE PUSH1 0x32 PUSH1 0x4 MSTORE PUSH1 0x24 PUSH0 REVERT JUMPDEST PUSH0 PUSH1 0x40 DUP3 ADD SWAP1 POP PUSH2 0x39F2 PUSH0 DUP4 ADD DUP6 PUSH2 0x336B JUMP JUMPDEST PUSH2 0x39FF PUSH1 0x20 DUP4 ADD DUP5 PUSH2 0x29C3 JUMP JUMPDEST SWAP4 SWAP3 POP POP POP JUMP JUMPDEST PUSH32 0x436861696E20616C726561647920737570706F72746564000000000000000000 PUSH0 DUP3 ADD MSTORE POP JUMP JUMPDEST PUSH0 PUSH2 0x3A3A PUSH1 0x17 DUP4 PUSH2 0x30B0 JUMP JUMPDEST SWAP2 POP PUSH2 0x3A45 DUP3 PUSH2 0x3A06 JUMP JUMPDEST PUSH1 0x20 DUP3 ADD SWAP1 POP SWAP2 SWAP1 POP JUMP JUMPDEST PUSH0 PUSH1 0x20 DUP3 ADD SWAP1 POP DUP2 DUP2 SUB PUSH0 DUP4 ADD MSTORE PUSH2 0x3A67 DUP2 PUSH2 0x3A2E JUMP JUMPDEST SWAP1 POP SWAP2 SWAP1 POP JUMP JUMPDEST PUSH0 DUP2 SWAP1 POP DUP2 PUSH0 MSTORE PUSH1 0x20 PUSH0 KECCAK256 SWAP1 POP SWAP2 SWAP1 POP JUMP JUMPDEST PUSH0 PUSH1 0x20 PUSH1 0x1F DUP4 ADD DIV SWAP1 POP SWAP2 SWAP1 POP JUMP JUMPDEST PUSH0 DUP3 DUP3 SHL SWAP1 POP SWAP3 SWAP2 POP POP JUMP JUMPDEST PUSH0 PUSH1 0x8 DUP4 MUL PUSH2 0x3ACA PUSH32 0xFFFFFFFFFFFFFFFFFFFFFFFFFFFFFFFFFFFFFFFFFFFFFFFFFFFFFFFFFFFFFFFF DUP3 PUSH2 0x3A8F JUMP JUMPDEST PUSH2 0x3AD4 DUP7 DUP4 PUSH2 0x3A8F JUMP JUMPDEST SWAP6 POP DUP1 NOT DUP5 AND SWAP4 POP DUP1 DUP7 AND DUP5 OR SWAP3 POP POP POP SWAP4 SWAP3 POP POP POP JUMP JUMPDEST PUSH0 DUP2 SWAP1 POP SWAP2 SWAP1 POP JUMP JUMPDEST PUSH0 PUSH2 0x3B0F PUSH2 0x3B0A PUSH2 0x3B05 DUP5 PUSH2 0x289C JUMP JUMPDEST PUSH2 0x3AEC JUMP JUMPDEST PUSH2 0x289C JUMP JUMPDEST SWAP1 POP SWAP2 SWAP1 POP JUMP JUMPDEST PUSH0 DUP2 SWAP1 POP SWAP2 SWAP1 POP JUMP JUMPDEST PUSH2 0x3B28 DUP4 PUSH2 0x3AF5 JUMP JUMPDEST PUSH2 0x3B3C PUSH2 0x3B34 DUP3 PUSH2 0x3B16 JUMP JUMPDEST DUP5 DUP5 SLOAD PUSH2 0x3A9B JUMP JUMPDEST DUP3 SSTORE POP POP POP POP JUMP JUMPDEST PUSH0 SWAP1 JUMP JUMPDEST PUSH2 0x3B50 PUSH2 0x3B44 JUMP JUMPDEST PUSH2 0x3B5B DUP2 DUP5 DUP5 PUSH2 0x3B1F JUMP JUMPDEST POP POP POP JUMP JUMPDEST JUMPDEST DUP2 DUP2 LT ISZERO PUSH2 0x3B7E JUMPI PUSH2 0x3B73 PUSH0 DUP3 PUSH2 0x3B48 JUMP JUMPDEST PUSH1 0x1 DUP2 ADD SWAP1 POP PUSH2 0x3B61 JUMP JUMPDEST POP POP JUMP JUMPDEST PUSH1 0x1F DUP3 GT ISZERO PUSH2 0x3BC3 JUMPI PUSH2 0x3B94 DUP2 PUSH2 0x3A6E JUMP JUMPDEST PUSH2 0x3B9D DUP5 PUSH2 0x3A80 JUMP JUMPDEST DUP2 ADD PUSH1 0x20 DUP6 LT ISZERO PUSH2 0x3BAC JUMPI DUP2 SWAP1 POP JUMPDEST PUSH2 0x3BC0 PUSH2 0x3BB8 DUP6 PUSH2 0x3A80 JUMP JUMPDEST DUP4 ADD DUP3 PUSH2 0x3B60 JUMP JUMPDEST POP POP JUMPDEST POP POP POP JUMP JUMPDEST PUSH0 DUP3 DUP3 SHR SWAP1 POP SWAP3 SWAP2 POP POP JUMP JUMPDEST PUSH0 PUSH2 0x3BE3 PUSH0 NOT DUP5 PUSH1 0x8 MUL PUSH2 0x3BC8 JUMP JUMPDEST NOT DUP1 DUP4 AND SWAP2 POP POP SWAP3 SWAP2 POP POP JUMP JUMPDEST PUSH0 PUSH2 0x3BFB DUP4 DUP4 PUSH2 0x3BD4 JUMP JUMPDEST SWAP2 POP DUP3 PUSH1 0x2 MUL DUP3 OR SWAP1 POP SWAP3 SWAP2 POP POP JUMP JUMPDEST PUSH2 0x3C14 DUP3 PUSH2 0x2A1D JUMP JUMPDEST PUSH8 0xFFFFFFFFFFFFFFFF DUP2 GT ISZERO PUSH2 0x3C2D JUMPI PUSH2 0x3C2C PUSH2 0x2BD9 JUMP JUMPDEST JUMPDEST PUSH2 0x3C37 DUP3 SLOAD PUSH2 0x3670 JUMP JUMPDEST PUSH2 0x3C42 DUP3 DUP3 DUP6 PUSH2 0x3B82 JUMP JUMPDEST PUSH0 PUSH1 0x20 SWAP1 POP PUSH1 0x1F DUP4 GT PUSH1 0x1 DUP2 EQ PUSH2 0x3C73 JUMPI PUSH0 DUP5 ISZERO PUSH2 0x3C61 JUMPI DUP3 DUP8 ADD MLOAD SWAP1 POP JUMPDEST PUSH2 0x3C6B DUP6 DUP3 PUSH2 0x3BF0 JUMP JUMPDEST DUP7 SSTORE POP PUSH2 0x3CD2 JUMP JUMPDEST PUSH1 0x1F NOT DUP5 AND PUSH2 0x3C81 DUP7 PUSH2 0x3A6E JUMP JUMPDEST PUSH0 JUMPDEST DUP3 DUP2 LT ISZERO PUSH2 0x3CA8 JUMPI DUP5 DUP10 ADD MLOAD DUP3 SSTORE PUSH1 0x1 DUP3 ADD SWAP2 POP PUSH1 0x20 DUP6 ADD SWAP5 POP PUSH1 0x20 DUP2 ADD SWAP1 POP PUSH2 0x3C83 JUMP JUMPDEST DUP7 DUP4 LT ISZERO PUSH2 0x3CC5 JUMPI DUP5 DUP10 ADD MLOAD PUSH2 0x3CC1 PUSH1 0x1F DUP10 AND DUP3 PUSH2 0x3BD4 JUMP JUMPDEST DUP4 SSTORE POP JUMPDEST PUSH1 0x1 PUSH1 0x2 DUP9 MUL ADD DUP9 SSTORE POP POP POP JUMPDEST POP POP POP POP POP POP JUMP JUMPDEST PUSH0 DUP2 PUSH0 SHR SWAP1 POP SWAP2 SWAP1 POP JUMP JUMPDEST PUSH0 DUP2 SWAP1 POP SWAP2 SWAP1 POP JUMP JUMPDEST PUSH0 PUSH2 0x3D00 PUSH2 0x3CFB DUP4 PUSH2 0x3CDA JUMP JUMPDEST PUSH2 0x3CE5 JUMP JUMPDEST SWAP1 POP SWAP2 SWAP1 POP JUMP JUMPDEST PUSH0 DUP2 SLOAD PUSH2 0x3D13 DUP2 PUSH2 0x3670 JUMP JUMPDEST PUSH2 0x3D1D DUP2 DUP7 PUSH2 0x2A27 JUMP JUMPDEST SWAP5 POP PUSH1 0x1 DUP3 AND PUSH0 DUP2 EQ PUSH2 0x3D37 JUMPI PUSH1 0x1 DUP2 EQ PUSH2 0x3D4D JUMPI PUSH2 0x3D7F JUMP JUMPDEST PUSH1 0xFF NOT DUP4 AND DUP7 MSTORE DUP2 ISZERO ISZERO PUSH1 0x20 MUL DUP7 ADD SWAP4 POP PUSH2 0x3D7F JUMP JUMPDEST PUSH2 0x3D56 DUP6 PUSH2 0x3A6E JUMP JUMPDEST PUSH0 JUMPDEST DUP4 DUP2 LT ISZERO PUSH2 0x3D77 JUMPI DUP2 SLOAD DUP2 DUP10 ADD MSTORE PUSH1 0x1 DUP3 ADD SWAP2 POP PUSH1 0x20 DUP2 ADD SWAP1 POP PUSH2 0x3D58 JUMP JUMPDEST DUP1 DUP9 ADD SWAP6 POP POP POP JUMPDEST POP POP POP SWAP3 SWAP2 POP POP JUMP JUMPDEST PUSH0 PUSH1 0x40 DUP4 ADD PUSH0 DUP1 DUP5 ADD SLOAD SWAP1 POP PUSH2 0x3D9D DUP2 PUSH2 0x3CEE JUMP JUMPDEST PUSH2 0x3DA9 PUSH0 DUP8 ADD DUP3 PUSH2 0x29D2 JUMP JUMPDEST POP PUSH1 0x1 DUP5 ADD DUP6 DUP4 SUB PUSH1 0x20 DUP8 ADD MSTORE PUSH2 0x3DC0 DUP4 DUP3 PUSH2 0x3D07 JUMP JUMPDEST SWAP3 POP POP DUP2 SWAP3 POP POP POP SWAP3 SWAP2 POP POP JUMP JUMPDEST PUSH0 PUSH1 0x20 DUP3 ADD SWAP1 POP DUP2 DUP2 SUB PUSH0 DUP4 ADD MSTORE PUSH2 0x3DE6 DUP2 DUP5 PUSH2 0x3D88 JUMP JUMPDEST SWAP1 POP SWAP3 SWAP2 POP POP JUMP JUMPDEST PUSH32 0x496E697469616C697A61626C653A20636F6E747261637420697320616C726561 PUSH0 DUP3 ADD MSTORE PUSH32 0x647920696E697469616C697A6564000000000000000000000000000000000000 PUSH1 0x20 DUP3 ADD MSTORE POP JUMP JUMPDEST PUSH0 PUSH2 0x3E48 PUSH1 0x2E DUP4 PUSH2 0x30B0 JUMP JUMPDEST SWAP2 POP PUSH2 0x3E53 DUP3 PUSH2 0x3DEE JUMP JUMPDEST PUSH1 0x40 DUP3 ADD SWAP1 POP SWAP2 SWAP1 POP JUMP JUMPDEST PUSH0 PUSH1 0x20 DUP3 ADD SWAP1 POP DUP2 DUP2 SUB PUSH0 DUP4 ADD MSTORE PUSH2 0x3E75 DUP2 PUSH2 0x3E3C JUMP JUMPDEST SWAP1 POP SWAP2 SWAP1 POP JUMP JUMPDEST PUSH0 DUP2 SWAP1 POP SWAP2 SWAP1 POP JUMP JUMPDEST PUSH0 PUSH1 0xFF DUP3 AND SWAP1 POP SWAP2 SWAP1 POP JUMP JUMPDEST PUSH0 PUSH2 0x3EAB PUSH2 0x3EA6 PUSH2 0x3EA1 DUP5 PUSH2 0x3E7C JUMP JUMPDEST PUSH2 0x3AEC JUMP JUMPDEST PUSH2 0x3E85 JUMP JUMPDEST SWAP1 POP SWAP2 SWAP1 POP JUMP JUMPDEST PUSH2 0x3EBB DUP2 PUSH2 0x3E91 JUMP JUMPDEST DUP3 MSTORE POP POP JUMP JUMPDEST PUSH0 PUSH1 0x20 DUP3 ADD SWAP1 POP PUSH2 0x3ED4 PUSH0 DUP4 ADD DUP5 PUSH2 0x3EB2 JUMP JUMPDEST SWAP3 SWAP2 POP POP JUMP JUMPDEST PUSH32 0x556E6B6E6F776E20636861696E49640000000000000000000000000000000000 PUSH0 DUP3 ADD MSTORE POP JUMP JUMPDEST PUSH0 PUSH2 0x3F0E PUSH1 0xF DUP4 PUSH2 0x30B0 JUMP JUMPDEST SWAP2 POP PUSH2 0x3F19 DUP3 PUSH2 0x3EDA JUMP JUMPDEST PUSH1 0x20 DUP3 ADD SWAP1 POP SWAP2 SWAP1 POP JUMP JUMPDEST PUSH0 PUSH1 0x20 DUP3 ADD SWAP1 POP DUP2 DUP2 SUB PUSH0 DUP4 ADD MSTORE PUSH2 0x3F3B DUP2 PUSH2 0x3F02 JUMP JUMPDEST SWAP1 POP SWAP2 SWAP1 POP JUMP JUMPDEST PUSH32 0x5A65726F20416464726573730000000000000000000000000000000000000000 PUSH0 DUP3 ADD MSTORE POP JUMP JUMPDEST PUSH0 PUSH2 0x3F76 PUSH1 0xC DUP4 PUSH2 0x30B0 JUMP JUMPDEST SWAP2 POP PUSH2 0x3F81 DUP3 PUSH2 0x3F42 JUMP JUMPDEST PUSH1 0x20 DUP3 ADD SWAP1 POP SWAP2 SWAP1 POP JUMP JUMPDEST PUSH0 PUSH1 0x20 DUP3 ADD SWAP1 POP DUP2 DUP2 SUB PUSH0 DUP4 ADD MSTORE PUSH2 0x3FA3 DUP2 PUSH2 0x3F6A JUMP JUMPDEST SWAP1 POP SWAP2 SWAP1 POP JUMP JUMPDEST PUSH32 0x546F6B656E205365727669636520616C72656164792061646465640000000000 PUSH0 DUP3 ADD MSTORE POP JUMP JUMPDEST PUSH0 PUSH2 0x3FDE PUSH1 0x1B DUP4 PUSH2 0x30B0 JUMP JUMPDEST SWAP2 POP PUSH2 0x3FE9 DUP3 PUSH2 0x3FAA JUMP JUMPDEST PUSH1 0x20 DUP3 ADD SWAP1 POP SWAP2 SWAP1 POP JUMP JUMPDEST PUSH0 PUSH1 0x20 DUP3 ADD SWAP1 POP DUP2 DUP2 SUB PUSH0 DUP4 ADD MSTORE PUSH2 0x400B DUP2 PUSH2 0x3FD2 JUMP JUMPDEST SWAP1 POP SWAP2 SWAP1 POP JUMP JUMPDEST PUSH32 0x556E6B6E6F776E205061636B6574000000000000000000000000000000000000 PUSH0 DUP3 ADD MSTORE POP JUMP JUMPDEST PUSH0 PUSH2 0x4046 PUSH1 0xE DUP4 PUSH2 0x30B0 JUMP JUMPDEST SWAP2 POP PUSH2 0x4051 DUP3 PUSH2 0x4012 JUMP JUMPDEST PUSH1 0x20 DUP3 ADD SWAP1 POP SWAP2 SWAP1 POP JUMP JUMPDEST PUSH0 PUSH1 0x20 DUP3 ADD SWAP1 POP DUP2 DUP2 SUB PUSH0 DUP4 ADD MSTORE PUSH2 0x4073 DUP2 PUSH2 0x403A JUMP JUMPDEST SWAP1 POP SWAP2 SWAP1 POP JUMP JUMPDEST PUSH0 DUP2 MLOAD SWAP1 POP PUSH2 0x4088 DUP2 PUSH2 0x33D1 JUMP JUMPDEST SWAP3 SWAP2 POP POP JUMP JUMPDEST PUSH0 PUSH1 0x20 DUP3 DUP5 SUB SLT ISZERO PUSH2 0x40A3 JUMPI PUSH2 0x40A2 PUSH2 0x2894 JUMP JUMPDEST JUMPDEST PUSH0 PUSH2 0x40B0 DUP5 DUP3 DUP6 ADD PUSH2 0x407A JUMP JUMPDEST SWAP2 POP POP SWAP3 SWAP2 POP POP JUMP JUMPDEST PUSH32 0x45524331393637557067726164653A206E657720696D706C656D656E74617469 PUSH0 DUP3 ADD MSTORE PUSH32 0x6F6E206973206E6F742055555053000000000000000000000000000000000000 PUSH1 0x20 DUP3 ADD MSTORE POP JUMP JUMPDEST PUSH0 PUSH2 0x4113 PUSH1 0x2E DUP4 PUSH2 0x30B0 JUMP JUMPDEST SWAP2 POP PUSH2 0x411E DUP3 PUSH2 0x40B9 JUMP JUMPDEST PUSH1 0x40 DUP3 ADD SWAP1 POP SWAP2 SWAP1 POP JUMP JUMPDEST PUSH0 PUSH1 0x20 DUP3 ADD SWAP1 POP DUP2 DUP2 SUB PUSH0 DUP4 ADD MSTORE PUSH2 0x4140 DUP2 PUSH2 0x4107 JUMP JUMPDEST SWAP1 POP SWAP2 SWAP1 POP JUMP JUMPDEST PUSH32 0x45524331393637557067726164653A20756E737570706F727465642070726F78 PUSH0 DUP3 ADD MSTORE PUSH32 0x6961626C65555549440000000000000000000000000000000000000000000000 PUSH1 0x20 DUP3 ADD MSTORE POP JUMP JUMPDEST PUSH0 PUSH2 0x41A1 PUSH1 0x29 DUP4 PUSH2 0x30B0 JUMP JUMPDEST SWAP2 POP PUSH2 0x41AC DUP3 PUSH2 0x4147 JUMP JUMPDEST PUSH1 0x40 DUP3 ADD SWAP1 POP SWAP2 SWAP1 POP JUMP JUMPDEST PUSH0 PUSH1 0x20 DUP3 ADD SWAP1 POP DUP2 DUP2 SUB PUSH0 DUP4 ADD MSTORE PUSH2 0x41CE DUP2 PUSH2 0x4195 JUMP JUMPDEST SWAP1 POP SWAP2 SWAP1 POP JUMP JUMPDEST PUSH32 0x556E6B6E6F776E2064657374696E6174696F6E20636861696E00000000000000 PUSH0 DUP3 ADD MSTORE POP JUMP JUMPDEST PUSH0 PUSH2 0x4209 PUSH1 0x19 DUP4 PUSH2 0x30B0 JUMP JUMPDEST SWAP2 POP PUSH2 0x4214 DUP3 PUSH2 0x41D5 JUMP JUMPDEST PUSH1 0x20 DUP3 ADD SWAP1 POP SWAP2 SWAP1 POP JUMP JUMPDEST PUSH0 PUSH1 0x20 DUP3 ADD SWAP1 POP DUP2 DUP2 SUB PUSH0 DUP4 ADD MSTORE PUSH2 0x4236 DUP2 PUSH2 0x41FD JUMP JUMPDEST SWAP1 POP SWAP2 SWAP1 POP JUMP JUMPDEST PUSH0 PUSH2 0x4247 DUP3 PUSH2 0x289C JUMP JUMPDEST SWAP2 POP PUSH2 0x4252 DUP4 PUSH2 0x289C JUMP JUMPDEST SWAP3 POP DUP3 DUP3 ADD SWAP1 POP DUP1 DUP3 GT ISZERO PUSH2 0x426A JUMPI PUSH2 0x4269 PUSH2 0x3505 JUMP JUMPDEST JUMPDEST SWAP3 SWAP2 POP POP JUMP JUMPDEST PUSH32 0x556E6B6E6F776E204174746573746F7200000000000000000000000000000000 PUSH0 DUP3 ADD MSTORE POP JUMP JUMPDEST PUSH0 PUSH2 0x42A4 PUSH1 0x10 DUP4 PUSH2 0x30B0 JUMP JUMPDEST SWAP2 POP PUSH2 0x42AF DUP3 PUSH2 0x4270 JUMP JUMPDEST PUSH1 0x20 DUP3 ADD SWAP1 POP SWAP2 SWAP1 POP JUMP JUMPDEST PUSH0 PUSH1 0x20 DUP3 ADD SWAP1 POP DUP2 DUP2 SUB PUSH0 DUP4 ADD MSTORE PUSH2 0x42D1 DUP2 PUSH2 0x4298 JUMP JUMPDEST SWAP1 POP SWAP2 SWAP1 POP JUMP JUMPDEST PUSH0 DUP2 SWAP1 POP SWAP2 SWAP1 POP JUMP JUMPDEST PUSH2 0x42F2 PUSH2 0x42ED DUP3 PUSH2 0x289C JUMP JUMPDEST PUSH2 0x42D8 JUMP JUMPDEST DUP3 MSTORE POP POP JUMP JUMPDEST PUSH0 DUP2 SWAP1 POP SWAP3 SWAP2 POP POP JUMP JUMPDEST PUSH0 PUSH2 0x430C DUP3 PUSH2 0x2A1D JUMP JUMPDEST PUSH2 0x4316 DUP2 DUP6 PUSH2 0x42F8 JUMP JUMPDEST SWAP4 POP PUSH2 0x4326 DUP2 DUP6 PUSH1 0x20 DUP7 ADD PUSH2 0x2A37 JUMP JUMPDEST DUP1 DUP5 ADD SWAP2 POP POP SWAP3 SWAP2 POP POP JUMP JUMPDEST PUSH0 DUP2 PUSH1 0x60 SHL SWAP1 POP SWAP2 SWAP1 POP JUMP JUMPDEST PUSH0 PUSH2 0x4348 DUP3 PUSH2 0x4332 JUMP JUMPDEST SWAP1 POP SWAP2 SWAP1 POP JUMP JUMPDEST PUSH0 PUSH2 0x4359 DUP3 PUSH2 0x433E JUMP JUMPDEST SWAP1 POP SWAP2 SWAP1 POP JUMP JUMPDEST PUSH2 0x4371 PUSH2 0x436C DUP3 PUSH2 0x295D JUMP JUMPDEST PUSH2 0x434F JUMP JUMPDEST DUP3 MSTORE POP POP JUMP JUMPDEST PUSH0 PUSH2 0x4382 DUP3 DUP14 PUSH2 0x42E1 JUMP JUMPDEST PUSH1 0x20 DUP3 ADD SWAP2 POP PUSH2 0x4392 DUP3 DUP13 PUSH2 0x42E1 JUMP JUMPDEST PUSH1 0x20 DUP3 ADD SWAP2 POP PUSH2 0x43A2 DUP3 DUP12 PUSH2 0x42E1 JUMP JUMPDEST PUSH1 0x20 DUP3 ADD SWAP2 POP PUSH2 0x43B2 DUP3 DUP11 PUSH2 0x4302 JUMP JUMPDEST SWAP2 POP PUSH2 0x43BE DUP3 DUP10 PUSH2 0x42E1 JUMP JUMPDEST PUSH1 0x20 DUP3 ADD SWAP2 POP PUSH2 0x43CE DUP3 DUP9 PUSH2 0x4360 JUMP JUMPDEST PUSH1 0x14 DUP3 ADD SWAP2 POP PUSH2 0x43DE DUP3 DUP8 PUSH2 0x4360 JUMP JUMPDEST PUSH1 0x14 DUP3 ADD SWAP2 POP PUSH2 0x43EE DUP3 DUP7 PUSH2 0x42E1 JUMP JUMPDEST PUSH1 0x20 DUP3 ADD SWAP2 POP PUSH2 0x43FE DUP3 DUP6 PUSH2 0x4360 JUMP JUMPDEST PUSH1 0x14 DUP3 ADD SWAP2 POP PUSH2 0x440E DUP3 DUP5 PUSH2 0x42E1 JUMP JUMPDEST PUSH1 0x20 DUP3 ADD SWAP2 POP DUP2 SWAP1 POP SWAP12 SWAP11 POP POP POP POP POP POP POP POP POP POP POP JUMP JUMPDEST PUSH32 0x455243313936373A206E657720696D706C656D656E746174696F6E206973206E PUSH0 DUP3 ADD MSTORE PUSH32 0x6F74206120636F6E747261637400000000000000000000000000000000000000 PUSH1 0x20 DUP3 ADD MSTORE POP JUMP JUMPDEST PUSH0 PUSH2 0x4480 PUSH1 0x2D DUP4 PUSH2 0x30B0 JUMP JUMPDEST SWAP2 POP PUSH2 0x448B DUP3 PUSH2 0x4426 JUMP JUMPDEST PUSH1 0x40 DUP3 ADD SWAP1 POP SWAP2 SWAP1 POP JUMP JUMPDEST PUSH0 PUSH1 0x20 DUP3 ADD SWAP1 POP DUP2 DUP2 SUB PUSH0 DUP4 ADD MSTORE PUSH2 0x44AD DUP2 PUSH2 0x4474 JUMP JUMPDEST SWAP1 POP SWAP2 SWAP1 POP JUMP JUMPDEST PUSH32 0x5061636B657420616C726561647920636F6E73756D6564000000000000000000 PUSH0 DUP3 ADD MSTORE POP JUMP JUMPDEST PUSH0 PUSH2 0x44E8 PUSH1 0x17 DUP4 PUSH2 0x30B0 JUMP JUMPDEST SWAP2 POP PUSH2 0x44F3 DUP3 PUSH2 0x44B4 JUMP JUMPDEST PUSH1 0x20 DUP3 ADD SWAP1 POP SWAP2 SWAP1 POP JUMP JUMPDEST PUSH0 PUSH1 0x20 DUP3 ADD SWAP1 POP DUP2 DUP2 SUB PUSH0 DUP4 ADD MSTORE PUSH2 0x4515 DUP2 PUSH2 0x44DC JUMP JUMPDEST SWAP1 POP SWAP2 SWAP1 POP JUMP JUMPDEST PUSH0 PUSH1 0x40 DUP3 ADD SWAP1 POP PUSH2 0x452F PUSH0 DUP4 ADD DUP6 PUSH2 0x2916 JUMP JUMPDEST PUSH2 0x453C PUSH1 0x20 DUP4 ADD DUP5 PUSH2 0x336B JUMP JUMPDEST SWAP4 SWAP3 POP POP POP JUMP JUMPDEST PUSH1 0x60 DUP3 ADD PUSH0 DUP3 ADD MLOAD PUSH2 0x4557 PUSH0 DUP6 ADD DUP3 PUSH2 0x29E1 JUMP JUMPDEST POP PUSH1 0x20 DUP3 ADD MLOAD PUSH2 0x456A PUSH1 0x20 DUP6 ADD DUP3 PUSH2 0x29D2 JUMP JUMPDEST POP PUSH1 0x40 DUP3 ADD MLOAD PUSH2 0x457D PUSH1 0x40 DUP6 ADD DUP3 PUSH2 0x29E1 JUMP JUMPDEST POP POP POP POP JUMP JUMPDEST PUSH0 PUSH2 0x120 DUP4 ADD PUSH0 DUP4 ADD MLOAD PUSH2 0x4599 PUSH0 DUP7 ADD DUP3 PUSH2 0x29D2 JUMP JUMPDEST POP PUSH1 0x20 DUP4 ADD MLOAD PUSH2 0x45AC PUSH1 0x20 DUP7 ADD DUP3 PUSH2 0x29D2 JUMP JUMPDEST POP PUSH1 0x40 DUP4 ADD MLOAD DUP5 DUP3 SUB PUSH1 0x40 DUP7 ADD MSTORE PUSH2 0x45C4 DUP3 DUP3 PUSH2 0x37E9 JUMP JUMPDEST SWAP2 POP POP PUSH1 0x60 DUP4 ADD MLOAD PUSH2 0x45D9 PUSH1 0x60 DUP7 ADD DUP3 PUSH2 0x37BC JUMP JUMPDEST POP PUSH1 0x80 DUP4 ADD MLOAD PUSH2 0x45EC PUSH1 0xA0 DUP7 ADD DUP3 PUSH2 0x4543 JUMP JUMPDEST POP PUSH1 0xA0 DUP4 ADD MLOAD PUSH2 0x4600 PUSH2 0x100 DUP7 ADD DUP3 PUSH2 0x29D2 JUMP JUMPDEST POP DUP1 SWAP2 POP POP SWAP3 SWAP2 POP POP JUMP JUMPDEST PUSH0 PUSH1 0x20 DUP3 ADD SWAP1 POP DUP2 DUP2 SUB PUSH0 DUP4 ADD MSTORE PUSH2 0x4623 DUP2 DUP5 PUSH2 0x4583 JUMP JUMPDEST SWAP1 POP SWAP3 SWAP2 POP POP JUMP JUMPDEST PUSH32 0x416464726573733A20696E76616C69642064656C65676174652063616C6C0000 PUSH0 DUP3 ADD MSTORE POP JUMP JUMPDEST PUSH0 PUSH2 0x465F PUSH1 0x1E DUP4 PUSH2 0x30B0 JUMP JUMPDEST SWAP2 POP PUSH2 0x466A DUP3 PUSH2 0x462B JUMP JUMPDEST PUSH1 0x20 DUP3 ADD SWAP1 POP SWAP2 SWAP1 POP JUMP JUMPDEST PUSH0 PUSH1 0x20 DUP3 ADD SWAP1 POP DUP2 DUP2 SUB PUSH0 DUP4 ADD MSTORE PUSH2 0x468C DUP2 PUSH2 0x4653 JUMP JUMPDEST SWAP1 POP SWAP2 SWAP1 POP JUMP JUMPDEST PUSH0 DUP2 MLOAD SWAP1 POP SWAP2 SWAP1 POP JUMP JUMPDEST PUSH0 DUP2 SWAP1 POP SWAP3 SWAP2 POP POP JUMP JUMPDEST PUSH0 PUSH2 0x46B1 DUP3 PUSH2 0x4693 JUMP JUMPDEST PUSH2 0x46BB DUP2 DUP6 PUSH2 0x469D JUMP JUMPDEST SWAP4 POP PUSH2 0x46CB DUP2 DUP6 PUSH1 0x20 DUP7 ADD PUSH2 0x2A37 JUMP JUMPDEST DUP1 DUP5 ADD SWAP2 POP POP SWAP3 SWAP2 POP POP JUMP JUMPDEST PUSH0 PUSH2 0x46E2 DUP3 DUP5 PUSH2 0x46A7 JUMP JUMPDEST SWAP2 POP DUP2 SWAP1 POP SWAP3 SWAP2 POP POP JUMP JUMPDEST PUSH0 PUSH1 0x20 DUP3 ADD SWAP1 POP DUP2 DUP2 SUB PUSH0 DUP4 ADD MSTORE PUSH2 0x4705 DUP2 DUP5 PUSH2 0x30C0 JUMP JUMPDEST SWAP1 POP SWAP3 SWAP2 POP POP JUMP INVALID COINBASE PUSH5 0x6472657373 GASPRICE KECCAK256 PUSH13 0x6F772D6C6576656C2064656C65 PUSH8 0x6174652063616C6C KECCAK256 PUSH7 0x61696C6564A264 PUSH10 0x70667358221220CD39E5 RETURNDATACOPY SELFDESTRUCT JUMP NOT 0xFC 0xC4 0xDA 0xAA PREVRANDAO MOD 0xD2 0xC5 0xE8 SUB 0xB6 0xCA PUSH22 0xEB53FC58AF9BC4FD74919DC864736F6C634300081600 CALLER "
		},
		"gasEstimates": {
			"creation": {
				"codeDepositCost": "3656400",
				"executionCost": "infinite",
				"totalCost": "infinite"
			},
			"external": {
				"addAttestor(address,uint256)": "infinite",
				"addChain(uint256,string)": "infinite",
				"addTokenService(address)": "infinite",
				"chains(uint256)": "infinite",
				"consume((uint256,uint256,(uint256,string),(uint256,address),(address,uint256,address),uint256))": "infinite",
				"consumedPackets(uint256,uint256)": "infinite",
				"doubleNum()": "infinite",
				"getIncomingPacketHash(uint256,uint256)": "infinite",
				"hasQuorumReached(bytes32)": "5029",
				"hasVoted(bytes32,address)": "3162",
				"incomingPacketExists(uint256,uint256)": "infinite",
				"incomingPackets(uint256,uint256)": "infinite",
				"initialize(address)": "108259",
				"isAttestor(address)": "2938",
				"isPacketConsumed(uint256,uint256)": "infinite",
				"isRegisteredTokenService(address)": "2938",
				"isSupportedChain(uint256)": "2834",
				"num()": "2515",
				"outgoingPackets(uint256,uint256)": "infinite",
				"owner()": "2598",
				"proxiableUUID()": "infinite",
				"receivePacket((uint256,uint256,(uint256,string),(uint256,address),(address,uint256,address),uint256))": "infinite",
				"receivePacketBatch((uint256,uint256,(uint256,string),(uint256,address),(address,uint256,address),uint256)[])": "infinite",
				"removeAttestor(address,uint256)": "infinite",
				"removeChain(uint256)": "infinite",
				"removeTokenService(address)": "infinite",
				"sendMessage((uint256,uint256,(uint256,address),(uint256,string),(string,uint256,string),uint256))": "infinite",
				"sequences(uint256)": "infinite",
				"transferOwnership(address)": "26950",
				"upgradeTo(address)": "infinite",
				"upgradeToAndCall(address,bytes)": "infinite"
			},
			"internal": {
				"_authorizeUpgrade(address)": "2180",
				"_beforeTokenBridge(uint256)": "infinite",
				"_getQuorumRequired()": "2122",
				"_preValidateInPacket(struct PacketLibrary.InPacket memory)": "infinite",
				"_removeIncomingPacket(uint256,uint256)": "5179",
				"_setConsumedPacket(uint256,uint256,bytes32)": "22287",
				"_setIncomingPacket(uint256,uint256,bytes32)": "22287",
				"_setOutgoingPacket(struct PacketLibrary.OutPacket memory)": "infinite",
				"_updateInPacketState(struct PacketLibrary.InPacket memory,uint256)": "infinite",
				"_validateConfig()": "infinite"
			}
		},
		"methodIdentifiers": {
			"addAttestor(address,uint256)": "ea6469f8",
			"addChain(uint256,string)": "af83d4d8",
			"addTokenService(address)": "f78dd84d",
			"chains(uint256)": "550325b5",
			"consume((uint256,uint256,(uint256,string),(uint256,address),(address,uint256,address),uint256))": "f96f8b63",
			"consumedPackets(uint256,uint256)": "555e9074",
			"doubleNum()": "01bf652c",
			"getIncomingPacketHash(uint256,uint256)": "419eb411",
			"hasQuorumReached(bytes32)": "c0abe2fe",
			"hasVoted(bytes32,address)": "aadc3b72",
			"incomingPacketExists(uint256,uint256)": "b8cc3eaa",
			"incomingPackets(uint256,uint256)": "03d1d693",
			"initialize(address)": "c4d66de8",
			"isAttestor(address)": "2e2f4e24",
			"isPacketConsumed(uint256,uint256)": "4d7fc58e",
			"isRegisteredTokenService(address)": "6b3da26f",
			"isSupportedChain(uint256)": "5153d467",
			"num()": "4e70b1dc",
			"outgoingPackets(uint256,uint256)": "188b5339",
			"owner()": "8da5cb5b",
			"proxiableUUID()": "52d1902d",
			"receivePacket((uint256,uint256,(uint256,string),(uint256,address),(address,uint256,address),uint256))": "e16aa3c0",
			"receivePacketBatch((uint256,uint256,(uint256,string),(uint256,address),(address,uint256,address),uint256)[])": "5bec0d37",
			"removeAttestor(address,uint256)": "91e8d207",
			"removeChain(uint256)": "cbf50bb6",
			"removeTokenService(address)": "05cd5a36",
			"sendMessage((uint256,uint256,(uint256,address),(uint256,string),(string,uint256,string),uint256))": "4bc2ea7d",
			"sequences(uint256)": "c86a64f7",
			"transferOwnership(address)": "f2fde38b",
			"upgradeTo(address)": "3659cfe6",
			"upgradeToAndCall(address,bytes)": "4f1ef286"
		}
	},
	"abi": [
		{
			"anonymous": false,
			"inputs": [
				{
					"indexed": false,
					"internalType": "address",
					"name": "previousAdmin",
					"type": "address"
				},
				{
					"indexed": false,
					"internalType": "address",
					"name": "newAdmin",
					"type": "address"
				}
			],
			"name": "AdminChanged",
			"type": "event"
		},
		{
			"anonymous": false,
			"inputs": [
				{
					"indexed": false,
					"internalType": "bytes32",
					"name": "packetHash",
					"type": "bytes32"
				},
				{
					"indexed": false,
					"internalType": "address",
					"name": "voter",
					"type": "address"
				}
			],
			"name": "AlreadyVoted",
			"type": "event"
		},
		{
			"anonymous": false,
			"inputs": [
				{
					"indexed": false,
					"internalType": "address",
					"name": "attestor",
					"type": "address"
				},
				{
					"indexed": false,
					"internalType": "uint256",
					"name": "quorum",
					"type": "uint256"
				}
			],
			"name": "AttestorAdded",
			"type": "event"
		},
		{
			"anonymous": false,
			"inputs": [
				{
					"indexed": false,
					"internalType": "address",
					"name": "attestor",
					"type": "address"
				},
				{
					"indexed": false,
					"internalType": "uint256",
					"name": "quorum",
					"type": "uint256"
				}
			],
			"name": "AttestorRemoved",
			"type": "event"
		},
		{
			"anonymous": false,
			"inputs": [
				{
					"indexed": true,
					"internalType": "address",
					"name": "beacon",
					"type": "address"
				}
			],
			"name": "BeaconUpgraded",
			"type": "event"
		},
		{
			"anonymous": false,
			"inputs": [
				{
					"components": [
						{
							"internalType": "uint256",
							"name": "chainId",
							"type": "uint256"
						},
						{
							"internalType": "string",
							"name": "addr",
							"type": "string"
						}
					],
					"indexed": false,
					"internalType": "struct PacketLibrary.OutNetworkAddress",
					"name": "chain",
					"type": "tuple"
				}
			],
			"name": "ChainAdded",
			"type": "event"
		},
		{
			"anonymous": false,
			"inputs": [
				{
					"indexed": false,
					"internalType": "uint256",
					"name": "chainId",
					"type": "uint256"
				}
			],
			"name": "ChainRemoved",
			"type": "event"
		},
		{
			"anonymous": false,
			"inputs": [
				{
					"indexed": false,
					"internalType": "bytes32",
					"name": "packetHash",
					"type": "bytes32"
				}
			],
			"name": "Consumed",
			"type": "event"
		},
		{
			"anonymous": false,
			"inputs": [
				{
					"indexed": false,
					"internalType": "uint8",
					"name": "version",
					"type": "uint8"
				}
			],
			"name": "Initialized",
			"type": "event"
		},
		{
			"anonymous": false,
			"inputs": [
				{
					"components": [
						{
							"internalType": "uint256",
							"name": "version",
							"type": "uint256"
						},
						{
							"internalType": "uint256",
							"name": "sequence",
							"type": "uint256"
						},
						{
							"components": [
								{
									"internalType": "uint256",
									"name": "chainId",
									"type": "uint256"
								},
								{
									"internalType": "string",
									"name": "addr",
									"type": "string"
								}
							],
							"internalType": "struct PacketLibrary.OutNetworkAddress",
							"name": "source",
							"type": "tuple"
						},
						{
							"components": [
								{
									"internalType": "uint256",
									"name": "chainId",
									"type": "uint256"
								},
								{
									"internalType": "address",
									"name": "addr",
									"type": "address"
								}
							],
							"internalType": "struct PacketLibrary.InNetworkAddress",
							"name": "destination",
							"type": "tuple"
						},
						{
							"components": [
								{
									"internalType": "address",
									"name": "destTokenAddress",
									"type": "address"
								},
								{
									"internalType": "uint256",
									"name": "amount",
									"type": "uint256"
								},
								{
									"internalType": "address",
									"name": "receiverAddress",
									"type": "address"
								}
							],
							"internalType": "struct PacketLibrary.InTokenMessage",
							"name": "message",
							"type": "tuple"
						},
						{
							"internalType": "uint256",
							"name": "height",
							"type": "uint256"
						}
					],
					"indexed": false,
					"internalType": "struct PacketLibrary.InPacket",
					"name": "packet",
					"type": "tuple"
				}
			],
			"name": "PacketArrived",
			"type": "event"
		},
		{
			"anonymous": false,
			"inputs": [
				{
					"components": [
						{
							"internalType": "uint256",
							"name": "version",
							"type": "uint256"
						},
						{
							"internalType": "uint256",
							"name": "sequence",
							"type": "uint256"
						},
						{
							"components": [
								{
									"internalType": "uint256",
									"name": "chainId",
									"type": "uint256"
								},
								{
									"internalType": "address",
									"name": "addr",
									"type": "address"
								}
							],
							"internalType": "struct PacketLibrary.InNetworkAddress",
							"name": "source",
							"type": "tuple"
						},
						{
							"components": [
								{
									"internalType": "uint256",
									"name": "chainId",
									"type": "uint256"
								},
								{
									"internalType": "string",
									"name": "addr",
									"type": "string"
								}
							],
							"internalType": "struct PacketLibrary.OutNetworkAddress",
							"name": "destination",
							"type": "tuple"
						},
						{
							"components": [
								{
									"internalType": "string",
									"name": "destTokenAddress",
									"type": "string"
								},
								{
									"internalType": "uint256",
									"name": "amount",
									"type": "uint256"
								},
								{
									"internalType": "string",
									"name": "receiverAddress",
									"type": "string"
								}
							],
							"internalType": "struct PacketLibrary.OutTokenMessage",
							"name": "message",
							"type": "tuple"
						},
						{
							"internalType": "uint256",
							"name": "height",
							"type": "uint256"
						}
					],
					"indexed": false,
					"internalType": "struct PacketLibrary.OutPacket",
					"name": "packet",
					"type": "tuple"
				}
			],
			"name": "PacketDispatched",
			"type": "event"
		},
		{
			"anonymous": false,
			"inputs": [
				{
					"indexed": false,
					"internalType": "address",
					"name": "tokenService",
					"type": "address"
				}
			],
			"name": "TokenServiceAdded",
			"type": "event"
		},
		{
			"anonymous": false,
			"inputs": [
				{
					"indexed": false,
					"internalType": "address",
					"name": "tokenService",
					"type": "address"
				}
			],
			"name": "TokenServiceRemoved",
			"type": "event"
		},
		{
			"anonymous": false,
			"inputs": [
				{
					"indexed": true,
					"internalType": "address",
					"name": "implementation",
					"type": "address"
				}
			],
			"name": "Upgraded",
			"type": "event"
		},
		{
			"anonymous": false,
			"inputs": [
				{
					"indexed": false,
					"internalType": "bytes32",
					"name": "packetHash",
					"type": "bytes32"
				},
				{
					"indexed": false,
					"internalType": "address",
					"name": "voter",
					"type": "address"
				}
			],
			"name": "Voted",
			"type": "event"
		},
		{
			"inputs": [
				{
					"internalType": "address",
					"name": "attestor",
					"type": "address"
				},
				{
					"internalType": "uint256",
					"name": "newQuorumRequired",
					"type": "uint256"
				}
			],
			"name": "addAttestor",
			"outputs": [],
			"stateMutability": "nonpayable",
			"type": "function"
		},
		{
			"inputs": [
				{
					"internalType": "uint256",
					"name": "chainId",
					"type": "uint256"
				},
				{
					"internalType": "string",
					"name": "destBridgeAddress",
					"type": "string"
				}
			],
			"name": "addChain",
			"outputs": [],
			"stateMutability": "nonpayable",
			"type": "function"
		},
		{
			"inputs": [
				{
					"internalType": "address",
					"name": "tokenService",
					"type": "address"
				}
			],
			"name": "addTokenService",
			"outputs": [],
			"stateMutability": "nonpayable",
			"type": "function"
		},
		{
			"inputs": [
				{
					"internalType": "uint256",
					"name": "",
					"type": "uint256"
				}
			],
			"name": "chains",
			"outputs": [
				{
					"internalType": "uint256",
					"name": "chainId",
					"type": "uint256"
				},
				{
					"internalType": "string",
					"name": "addr",
					"type": "string"
				}
			],
			"stateMutability": "view",
			"type": "function"
		},
		{
			"inputs": [
				{
					"components": [
						{
							"internalType": "uint256",
							"name": "version",
							"type": "uint256"
						},
						{
							"internalType": "uint256",
							"name": "sequence",
							"type": "uint256"
						},
						{
							"components": [
								{
									"internalType": "uint256",
									"name": "chainId",
									"type": "uint256"
								},
								{
									"internalType": "string",
									"name": "addr",
									"type": "string"
								}
							],
							"internalType": "struct PacketLibrary.OutNetworkAddress",
							"name": "source",
							"type": "tuple"
						},
						{
							"components": [
								{
									"internalType": "uint256",
									"name": "chainId",
									"type": "uint256"
								},
								{
									"internalType": "address",
									"name": "addr",
									"type": "address"
								}
							],
							"internalType": "struct PacketLibrary.InNetworkAddress",
							"name": "destination",
							"type": "tuple"
						},
						{
							"components": [
								{
									"internalType": "address",
									"name": "destTokenAddress",
									"type": "address"
								},
								{
									"internalType": "uint256",
									"name": "amount",
									"type": "uint256"
								},
								{
									"internalType": "address",
									"name": "receiverAddress",
									"type": "address"
								}
							],
							"internalType": "struct PacketLibrary.InTokenMessage",
							"name": "message",
							"type": "tuple"
						},
						{
							"internalType": "uint256",
							"name": "height",
							"type": "uint256"
						}
					],
					"internalType": "struct PacketLibrary.InPacket",
					"name": "packet",
					"type": "tuple"
				}
			],
			"name": "consume",
			"outputs": [],
			"stateMutability": "nonpayable",
			"type": "function"
		},
		{
			"inputs": [
				{
					"internalType": "uint256",
					"name": "",
					"type": "uint256"
				},
				{
					"internalType": "uint256",
					"name": "",
					"type": "uint256"
				}
			],
			"name": "consumedPackets",
			"outputs": [
				{
					"internalType": "bytes32",
					"name": "",
					"type": "bytes32"
				}
			],
			"stateMutability": "view",
			"type": "function"
		},
		{
			"inputs": [],
			"name": "doubleNum",
			"outputs": [],
			"stateMutability": "nonpayable",
			"type": "function"
		},
		{
			"inputs": [
				{
					"internalType": "uint256",
					"name": "_chainId",
					"type": "uint256"
				},
				{
					"internalType": "uint256",
					"name": "sequence",
					"type": "uint256"
				}
			],
			"name": "getIncomingPacketHash",
			"outputs": [
				{
					"internalType": "bytes32",
					"name": "packetHash",
					"type": "bytes32"
				}
			],
			"stateMutability": "view",
			"type": "function"
		},
		{
			"inputs": [
				{
					"internalType": "bytes32",
					"name": "packetHash",
					"type": "bytes32"
				}
			],
			"name": "hasQuorumReached",
			"outputs": [
				{
					"internalType": "bool",
					"name": "",
					"type": "bool"
				}
			],
			"stateMutability": "view",
			"type": "function"
		},
		{
			"inputs": [
				{
					"internalType": "bytes32",
					"name": "packetHash",
					"type": "bytes32"
				},
				{
					"internalType": "address",
					"name": "voter",
					"type": "address"
				}
			],
			"name": "hasVoted",
			"outputs": [
				{
					"internalType": "bool",
					"name": "",
					"type": "bool"
				}
			],
			"stateMutability": "view",
			"type": "function"
		},
		{
			"inputs": [
				{
					"internalType": "uint256",
					"name": "_chainId",
					"type": "uint256"
				},
				{
					"internalType": "uint256",
					"name": "_sequence",
					"type": "uint256"
				}
			],
			"name": "incomingPacketExists",
			"outputs": [
				{
					"internalType": "bool",
					"name": "",
					"type": "bool"
				}
			],
			"stateMutability": "view",
			"type": "function"
		},
		{
			"inputs": [
				{
					"internalType": "uint256",
					"name": "",
					"type": "uint256"
				},
				{
					"internalType": "uint256",
					"name": "",
					"type": "uint256"
				}
			],
			"name": "incomingPackets",
			"outputs": [
				{
					"internalType": "bytes32",
					"name": "",
					"type": "bytes32"
				}
			],
			"stateMutability": "view",
			"type": "function"
		},
		{
			"inputs": [
				{
					"internalType": "address",
					"name": "_owner",
					"type": "address"
				}
			],
			"name": "initialize",
			"outputs": [],
			"stateMutability": "nonpayable",
			"type": "function"
		},
		{
			"inputs": [
				{
					"internalType": "address",
					"name": "attestor",
					"type": "address"
				}
			],
			"name": "isAttestor",
			"outputs": [
				{
					"internalType": "bool",
					"name": "",
					"type": "bool"
				}
			],
			"stateMutability": "view",
			"type": "function"
		},
		{
			"inputs": [
				{
					"internalType": "uint256",
					"name": "_chainId",
					"type": "uint256"
				},
				{
					"internalType": "uint256",
					"name": "_sequence",
					"type": "uint256"
				}
			],
			"name": "isPacketConsumed",
			"outputs": [
				{
					"internalType": "bool",
					"name": "",
					"type": "bool"
				}
			],
			"stateMutability": "view",
			"type": "function"
		},
		{
			"inputs": [
				{
					"internalType": "address",
					"name": "tokenService",
					"type": "address"
				}
			],
			"name": "isRegisteredTokenService",
			"outputs": [
				{
					"internalType": "bool",
					"name": "",
					"type": "bool"
				}
			],
			"stateMutability": "view",
			"type": "function"
		},
		{
			"inputs": [
				{
					"internalType": "uint256",
					"name": "chainId",
					"type": "uint256"
				}
			],
			"name": "isSupportedChain",
			"outputs": [
				{
					"internalType": "bool",
					"name": "",
					"type": "bool"
				}
			],
			"stateMutability": "view",
			"type": "function"
		},
		{
			"inputs": [],
			"name": "num",
			"outputs": [
				{
					"internalType": "uint256",
					"name": "",
					"type": "uint256"
				}
			],
			"stateMutability": "view",
			"type": "function"
		},
		{
			"inputs": [
				{
					"internalType": "uint256",
					"name": "",
					"type": "uint256"
				},
				{
					"internalType": "uint256",
					"name": "",
					"type": "uint256"
				}
			],
			"name": "outgoingPackets",
			"outputs": [
				{
					"internalType": "uint256",
					"name": "version",
					"type": "uint256"
				},
				{
					"internalType": "uint256",
					"name": "sequence",
					"type": "uint256"
				},
				{
					"components": [
						{
							"internalType": "uint256",
							"name": "chainId",
							"type": "uint256"
						},
						{
							"internalType": "address",
							"name": "addr",
							"type": "address"
						}
					],
					"internalType": "struct PacketLibrary.InNetworkAddress",
					"name": "source",
					"type": "tuple"
				},
				{
					"components": [
						{
							"internalType": "uint256",
							"name": "chainId",
							"type": "uint256"
						},
						{
							"internalType": "string",
							"name": "addr",
							"type": "string"
						}
					],
					"internalType": "struct PacketLibrary.OutNetworkAddress",
					"name": "destination",
					"type": "tuple"
				},
				{
					"components": [
						{
							"internalType": "string",
							"name": "destTokenAddress",
							"type": "string"
						},
						{
							"internalType": "uint256",
							"name": "amount",
							"type": "uint256"
						},
						{
							"internalType": "string",
							"name": "receiverAddress",
							"type": "string"
						}
					],
					"internalType": "struct PacketLibrary.OutTokenMessage",
					"name": "message",
					"type": "tuple"
				},
				{
					"internalType": "uint256",
					"name": "height",
					"type": "uint256"
				}
			],
			"stateMutability": "view",
			"type": "function"
		},
		{
			"inputs": [],
			"name": "owner",
			"outputs": [
				{
					"internalType": "address",
					"name": "",
					"type": "address"
				}
			],
			"stateMutability": "view",
			"type": "function"
		},
		{
			"inputs": [],
			"name": "proxiableUUID",
			"outputs": [
				{
					"internalType": "bytes32",
					"name": "",
					"type": "bytes32"
				}
			],
			"stateMutability": "view",
			"type": "function"
		},
		{
			"inputs": [
				{
					"components": [
						{
							"internalType": "uint256",
							"name": "version",
							"type": "uint256"
						},
						{
							"internalType": "uint256",
							"name": "sequence",
							"type": "uint256"
						},
						{
							"components": [
								{
									"internalType": "uint256",
									"name": "chainId",
									"type": "uint256"
								},
								{
									"internalType": "string",
									"name": "addr",
									"type": "string"
								}
							],
							"internalType": "struct PacketLibrary.OutNetworkAddress",
							"name": "source",
							"type": "tuple"
						},
						{
							"components": [
								{
									"internalType": "uint256",
									"name": "chainId",
									"type": "uint256"
								},
								{
									"internalType": "address",
									"name": "addr",
									"type": "address"
								}
							],
							"internalType": "struct PacketLibrary.InNetworkAddress",
							"name": "destination",
							"type": "tuple"
						},
						{
							"components": [
								{
									"internalType": "address",
									"name": "destTokenAddress",
									"type": "address"
								},
								{
									"internalType": "uint256",
									"name": "amount",
									"type": "uint256"
								},
								{
									"internalType": "address",
									"name": "receiverAddress",
									"type": "address"
								}
							],
							"internalType": "struct PacketLibrary.InTokenMessage",
							"name": "message",
							"type": "tuple"
						},
						{
							"internalType": "uint256",
							"name": "height",
							"type": "uint256"
						}
					],
					"internalType": "struct PacketLibrary.InPacket",
					"name": "packet",
					"type": "tuple"
				}
			],
			"name": "receivePacket",
			"outputs": [],
			"stateMutability": "nonpayable",
			"type": "function"
		},
		{
			"inputs": [
				{
					"components": [
						{
							"internalType": "uint256",
							"name": "version",
							"type": "uint256"
						},
						{
							"internalType": "uint256",
							"name": "sequence",
							"type": "uint256"
						},
						{
							"components": [
								{
									"internalType": "uint256",
									"name": "chainId",
									"type": "uint256"
								},
								{
									"internalType": "string",
									"name": "addr",
									"type": "string"
								}
							],
							"internalType": "struct PacketLibrary.OutNetworkAddress",
							"name": "source",
							"type": "tuple"
						},
						{
							"components": [
								{
									"internalType": "uint256",
									"name": "chainId",
									"type": "uint256"
								},
								{
									"internalType": "address",
									"name": "addr",
									"type": "address"
								}
							],
							"internalType": "struct PacketLibrary.InNetworkAddress",
							"name": "destination",
							"type": "tuple"
						},
						{
							"components": [
								{
									"internalType": "address",
									"name": "destTokenAddress",
									"type": "address"
								},
								{
									"internalType": "uint256",
									"name": "amount",
									"type": "uint256"
								},
								{
									"internalType": "address",
									"name": "receiverAddress",
									"type": "address"
								}
							],
							"internalType": "struct PacketLibrary.InTokenMessage",
							"name": "message",
							"type": "tuple"
						},
						{
							"internalType": "uint256",
							"name": "height",
							"type": "uint256"
						}
					],
					"internalType": "struct PacketLibrary.InPacket[]",
					"name": "packets",
					"type": "tuple[]"
				}
			],
			"name": "receivePacketBatch",
			"outputs": [],
			"stateMutability": "nonpayable",
			"type": "function"
		},
		{
			"inputs": [
				{
					"internalType": "address",
					"name": "attestor",
					"type": "address"
				},
				{
					"internalType": "uint256",
					"name": "newQuorumRequired",
					"type": "uint256"
				}
			],
			"name": "removeAttestor",
			"outputs": [],
			"stateMutability": "nonpayable",
			"type": "function"
		},
		{
			"inputs": [
				{
					"internalType": "uint256",
					"name": "chainId",
					"type": "uint256"
				}
			],
			"name": "removeChain",
			"outputs": [],
			"stateMutability": "nonpayable",
			"type": "function"
		},
		{
			"inputs": [
				{
					"internalType": "address",
					"name": "tokenService",
					"type": "address"
				}
			],
			"name": "removeTokenService",
			"outputs": [],
			"stateMutability": "nonpayable",
			"type": "function"
		},
		{
			"inputs": [
				{
					"components": [
						{
							"internalType": "uint256",
							"name": "version",
							"type": "uint256"
						},
						{
							"internalType": "uint256",
							"name": "sequence",
							"type": "uint256"
						},
						{
							"components": [
								{
									"internalType": "uint256",
									"name": "chainId",
									"type": "uint256"
								},
								{
									"internalType": "address",
									"name": "addr",
									"type": "address"
								}
							],
							"internalType": "struct PacketLibrary.InNetworkAddress",
							"name": "source",
							"type": "tuple"
						},
						{
							"components": [
								{
									"internalType": "uint256",
									"name": "chainId",
									"type": "uint256"
								},
								{
									"internalType": "string",
									"name": "addr",
									"type": "string"
								}
							],
							"internalType": "struct PacketLibrary.OutNetworkAddress",
							"name": "destination",
							"type": "tuple"
						},
						{
							"components": [
								{
									"internalType": "string",
									"name": "destTokenAddress",
									"type": "string"
								},
								{
									"internalType": "uint256",
									"name": "amount",
									"type": "uint256"
								},
								{
									"internalType": "string",
									"name": "receiverAddress",
									"type": "string"
								}
							],
							"internalType": "struct PacketLibrary.OutTokenMessage",
							"name": "message",
							"type": "tuple"
						},
						{
							"internalType": "uint256",
							"name": "height",
							"type": "uint256"
						}
					],
					"internalType": "struct PacketLibrary.OutPacket",
					"name": "packet",
					"type": "tuple"
				}
			],
			"name": "sendMessage",
			"outputs": [],
			"stateMutability": "nonpayable",
			"type": "function"
		},
		{
			"inputs": [
				{
					"internalType": "uint256",
					"name": "",
					"type": "uint256"
				}
			],
			"name": "sequences",
			"outputs": [
				{
					"internalType": "uint256",
					"name": "",
					"type": "uint256"
				}
			],
			"stateMutability": "view",
			"type": "function"
		},
		{
			"inputs": [
				{
					"internalType": "address",
					"name": "newOwner",
					"type": "address"
				}
			],
			"name": "transferOwnership",
			"outputs": [],
			"stateMutability": "nonpayable",
			"type": "function"
		},
		{
			"inputs": [
				{
					"internalType": "address",
					"name": "newImplementation",
					"type": "address"
				}
			],
			"name": "upgradeTo",
			"outputs": [],
			"stateMutability": "nonpayable",
			"type": "function"
		},
		{
			"inputs": [
				{
					"internalType": "address",
					"name": "newImplementation",
					"type": "address"
				},
				{
					"internalType": "bytes",
					"name": "data",
					"type": "bytes"
				}
			],
			"name": "upgradeToAndCall",
			"outputs": [],
			"stateMutability": "payable",
			"type": "function"
		}
	]
}